{
	"example.sol": {
		"nftMarket": {
			"abi": [
				{
					"inputs": [],
					"stateMutability": "nonpayable",
					"type": "constructor"
				},
				{
					"anonymous": false,
					"inputs": [
						{
							"indexed": true,
							"internalType": "uint256",
							"name": "itemId",
							"type": "uint256"
						},
						{
							"indexed": true,
							"internalType": "address",
							"name": "nftContract",
							"type": "address"
						},
						{
							"indexed": true,
							"internalType": "uint256",
							"name": "tokenId",
							"type": "uint256"
						},
						{
							"indexed": false,
							"internalType": "address payable",
							"name": "seller",
							"type": "address"
						},
						{
							"indexed": false,
							"internalType": "address payable",
							"name": "owner",
							"type": "address"
						},
						{
							"indexed": false,
							"internalType": "uint256",
							"name": "price",
							"type": "uint256"
						},
						{
							"indexed": false,
							"internalType": "bool",
							"name": "sold",
							"type": "bool"
						}
					],
					"name": "MarketItemCreated",
					"type": "event"
				},
				{
					"inputs": [
						{
							"internalType": "address",
							"name": "nftContract",
							"type": "address"
						},
						{
							"internalType": "uint256",
							"name": "tokenId",
							"type": "uint256"
						},
						{
							"internalType": "uint256",
							"name": "price",
							"type": "uint256"
						}
					],
					"name": "createMarketItem",
					"outputs": [],
					"stateMutability": "payable",
					"type": "function"
				},
				{
					"inputs": [
						{
							"internalType": "address",
							"name": "nftContract",
							"type": "address"
						},
						{
							"internalType": "uint256",
							"name": "itemId",
							"type": "uint256"
						}
					],
					"name": "createMarketSale",
					"outputs": [],
					"stateMutability": "payable",
					"type": "function"
				},
				{
					"inputs": [],
					"name": "fetchItemsCreated",
					"outputs": [
						{
							"components": [
								{
									"internalType": "uint256",
									"name": "itemId",
									"type": "uint256"
								},
								{
									"internalType": "address",
									"name": "nftContract",
									"type": "address"
								},
								{
									"internalType": "uint256",
									"name": "tokenId",
									"type": "uint256"
								},
								{
									"internalType": "address payable",
									"name": "seller",
									"type": "address"
								},
								{
									"internalType": "address payable",
									"name": "owner",
									"type": "address"
								},
								{
									"internalType": "uint256",
									"name": "price",
									"type": "uint256"
								},
								{
									"internalType": "bool",
									"name": "sold",
									"type": "bool"
								}
							],
							"internalType": "struct nftMarket.MarketItem[]",
							"name": "",
							"type": "tuple[]"
						}
					],
					"stateMutability": "view",
					"type": "function"
				},
				{
					"inputs": [],
					"name": "fetchMarketItems",
					"outputs": [
						{
							"components": [
								{
									"internalType": "uint256",
									"name": "itemId",
									"type": "uint256"
								},
								{
									"internalType": "address",
									"name": "nftContract",
									"type": "address"
								},
								{
									"internalType": "uint256",
									"name": "tokenId",
									"type": "uint256"
								},
								{
									"internalType": "address payable",
									"name": "seller",
									"type": "address"
								},
								{
									"internalType": "address payable",
									"name": "owner",
									"type": "address"
								},
								{
									"internalType": "uint256",
									"name": "price",
									"type": "uint256"
								},
								{
									"internalType": "bool",
									"name": "sold",
									"type": "bool"
								}
							],
							"internalType": "struct nftMarket.MarketItem[]",
							"name": "",
							"type": "tuple[]"
						}
					],
					"stateMutability": "view",
					"type": "function"
				},
				{
					"inputs": [],
					"name": "fetchMyNFTs",
					"outputs": [
						{
							"components": [
								{
									"internalType": "uint256",
									"name": "itemId",
									"type": "uint256"
								},
								{
									"internalType": "address",
									"name": "nftContract",
									"type": "address"
								},
								{
									"internalType": "uint256",
									"name": "tokenId",
									"type": "uint256"
								},
								{
									"internalType": "address payable",
									"name": "seller",
									"type": "address"
								},
								{
									"internalType": "address payable",
									"name": "owner",
									"type": "address"
								},
								{
									"internalType": "uint256",
									"name": "price",
									"type": "uint256"
								},
								{
									"internalType": "bool",
									"name": "sold",
									"type": "bool"
								}
							],
							"internalType": "struct nftMarket.MarketItem[]",
							"name": "",
							"type": "tuple[]"
						}
					],
					"stateMutability": "view",
					"type": "function"
				},
				{
					"inputs": [],
					"name": "getListingPrice",
					"outputs": [
						{
							"internalType": "uint256",
							"name": "",
							"type": "uint256"
						}
					],
					"stateMutability": "view",
					"type": "function"
				},
				{
					"inputs": [
						{
							"internalType": "uint256",
							"name": "_price",
							"type": "uint256"
						}
					],
					"name": "setListingPrice",
					"outputs": [
						{
							"internalType": "uint256",
							"name": "",
							"type": "uint256"
						}
					],
					"stateMutability": "nonpayable",
					"type": "function"
				}
			],
			"devdoc": {
				"kind": "dev",
				"methods": {},
				"version": 1
			},
			"evm": {
				"assembly": "    /* \"example.sol\":276:8128  contract nftMarket is ReentrancyGuard {\r... */\n  mstore(0x40, 0x80)\n    /* \"example.sol\":661:672  0.035 ether */\n  0x7c585087238000\n    /* \"example.sol\":638:672  uint256 listingPrice = 0.035 ether */\n  0x04\n  sstore\n    /* \"example.sol\":681:740  constructor(){\r... */\n  callvalue\n  dup1\n  iszero\n  tag_1\n  jumpi\n  0x00\n  dup1\n  revert\ntag_1:\n  pop\n    /* \"@openzeppelin/contracts/security/ReentrancyGuard.sol\":1701:1702  1 */\n  0x01\n    /* \"@openzeppelin/contracts/security/ReentrancyGuard.sol\":1806:1813  _status */\n  0x00\n    /* \"@openzeppelin/contracts/security/ReentrancyGuard.sol\":1806:1828  _status = _NOT_ENTERED */\n  dup2\n  swap1\n  sstore\n  pop\n    /* \"example.sol\":721:731  msg.sender */\n  caller\n    /* \"example.sol\":705:710  owner */\n  0x03\n  0x00\n    /* \"example.sol\":705:732  owner = payable(msg.sender) */\n  0x0100\n  exp\n  dup2\n  sload\n  dup2\n  0xffffffffffffffffffffffffffffffffffffffff\n  mul\n  not\n  and\n  swap1\n  dup4\n  0xffffffffffffffffffffffffffffffffffffffff\n  and\n  mul\n  or\n  swap1\n  sstore\n  pop\n    /* \"example.sol\":276:8128  contract nftMarket is ReentrancyGuard {\r... */\n  dataSize(sub_0)\n  dup1\n  dataOffset(sub_0)\n  0x00\n  codecopy\n  0x00\n  return\nstop\n\nsub_0: assembly {\n        /* \"example.sol\":276:8128  contract nftMarket is ReentrancyGuard {\r... */\n      mstore(0x40, 0x80)\n      jumpi(tag_1, lt(calldatasize, 0x04))\n      shr(0xe0, calldataload(0x00))\n      dup1\n      0x58eb2df5\n      gt\n      tag_9\n      jumpi\n      dup1\n      0x58eb2df5\n      eq\n      tag_5\n      jumpi\n      dup1\n      0x7c726b69\n      eq\n      tag_6\n      jumpi\n      dup1\n      0xc23b139e\n      eq\n      tag_7\n      jumpi\n      dup1\n      0xf064c32e\n      eq\n      tag_8\n      jumpi\n      jump(tag_1)\n    tag_9:\n      dup1\n      0x0f08efe0\n      eq\n      tag_2\n      jumpi\n      dup1\n      0x12e85585\n      eq\n      tag_3\n      jumpi\n      dup1\n      0x202e3740\n      eq\n      tag_4\n      jumpi\n    tag_1:\n      0x00\n      dup1\n      revert\n        /* \"example.sol\":4678:5896  function fetchMarketItems() public view returns (MarketItem[] memory){\r... */\n    tag_2:\n      callvalue\n      dup1\n      iszero\n      tag_10\n      jumpi\n      0x00\n      dup1\n      revert\n    tag_10:\n      pop\n      tag_11\n      tag_12\n      jump\t// in\n    tag_11:\n      mload(0x40)\n      tag_13\n      swap2\n      swap1\n      tag_14\n      jump\t// in\n    tag_13:\n      mload(0x40)\n      dup1\n      swap2\n      sub\n      swap1\n      return\n        /* \"example.sol\":1605:1700  function getListingPrice() public view returns (uint256) {\r... */\n    tag_3:\n      callvalue\n      dup1\n      iszero\n      tag_15\n      jumpi\n      0x00\n      dup1\n      revert\n    tag_15:\n      pop\n      tag_16\n      tag_17\n      jump\t// in\n    tag_16:\n      mload(0x40)\n      tag_18\n      swap2\n      swap1\n      tag_19\n      jump\t// in\n    tag_18:\n      mload(0x40)\n      dup1\n      swap2\n      sub\n      swap1\n      return\n        /* \"example.sol\":5968:7004  function fetchMyNFTs()public view returns (MarketItem[] memory) {\r... */\n    tag_4:\n      callvalue\n      dup1\n      iszero\n      tag_20\n      jumpi\n      0x00\n      dup1\n      revert\n    tag_20:\n      pop\n      tag_21\n      tag_22\n      jump\t// in\n    tag_21:\n      mload(0x40)\n      tag_23\n      swap2\n      swap1\n      tag_14\n      jump\t// in\n    tag_23:\n      mload(0x40)\n      dup1\n      swap2\n      sub\n      swap1\n      return\n        /* \"example.sol\":1912:3498  function createMarketItem(\r... */\n    tag_5:\n      tag_24\n      0x04\n      dup1\n      calldatasize\n      sub\n      dup2\n      add\n      swap1\n      tag_25\n      swap2\n      swap1\n      tag_26\n      jump\t// in\n    tag_25:\n      tag_27\n      jump\t// in\n    tag_24:\n      stop\n        /* \"example.sol\":1710:1843  function setListingPrice(uint _price) public returns (uint256) {\r... */\n    tag_6:\n      callvalue\n      dup1\n      iszero\n      tag_28\n      jumpi\n      0x00\n      dup1\n      revert\n    tag_28:\n      pop\n      tag_29\n      0x04\n      dup1\n      calldatasize\n      sub\n      dup2\n      add\n      swap1\n      tag_30\n      swap2\n      swap1\n      tag_31\n      jump\t// in\n    tag_30:\n      tag_32\n      jump\t// in\n    tag_29:\n      mload(0x40)\n      tag_33\n      swap2\n      swap1\n      tag_19\n      jump\t// in\n    tag_33:\n      mload(0x40)\n      dup1\n      swap2\n      sub\n      swap1\n      return\n        /* \"example.sol\":3559:4586  function createMarketSale(\r... */\n    tag_7:\n      tag_34\n      0x04\n      dup1\n      calldatasize\n      sub\n      dup2\n      add\n      swap1\n      tag_35\n      swap2\n      swap1\n      tag_36\n      jump\t// in\n    tag_35:\n      tag_37\n      jump\t// in\n    tag_34:\n      stop\n        /* \"example.sol\":7082:8125  function fetchItemsCreated() public view returns (MarketItem[] memory) {\r... */\n    tag_8:\n      callvalue\n      dup1\n      iszero\n      tag_38\n      jumpi\n      0x00\n      dup1\n      revert\n    tag_38:\n      pop\n      tag_39\n      tag_40\n      jump\t// in\n    tag_39:\n      mload(0x40)\n      tag_41\n      swap2\n      swap1\n      tag_14\n      jump\t// in\n    tag_41:\n      mload(0x40)\n      dup1\n      swap2\n      sub\n      swap1\n      return\n        /* \"example.sol\":4678:5896  function fetchMarketItems() public view returns (MarketItem[] memory){\r... */\n    tag_12:\n        /* \"example.sol\":4727:4746  MarketItem[] memory */\n      0x60\n        /* \"example.sol\":4762:4776  uint itemCount */\n      0x00\n        /* \"example.sol\":4779:4797  _itemIds.current() */\n      tag_43\n        /* \"example.sol\":4779:4787  _itemIds */\n      0x01\n        /* \"example.sol\":4779:4795  _itemIds.current */\n      tag_44\n        /* \"example.sol\":4779:4797  _itemIds.current() */\n      jump\t// in\n    tag_43:\n        /* \"example.sol\":4762:4797  uint itemCount = _itemIds.current() */\n      swap1\n      pop\n        /* \"example.sol\":4973:4993  uint unsoldItemCount */\n      0x00\n        /* \"example.sol\":5017:5036  _itemSold.current() */\n      tag_45\n        /* \"example.sol\":5017:5026  _itemSold */\n      0x02\n        /* \"example.sol\":5017:5034  _itemSold.current */\n      tag_44\n        /* \"example.sol\":5017:5036  _itemSold.current() */\n      jump\t// in\n    tag_45:\n        /* \"example.sol\":4996:5014  _itemIds.current() */\n      tag_46\n        /* \"example.sol\":4996:5004  _itemIds */\n      0x01\n        /* \"example.sol\":4996:5012  _itemIds.current */\n      tag_44\n        /* \"example.sol\":4996:5014  _itemIds.current() */\n      jump\t// in\n    tag_46:\n        /* \"example.sol\":4996:5036  _itemIds.current() - _itemSold.current() */\n      tag_47\n      swap2\n      swap1\n      tag_48\n      jump\t// in\n    tag_47:\n        /* \"example.sol\":4973:5036  uint unsoldItemCount = _itemIds.current() - _itemSold.current() */\n      swap1\n      pop\n        /* \"example.sol\":5051:5068  uint currentIndex */\n      0x00\n        /* \"example.sol\":5149:5174  MarketItem[] memory items */\n      dup1\n        /* \"example.sol\":5194:5209  unsoldItemCount */\n      dup3\n        /* \"example.sol\":5177:5210  new MarketItem[](unsoldItemCount) */\n      0xffffffffffffffff\n      dup2\n      gt\n      iszero\n      tag_49\n      jumpi\n      tag_50\n      tag_51\n      jump\t// in\n    tag_50:\n    tag_49:\n      mload(0x40)\n      swap1\n      dup1\n      dup3\n      mstore\n      dup1\n      0x20\n      mul\n      0x20\n      add\n      dup3\n      add\n      0x40\n      mstore\n      dup1\n      iszero\n      tag_52\n      jumpi\n      dup2\n      0x20\n      add\n    tag_53:\n      tag_54\n      tag_55\n      jump\t// in\n    tag_54:\n      dup2\n      mstore\n      0x20\n      add\n      swap1\n      0x01\n      swap1\n      sub\n      swap1\n      dup2\n      tag_53\n      jumpi\n      swap1\n      pop\n    tag_52:\n      pop\n        /* \"example.sol\":5149:5210  MarketItem[] memory items = new MarketItem[](unsoldItemCount) */\n      swap1\n      pop\n        /* \"example.sol\":5283:5289  uint i */\n      0x00\n        /* \"example.sol\":5279:5823  for(uint i =0; i < itemCount; i++) {\r... */\n    tag_56:\n        /* \"example.sol\":5298:5307  itemCount */\n      dup5\n        /* \"example.sol\":5294:5295  i */\n      dup2\n        /* \"example.sol\":5294:5307  i < itemCount */\n      lt\n        /* \"example.sol\":5279:5823  for(uint i =0; i < itemCount; i++) {\r... */\n      iszero\n      tag_57\n      jumpi\n        /* \"example.sol\":5487:5488  0 */\n      0x00\n        /* \"example.sol\":5452:5489  idMarketItem[i+1].owner == address(0) */\n      0xffffffffffffffffffffffffffffffffffffffff\n      and\n        /* \"example.sol\":5452:5464  idMarketItem */\n      0x05\n        /* \"example.sol\":5452:5469  idMarketItem[i+1] */\n      0x00\n        /* \"example.sol\":5467:5468  1 */\n      0x01\n        /* \"example.sol\":5465:5466  i */\n      dup5\n        /* \"example.sol\":5465:5468  i+1 */\n      tag_59\n      swap2\n      swap1\n      tag_60\n      jump\t// in\n    tag_59:\n        /* \"example.sol\":5452:5469  idMarketItem[i+1] */\n      dup2\n      mstore\n      0x20\n      add\n      swap1\n      dup2\n      mstore\n      0x20\n      add\n      0x00\n      keccak256\n        /* \"example.sol\":5452:5475  idMarketItem[i+1].owner */\n      0x04\n      add\n      0x00\n      swap1\n      sload\n      swap1\n      0x0100\n      exp\n      swap1\n      div\n      0xffffffffffffffffffffffffffffffffffffffff\n      and\n        /* \"example.sol\":5452:5489  idMarketItem[i+1].owner == address(0) */\n      0xffffffffffffffffffffffffffffffffffffffff\n      and\n      eq\n        /* \"example.sol\":5449:5808  if(idMarketItem[i+1].owner == address(0)){\r... */\n      iszero\n      tag_61\n      jumpi\n        /* \"example.sol\":5572:5586  uint currentId */\n      0x00\n        /* \"example.sol\":5589:5601  idMarketItem */\n      0x05\n        /* \"example.sol\":5589:5606  idMarketItem[i+1] */\n      0x00\n        /* \"example.sol\":5604:5605  1 */\n      0x01\n        /* \"example.sol\":5602:5603  i */\n      dup5\n        /* \"example.sol\":5602:5605  i+1 */\n      tag_62\n      swap2\n      swap1\n      tag_60\n      jump\t// in\n    tag_62:\n        /* \"example.sol\":5589:5606  idMarketItem[i+1] */\n      dup2\n      mstore\n      0x20\n      add\n      swap1\n      dup2\n      mstore\n      0x20\n      add\n      0x00\n      keccak256\n        /* \"example.sol\":5589:5613  idMarketItem[i+1].itemId */\n      0x00\n      add\n      sload\n        /* \"example.sol\":5572:5613  uint currentId = idMarketItem[i+1].itemId */\n      swap1\n      pop\n        /* \"example.sol\":5636:5666  MarketItem storage currentItem */\n      0x00\n        /* \"example.sol\":5669:5681  idMarketItem */\n      0x05\n        /* \"example.sol\":5669:5692  idMarketItem[currentId] */\n      0x00\n        /* \"example.sol\":5682:5691  currentId */\n      dup4\n        /* \"example.sol\":5669:5692  idMarketItem[currentId] */\n      dup2\n      mstore\n      0x20\n      add\n      swap1\n      dup2\n      mstore\n      0x20\n      add\n      0x00\n      keccak256\n        /* \"example.sol\":5636:5692  MarketItem storage currentItem = idMarketItem[currentId] */\n      swap1\n      pop\n        /* \"example.sol\":5737:5748  currentItem */\n      dup1\n        /* \"example.sol\":5715:5748  items[currentIndex] = currentItem */\n      mload(0x40)\n      dup1\n      0xe0\n      add\n      0x40\n      mstore\n      swap1\n      dup2\n      0x00\n      dup3\n      add\n      sload\n      dup2\n      mstore\n      0x20\n      add\n      0x01\n      dup3\n      add\n      0x00\n      swap1\n      sload\n      swap1\n      0x0100\n      exp\n      swap1\n      div\n      0xffffffffffffffffffffffffffffffffffffffff\n      and\n      0xffffffffffffffffffffffffffffffffffffffff\n      and\n      0xffffffffffffffffffffffffffffffffffffffff\n      and\n      dup2\n      mstore\n      0x20\n      add\n      0x02\n      dup3\n      add\n      sload\n      dup2\n      mstore\n      0x20\n      add\n      0x03\n      dup3\n      add\n      0x00\n      swap1\n      sload\n      swap1\n      0x0100\n      exp\n      swap1\n      div\n      0xffffffffffffffffffffffffffffffffffffffff\n      and\n      0xffffffffffffffffffffffffffffffffffffffff\n      and\n      0xffffffffffffffffffffffffffffffffffffffff\n      and\n      dup2\n      mstore\n      0x20\n      add\n      0x04\n      dup3\n      add\n      0x00\n      swap1\n      sload\n      swap1\n      0x0100\n      exp\n      swap1\n      div\n      0xffffffffffffffffffffffffffffffffffffffff\n      and\n      0xffffffffffffffffffffffffffffffffffffffff\n      and\n      0xffffffffffffffffffffffffffffffffffffffff\n      and\n      dup2\n      mstore\n      0x20\n      add\n      0x05\n      dup3\n      add\n      sload\n      dup2\n      mstore\n      0x20\n      add\n      0x06\n      dup3\n      add\n      0x00\n      swap1\n      sload\n      swap1\n      0x0100\n      exp\n      swap1\n      div\n      0xff\n      and\n      iszero\n      iszero\n      iszero\n      iszero\n      dup2\n      mstore\n      pop\n      pop\n        /* \"example.sol\":5715:5720  items */\n      dup5\n        /* \"example.sol\":5721:5733  currentIndex */\n      dup7\n        /* \"example.sol\":5715:5734  items[currentIndex] */\n      dup2\n      mload\n      dup2\n      lt\n      tag_63\n      jumpi\n      tag_64\n      tag_65\n      jump\t// in\n    tag_64:\n    tag_63:\n      0x20\n      mul\n      0x20\n      add\n      add\n        /* \"example.sol\":5715:5748  items[currentIndex] = currentItem */\n      dup2\n      swap1\n      mstore\n      pop\n        /* \"example.sol\":5787:5788  1 */\n      0x01\n        /* \"example.sol\":5771:5788  currentIndex += 1 */\n      dup6\n      tag_66\n      swap2\n      swap1\n      tag_60\n      jump\t// in\n    tag_66:\n      swap5\n      pop\n        /* \"example.sol\":5490:5808  {\r... */\n      pop\n      pop\n        /* \"example.sol\":5449:5808  if(idMarketItem[i+1].owner == address(0)){\r... */\n    tag_61:\n        /* \"example.sol\":5309:5312  i++ */\n      dup1\n      dup1\n      tag_67\n      swap1\n      tag_68\n      jump\t// in\n    tag_67:\n      swap2\n      pop\n      pop\n        /* \"example.sol\":5279:5823  for(uint i =0; i < itemCount; i++) {\r... */\n      jump(tag_56)\n    tag_57:\n      pop\n        /* \"example.sol\":5844:5849  items */\n      dup1\n        /* \"example.sol\":5837:5849  return items */\n      swap5\n      pop\n      pop\n      pop\n      pop\n      pop\n        /* \"example.sol\":4678:5896  function fetchMarketItems() public view returns (MarketItem[] memory){\r... */\n      swap1\n      jump\t// out\n        /* \"example.sol\":1605:1700  function getListingPrice() public view returns (uint256) {\r... */\n    tag_17:\n        /* \"example.sol\":1653:1660  uint256 */\n      0x00\n        /* \"example.sol\":1680:1692  listingPrice */\n      sload(0x04)\n        /* \"example.sol\":1673:1692  return listingPrice */\n      swap1\n      pop\n        /* \"example.sol\":1605:1700  function getListingPrice() public view returns (uint256) {\r... */\n      swap1\n      jump\t// out\n        /* \"example.sol\":5968:7004  function fetchMyNFTs()public view returns (MarketItem[] memory) {\r... */\n    tag_22:\n        /* \"example.sol\":6011:6030  MarketItem[] memory */\n      0x60\n        /* \"example.sol\":6102:6121  uint totalItemCount */\n      0x00\n        /* \"example.sol\":6124:6142  _itemIds.current() */\n      tag_71\n        /* \"example.sol\":6124:6132  _itemIds */\n      0x01\n        /* \"example.sol\":6124:6140  _itemIds.current */\n      tag_44\n        /* \"example.sol\":6124:6142  _itemIds.current() */\n      jump\t// in\n    tag_71:\n        /* \"example.sol\":6102:6142  uint totalItemCount = _itemIds.current() */\n      swap1\n      pop\n        /* \"example.sol\":6159:6173  uint itemCount */\n      0x00\n        /* \"example.sol\":6192:6209  uint currentIndex */\n      dup1\n        /* \"example.sol\":6236:6242  uint i */\n      0x00\n        /* \"example.sol\":6231:6511  for (uint i=0; i< totalItemCount; i++){\r... */\n    tag_72:\n        /* \"example.sol\":6249:6263  totalItemCount */\n      dup4\n        /* \"example.sol\":6246:6247  i */\n      dup2\n        /* \"example.sol\":6246:6263  i< totalItemCount */\n      lt\n        /* \"example.sol\":6231:6511  for (uint i=0; i< totalItemCount; i++){\r... */\n      iszero\n      tag_73\n      jumpi\n        /* \"example.sol\":6398:6408  msg.sender */\n      caller\n        /* \"example.sol\":6371:6408  idMarketItem[i+1].owner == msg.sender */\n      0xffffffffffffffffffffffffffffffffffffffff\n      and\n        /* \"example.sol\":6371:6383  idMarketItem */\n      0x05\n        /* \"example.sol\":6371:6388  idMarketItem[i+1] */\n      0x00\n        /* \"example.sol\":6386:6387  1 */\n      0x01\n        /* \"example.sol\":6384:6385  i */\n      dup5\n        /* \"example.sol\":6384:6387  i+1 */\n      tag_75\n      swap2\n      swap1\n      tag_60\n      jump\t// in\n    tag_75:\n        /* \"example.sol\":6371:6388  idMarketItem[i+1] */\n      dup2\n      mstore\n      0x20\n      add\n      swap1\n      dup2\n      mstore\n      0x20\n      add\n      0x00\n      keccak256\n        /* \"example.sol\":6371:6394  idMarketItem[i+1].owner */\n      0x04\n      add\n      0x00\n      swap1\n      sload\n      swap1\n      0x0100\n      exp\n      swap1\n      div\n      0xffffffffffffffffffffffffffffffffffffffff\n      and\n        /* \"example.sol\":6371:6408  idMarketItem[i+1].owner == msg.sender */\n      0xffffffffffffffffffffffffffffffffffffffff\n      and\n      eq\n        /* \"example.sol\":6367:6496  if (idMarketItem[i+1].owner == msg.sender) {\r... */\n      iszero\n      tag_76\n      jumpi\n        /* \"example.sol\":6446:6447  1 */\n      0x01\n        /* \"example.sol\":6433:6447  itemCount += 1 */\n      dup4\n      tag_77\n      swap2\n      swap1\n      tag_60\n      jump\t// in\n    tag_77:\n      swap3\n      pop\n        /* \"example.sol\":6367:6496  if (idMarketItem[i+1].owner == msg.sender) {\r... */\n    tag_76:\n        /* \"example.sol\":6265:6268  i++ */\n      dup1\n      dup1\n      tag_78\n      swap1\n      tag_68\n      jump\t// in\n    tag_78:\n      swap2\n      pop\n      pop\n        /* \"example.sol\":6231:6511  for (uint i=0; i< totalItemCount; i++){\r... */\n      jump(tag_72)\n    tag_73:\n      pop\n        /* \"example.sol\":6529:6554  MarketItem[] memory items */\n      0x00\n        /* \"example.sol\":6574:6583  itemCount */\n      dup3\n        /* \"example.sol\":6557:6584  new MarketItem[](itemCount) */\n      0xffffffffffffffff\n      dup2\n      gt\n      iszero\n      tag_79\n      jumpi\n      tag_80\n      tag_51\n      jump\t// in\n    tag_80:\n    tag_79:\n      mload(0x40)\n      swap1\n      dup1\n      dup3\n      mstore\n      dup1\n      0x20\n      mul\n      0x20\n      add\n      dup3\n      add\n      0x40\n      mstore\n      dup1\n      iszero\n      tag_81\n      jumpi\n      dup2\n      0x20\n      add\n    tag_82:\n      tag_83\n      tag_55\n      jump\t// in\n    tag_83:\n      dup2\n      mstore\n      0x20\n      add\n      swap1\n      0x01\n      swap1\n      sub\n      swap1\n      dup2\n      tag_82\n      jumpi\n      swap1\n      pop\n    tag_81:\n      pop\n        /* \"example.sol\":6529:6584  MarketItem[] memory items = new MarketItem[](itemCount) */\n      swap1\n      pop\n        /* \"example.sol\":6603:6609  uint i */\n      0x00\n        /* \"example.sol\":6599:6968  for(uint i = 0; i < totalItemCount; i++){\r... */\n    tag_84:\n        /* \"example.sol\":6619:6633  totalItemCount */\n      dup5\n        /* \"example.sol\":6615:6616  i */\n      dup2\n        /* \"example.sol\":6615:6633  i < totalItemCount */\n      lt\n        /* \"example.sol\":6599:6968  for(uint i = 0; i < totalItemCount; i++){\r... */\n      iszero\n      tag_85\n      jumpi\n        /* \"example.sol\":6689:6699  msg.sender */\n      caller\n        /* \"example.sol\":6662:6699  idMarketItem[i+1].owner == msg.sender */\n      0xffffffffffffffffffffffffffffffffffffffff\n      and\n        /* \"example.sol\":6662:6674  idMarketItem */\n      0x05\n        /* \"example.sol\":6662:6679  idMarketItem[i+1] */\n      0x00\n        /* \"example.sol\":6677:6678  1 */\n      0x01\n        /* \"example.sol\":6675:6676  i */\n      dup5\n        /* \"example.sol\":6675:6678  i+1 */\n      tag_87\n      swap2\n      swap1\n      tag_60\n      jump\t// in\n    tag_87:\n        /* \"example.sol\":6662:6679  idMarketItem[i+1] */\n      dup2\n      mstore\n      0x20\n      add\n      swap1\n      dup2\n      mstore\n      0x20\n      add\n      0x00\n      keccak256\n        /* \"example.sol\":6662:6685  idMarketItem[i+1].owner */\n      0x04\n      add\n      0x00\n      swap1\n      sload\n      swap1\n      0x0100\n      exp\n      swap1\n      div\n      0xffffffffffffffffffffffffffffffffffffffff\n      and\n        /* \"example.sol\":6662:6699  idMarketItem[i+1].owner == msg.sender */\n      0xffffffffffffffffffffffffffffffffffffffff\n      and\n      eq\n        /* \"example.sol\":6658:6957  if (idMarketItem[i+1].owner == msg.sender){\r... */\n      iszero\n      tag_88\n      jumpi\n        /* \"example.sol\":6723:6737  uint currentId */\n      0x00\n        /* \"example.sol\":6740:6752  idMarketItem */\n      0x05\n        /* \"example.sol\":6740:6757  idMarketItem[i+1] */\n      0x00\n        /* \"example.sol\":6755:6756  1 */\n      0x01\n        /* \"example.sol\":6753:6754  i */\n      dup5\n        /* \"example.sol\":6753:6756  i+1 */\n      tag_89\n      swap2\n      swap1\n      tag_60\n      jump\t// in\n    tag_89:\n        /* \"example.sol\":6740:6757  idMarketItem[i+1] */\n      dup2\n      mstore\n      0x20\n      add\n      swap1\n      dup2\n      mstore\n      0x20\n      add\n      0x00\n      keccak256\n        /* \"example.sol\":6740:6764  idMarketItem[i+1].itemId */\n      0x00\n      add\n      sload\n        /* \"example.sol\":6723:6764  uint currentId = idMarketItem[i+1].itemId */\n      swap1\n      pop\n        /* \"example.sol\":6787:6817  MarketItem storage currentItem */\n      0x00\n        /* \"example.sol\":6820:6832  idMarketItem */\n      0x05\n        /* \"example.sol\":6820:6843  idMarketItem[currentId] */\n      0x00\n        /* \"example.sol\":6833:6842  currentId */\n      dup4\n        /* \"example.sol\":6820:6843  idMarketItem[currentId] */\n      dup2\n      mstore\n      0x20\n      add\n      swap1\n      dup2\n      mstore\n      0x20\n      add\n      0x00\n      keccak256\n        /* \"example.sol\":6787:6843  MarketItem storage currentItem = idMarketItem[currentId] */\n      swap1\n      pop\n        /* \"example.sol\":6888:6899  currentItem */\n      dup1\n        /* \"example.sol\":6866:6899  items[currentIndex] = currentItem */\n      mload(0x40)\n      dup1\n      0xe0\n      add\n      0x40\n      mstore\n      swap1\n      dup2\n      0x00\n      dup3\n      add\n      sload\n      dup2\n      mstore\n      0x20\n      add\n      0x01\n      dup3\n      add\n      0x00\n      swap1\n      sload\n      swap1\n      0x0100\n      exp\n      swap1\n      div\n      0xffffffffffffffffffffffffffffffffffffffff\n      and\n      0xffffffffffffffffffffffffffffffffffffffff\n      and\n      0xffffffffffffffffffffffffffffffffffffffff\n      and\n      dup2\n      mstore\n      0x20\n      add\n      0x02\n      dup3\n      add\n      sload\n      dup2\n      mstore\n      0x20\n      add\n      0x03\n      dup3\n      add\n      0x00\n      swap1\n      sload\n      swap1\n      0x0100\n      exp\n      swap1\n      div\n      0xffffffffffffffffffffffffffffffffffffffff\n      and\n      0xffffffffffffffffffffffffffffffffffffffff\n      and\n      0xffffffffffffffffffffffffffffffffffffffff\n      and\n      dup2\n      mstore\n      0x20\n      add\n      0x04\n      dup3\n      add\n      0x00\n      swap1\n      sload\n      swap1\n      0x0100\n      exp\n      swap1\n      div\n      0xffffffffffffffffffffffffffffffffffffffff\n      and\n      0xffffffffffffffffffffffffffffffffffffffff\n      and\n      0xffffffffffffffffffffffffffffffffffffffff\n      and\n      dup2\n      mstore\n      0x20\n      add\n      0x05\n      dup3\n      add\n      sload\n      dup2\n      mstore\n      0x20\n      add\n      0x06\n      dup3\n      add\n      0x00\n      swap1\n      sload\n      swap1\n      0x0100\n      exp\n      swap1\n      div\n      0xff\n      and\n      iszero\n      iszero\n      iszero\n      iszero\n      dup2\n      mstore\n      pop\n      pop\n        /* \"example.sol\":6866:6871  items */\n      dup5\n        /* \"example.sol\":6872:6884  currentIndex */\n      dup7\n        /* \"example.sol\":6866:6885  items[currentIndex] */\n      dup2\n      mload\n      dup2\n      lt\n      tag_90\n      jumpi\n      tag_91\n      tag_65\n      jump\t// in\n    tag_91:\n    tag_90:\n      0x20\n      mul\n      0x20\n      add\n      add\n        /* \"example.sol\":6866:6899  items[currentIndex] = currentItem */\n      dup2\n      swap1\n      mstore\n      pop\n        /* \"example.sol\":6938:6939  1 */\n      0x01\n        /* \"example.sol\":6922:6939  currentIndex += 1 */\n      dup6\n      tag_92\n      swap2\n      swap1\n      tag_60\n      jump\t// in\n    tag_92:\n      swap5\n      pop\n        /* \"example.sol\":6700:6957  {\r... */\n      pop\n      pop\n        /* \"example.sol\":6658:6957  if (idMarketItem[i+1].owner == msg.sender){\r... */\n    tag_88:\n        /* \"example.sol\":6635:6638  i++ */\n      dup1\n      dup1\n      tag_93\n      swap1\n      tag_68\n      jump\t// in\n    tag_93:\n      swap2\n      pop\n      pop\n        /* \"example.sol\":6599:6968  for(uint i = 0; i < totalItemCount; i++){\r... */\n      jump(tag_84)\n    tag_85:\n      pop\n        /* \"example.sol\":6985:6990  items */\n      dup1\n        /* \"example.sol\":6978:6990  return items */\n      swap5\n      pop\n      pop\n      pop\n      pop\n      pop\n        /* \"example.sol\":5968:7004  function fetchMyNFTs()public view returns (MarketItem[] memory) {\r... */\n      swap1\n      jump\t// out\n        /* \"example.sol\":1912:3498  function createMarketItem(\r... */\n    tag_27:\n        /* \"@openzeppelin/contracts/security/ReentrancyGuard.sol\":1744:1745  2 */\n      0x02\n        /* \"@openzeppelin/contracts/security/ReentrancyGuard.sol\":2325:2332  _status */\n      sload(0x00)\n        /* \"@openzeppelin/contracts/security/ReentrancyGuard.sol\":2325:2344  _status != _ENTERED */\n      eq\n      iszero\n        /* \"@openzeppelin/contracts/security/ReentrancyGuard.sol\":2317:2380  require(_status != _ENTERED, \"ReentrancyGuard: reentrant call\") */\n      tag_95\n      jumpi\n      mload(0x40)\n      0x08c379a000000000000000000000000000000000000000000000000000000000\n      dup2\n      mstore\n      0x04\n      add\n      tag_96\n      swap1\n      tag_97\n      jump\t// in\n    tag_96:\n      mload(0x40)\n      dup1\n      swap2\n      sub\n      swap1\n      revert\n    tag_95:\n        /* \"@openzeppelin/contracts/security/ReentrancyGuard.sol\":1744:1745  2 */\n      0x02\n        /* \"@openzeppelin/contracts/security/ReentrancyGuard.sol\":2455:2462  _status */\n      0x00\n        /* \"@openzeppelin/contracts/security/ReentrancyGuard.sol\":2455:2473  _status = _ENTERED */\n      dup2\n      swap1\n      sstore\n      pop\n        /* \"example.sol\":2076:2077  0 */\n      0x00\n        /* \"example.sol\":2068:2073  price */\n      dup2\n        /* \"example.sol\":2068:2077  price > 0 */\n      gt\n        /* \"example.sol\":2060:2106  require(price > 0, \"Price must be above zero\") */\n      tag_99\n      jumpi\n      mload(0x40)\n      0x08c379a000000000000000000000000000000000000000000000000000000000\n      dup2\n      mstore\n      0x04\n      add\n      tag_100\n      swap1\n      tag_101\n      jump\t// in\n    tag_100:\n      mload(0x40)\n      dup1\n      swap2\n      sub\n      swap1\n      revert\n    tag_99:\n        /* \"example.sol\":2138:2150  listingPrice */\n      sload(0x04)\n        /* \"example.sol\":2125:2134  msg.value */\n      callvalue\n        /* \"example.sol\":2125:2150  msg.value == listingPrice */\n      eq\n        /* \"example.sol\":2117:2191  require(msg.value == listingPrice, \"Price must be equal to listing price\") */\n      tag_102\n      jumpi\n      mload(0x40)\n      0x08c379a000000000000000000000000000000000000000000000000000000000\n      dup2\n      mstore\n      0x04\n      add\n      tag_103\n      swap1\n      tag_104\n      jump\t// in\n    tag_103:\n      mload(0x40)\n      dup1\n      swap2\n      sub\n      swap1\n      revert\n    tag_102:\n        /* \"example.sol\":2371:2391  _itemIds.increment() */\n      tag_105\n        /* \"example.sol\":2371:2379  _itemIds */\n      0x01\n        /* \"example.sol\":2371:2389  _itemIds.increment */\n      tag_106\n        /* \"example.sol\":2371:2391  _itemIds.increment() */\n      jump\t// in\n    tag_105:\n        /* \"example.sol\":2455:2469  uint256 itemId */\n      0x00\n        /* \"example.sol\":2472:2490  _itemIds.current() */\n      tag_107\n        /* \"example.sol\":2472:2480  _itemIds */\n      0x01\n        /* \"example.sol\":2472:2488  _itemIds.current */\n      tag_44\n        /* \"example.sol\":2472:2490  _itemIds.current() */\n      jump\t// in\n    tag_107:\n        /* \"example.sol\":2455:2490  uint256 itemId = _itemIds.current() */\n      swap1\n      pop\n        /* \"example.sol\":2751:2991  MarketItem(\r... */\n      mload(0x40)\n      dup1\n      0xe0\n      add\n      0x40\n      mstore\n      dup1\n        /* \"example.sol\":2777:2783  itemId */\n      dup3\n        /* \"example.sol\":2751:2991  MarketItem(\r... */\n      dup2\n      mstore\n      0x20\n      add\n        /* \"example.sol\":2799:2810  nftContract */\n      dup6\n        /* \"example.sol\":2751:2991  MarketItem(\r... */\n      0xffffffffffffffffffffffffffffffffffffffff\n      and\n      dup2\n      mstore\n      0x20\n      add\n        /* \"example.sol\":2826:2833  tokenId */\n      dup5\n        /* \"example.sol\":2751:2991  MarketItem(\r... */\n      dup2\n      mstore\n      0x20\n      add\n        /* \"example.sol\":2857:2867  msg.sender */\n      caller\n        /* \"example.sol\":2751:2991  MarketItem(\r... */\n      0xffffffffffffffffffffffffffffffffffffffff\n      and\n      dup2\n      mstore\n      0x20\n      add\n        /* \"example.sol\":2901:2902  0 */\n      0x00\n        /* \"example.sol\":2751:2991  MarketItem(\r... */\n      0xffffffffffffffffffffffffffffffffffffffff\n      and\n      dup2\n      mstore\n      0x20\n      add\n        /* \"example.sol\":2964:2969  price */\n      dup4\n        /* \"example.sol\":2751:2991  MarketItem(\r... */\n      dup2\n      mstore\n      0x20\n      add\n        /* \"example.sol\":2985:2990  false */\n      0x00\n        /* \"example.sol\":2751:2991  MarketItem(\r... */\n      iszero\n      iszero\n      dup2\n      mstore\n      pop\n        /* \"example.sol\":2728:2740  idMarketItem */\n      0x05\n        /* \"example.sol\":2728:2748  idMarketItem[itemId] */\n      0x00\n        /* \"example.sol\":2741:2747  itemId */\n      dup4\n        /* \"example.sol\":2728:2748  idMarketItem[itemId] */\n      dup2\n      mstore\n      0x20\n      add\n      swap1\n      dup2\n      mstore\n      0x20\n      add\n      0x00\n      keccak256\n        /* \"example.sol\":2728:2991  idMarketItem[itemId] = MarketItem(\r... */\n      0x00\n      dup3\n      add\n      mload\n      dup2\n      0x00\n      add\n      sstore\n      0x20\n      dup3\n      add\n      mload\n      dup2\n      0x01\n      add\n      exp(0x0100, 0x00)\n      dup2\n      sload\n      dup2\n      0xffffffffffffffffffffffffffffffffffffffff\n      mul\n      not\n      and\n      swap1\n      dup4\n      0xffffffffffffffffffffffffffffffffffffffff\n      and\n      mul\n      or\n      swap1\n      sstore\n      pop\n      0x40\n      dup3\n      add\n      mload\n      dup2\n      0x02\n      add\n      sstore\n      0x60\n      dup3\n      add\n      mload\n      dup2\n      0x03\n      add\n      exp(0x0100, 0x00)\n      dup2\n      sload\n      dup2\n      0xffffffffffffffffffffffffffffffffffffffff\n      mul\n      not\n      and\n      swap1\n      dup4\n      0xffffffffffffffffffffffffffffffffffffffff\n      and\n      mul\n      or\n      swap1\n      sstore\n      pop\n      0x80\n      dup3\n      add\n      mload\n      dup2\n      0x04\n      add\n      exp(0x0100, 0x00)\n      dup2\n      sload\n      dup2\n      0xffffffffffffffffffffffffffffffffffffffff\n      mul\n      not\n      and\n      swap1\n      dup4\n      0xffffffffffffffffffffffffffffffffffffffff\n      and\n      mul\n      or\n      swap1\n      sstore\n      pop\n      0xa0\n      dup3\n      add\n      mload\n      dup2\n      0x05\n      add\n      sstore\n      0xc0\n      dup3\n      add\n      mload\n      dup2\n      0x06\n      add\n      exp(0x0100, 0x00)\n      dup2\n      sload\n      dup2\n      0xff\n      mul\n      not\n      and\n      swap1\n      dup4\n      iszero\n      iszero\n      mul\n      or\n      swap1\n      sstore\n      pop\n      swap1\n      pop\n      pop\n        /* \"example.sol\":3112:3123  nftContract */\n      dup4\n        /* \"example.sol\":3104:3137  IERC721(nftContract).transferFrom */\n      0xffffffffffffffffffffffffffffffffffffffff\n      and\n      0x23b872dd\n        /* \"example.sol\":3138:3148  msg.sender */\n      caller\n        /* \"example.sol\":3158:3162  this */\n      address\n        /* \"example.sol\":3165:3172  tokenId */\n      dup7\n        /* \"example.sol\":3104:3173  IERC721(nftContract).transferFrom(msg.sender, address(this), tokenId) */\n      mload(0x40)\n      dup5\n      0xffffffff\n      and\n      0xe0\n      shl\n      dup2\n      mstore\n      0x04\n      add\n      tag_108\n      swap4\n      swap3\n      swap2\n      swap1\n      tag_109\n      jump\t// in\n    tag_108:\n      0x00\n      mload(0x40)\n      dup1\n      dup4\n      sub\n      dup2\n      0x00\n      dup8\n      dup1\n      extcodesize\n      iszero\n      dup1\n      iszero\n      tag_110\n      jumpi\n      0x00\n      dup1\n      revert\n    tag_110:\n      pop\n      gas\n      call\n      iszero\n      dup1\n      iszero\n      tag_112\n      jumpi\n      returndatasize\n      0x00\n      dup1\n      returndatacopy\n      revert(0x00, returndatasize)\n    tag_112:\n      pop\n      pop\n      pop\n      pop\n        /* \"example.sol\":3316:3323  tokenId */\n      dup3\n        /* \"example.sol\":3289:3300  nftContract */\n      dup5\n        /* \"example.sol\":3235:3486  MarketItemCreated(\r... */\n      0xffffffffffffffffffffffffffffffffffffffff\n      and\n        /* \"example.sol\":3267:3273  itemId */\n      dup3\n        /* \"example.sol\":3235:3486  MarketItemCreated(\r... */\n      0x045dfa01dcba2b36aba1d3dc4a874f4b0c5d2fbeb8d2c4b34a7d88c8d8f929d1\n        /* \"example.sol\":3347:3357  msg.sender */\n      caller\n        /* \"example.sol\":3390:3391  0 */\n      0x00\n        /* \"example.sol\":3460:3465  price */\n      dup8\n        /* \"example.sol\":3480:3485  false */\n      0x00\n        /* \"example.sol\":3235:3486  MarketItemCreated(\r... */\n      mload(0x40)\n      tag_113\n      swap5\n      swap4\n      swap3\n      swap2\n      swap1\n      tag_114\n      jump\t// in\n    tag_113:\n      mload(0x40)\n      dup1\n      swap2\n      sub\n      swap1\n      log4\n        /* \"example.sol\":2049:3498  {\r... */\n      pop\n        /* \"@openzeppelin/contracts/security/ReentrancyGuard.sol\":1701:1702  1 */\n      0x01\n        /* \"@openzeppelin/contracts/security/ReentrancyGuard.sol\":2628:2635  _status */\n      0x00\n        /* \"@openzeppelin/contracts/security/ReentrancyGuard.sol\":2628:2650  _status = _NOT_ENTERED */\n      dup2\n      swap1\n      sstore\n      pop\n        /* \"example.sol\":1912:3498  function createMarketItem(\r... */\n      pop\n      pop\n      pop\n      jump\t// out\n        /* \"example.sol\":1710:1843  function setListingPrice(uint _price) public returns (uint256) {\r... */\n    tag_32:\n        /* \"example.sol\":1764:1771  uint256 */\n      0x00\n        /* \"example.sol\":1799:1805  _price */\n      dup2\n        /* \"example.sol\":1784:1796  listingPrice */\n      0x04\n        /* \"example.sol\":1784:1805  listingPrice = _price */\n      dup2\n      swap1\n      sstore\n      pop\n        /* \"example.sol\":1823:1835  listingPrice */\n      sload(0x04)\n        /* \"example.sol\":1816:1835  return listingPrice */\n      swap1\n      pop\n        /* \"example.sol\":1710:1843  function setListingPrice(uint _price) public returns (uint256) {\r... */\n      swap2\n      swap1\n      pop\n      jump\t// out\n        /* \"example.sol\":3559:4586  function createMarketSale(\r... */\n    tag_37:\n        /* \"@openzeppelin/contracts/security/ReentrancyGuard.sol\":1744:1745  2 */\n      0x02\n        /* \"@openzeppelin/contracts/security/ReentrancyGuard.sol\":2325:2332  _status */\n      sload(0x00)\n        /* \"@openzeppelin/contracts/security/ReentrancyGuard.sol\":2325:2344  _status != _ENTERED */\n      eq\n      iszero\n        /* \"@openzeppelin/contracts/security/ReentrancyGuard.sol\":2317:2380  require(_status != _ENTERED, \"ReentrancyGuard: reentrant call\") */\n      tag_117\n      jumpi\n      mload(0x40)\n      0x08c379a000000000000000000000000000000000000000000000000000000000\n      dup2\n      mstore\n      0x04\n      add\n      tag_118\n      swap1\n      tag_97\n      jump\t// in\n    tag_118:\n      mload(0x40)\n      dup1\n      swap2\n      sub\n      swap1\n      revert\n    tag_117:\n        /* \"@openzeppelin/contracts/security/ReentrancyGuard.sol\":1744:1745  2 */\n      0x02\n        /* \"@openzeppelin/contracts/security/ReentrancyGuard.sol\":2455:2462  _status */\n      0x00\n        /* \"@openzeppelin/contracts/security/ReentrancyGuard.sol\":2455:2473  _status = _ENTERED */\n      dup2\n      swap1\n      sstore\n      pop\n        /* \"example.sol\":3696:3706  uint price */\n      0x00\n        /* \"example.sol\":3709:3721  idMarketItem */\n      0x05\n        /* \"example.sol\":3709:3729  idMarketItem[itemId] */\n      0x00\n        /* \"example.sol\":3722:3728  itemId */\n      dup4\n        /* \"example.sol\":3709:3729  idMarketItem[itemId] */\n      dup2\n      mstore\n      0x20\n      add\n      swap1\n      dup2\n      mstore\n      0x20\n      add\n      0x00\n      keccak256\n        /* \"example.sol\":3709:3735  idMarketItem[itemId].price */\n      0x05\n      add\n      sload\n        /* \"example.sol\":3696:3735  uint price = idMarketItem[itemId].price */\n      swap1\n      pop\n        /* \"example.sol\":3754:3766  uint tokenId */\n      0x00\n        /* \"example.sol\":3769:3781  idMarketItem */\n      0x05\n        /* \"example.sol\":3769:3789  idMarketItem[itemId] */\n      0x00\n        /* \"example.sol\":3782:3788  itemId */\n      dup5\n        /* \"example.sol\":3769:3789  idMarketItem[itemId] */\n      dup2\n      mstore\n      0x20\n      add\n      swap1\n      dup2\n      mstore\n      0x20\n      add\n      0x00\n      keccak256\n        /* \"example.sol\":3769:3797  idMarketItem[itemId].tokenId */\n      0x02\n      add\n      sload\n        /* \"example.sol\":3754:3797  uint tokenId = idMarketItem[itemId].tokenId */\n      swap1\n      pop\n        /* \"example.sol\":3839:3844  price */\n      dup2\n        /* \"example.sol\":3826:3835  msg.value */\n      callvalue\n        /* \"example.sol\":3826:3844  msg.value == price */\n      eq\n        /* \"example.sol\":3818:3913  require(msg.value == price, \"Please submit the asking price in order to complete the purchase\") */\n      tag_120\n      jumpi\n      mload(0x40)\n      0x08c379a000000000000000000000000000000000000000000000000000000000\n      dup2\n      mstore\n      0x04\n      add\n      tag_121\n      swap1\n      tag_122\n      jump\t// in\n    tag_121:\n      mload(0x40)\n      dup1\n      swap2\n      sub\n      swap1\n      revert\n    tag_120:\n        /* \"example.sol\":3979:3991  idMarketItem */\n      0x05\n        /* \"example.sol\":3979:3999  idMarketItem[itemId] */\n      0x00\n        /* \"example.sol\":3992:3998  itemId */\n      dup5\n        /* \"example.sol\":3979:3999  idMarketItem[itemId] */\n      dup2\n      mstore\n      0x20\n      add\n      swap1\n      dup2\n      mstore\n      0x20\n      add\n      0x00\n      keccak256\n        /* \"example.sol\":3979:4006  idMarketItem[itemId].seller */\n      0x03\n      add\n      0x00\n      swap1\n      sload\n      swap1\n      0x0100\n      exp\n      swap1\n      div\n      0xffffffffffffffffffffffffffffffffffffffff\n      and\n        /* \"example.sol\":3979:4015  idMarketItem[itemId].seller.transfer */\n      0xffffffffffffffffffffffffffffffffffffffff\n      and\n        /* \"example.sol\":3979:4026  idMarketItem[itemId].seller.transfer(msg.value) */\n      0x08fc\n        /* \"example.sol\":4016:4025  msg.value */\n      callvalue\n        /* \"example.sol\":3979:4026  idMarketItem[itemId].seller.transfer(msg.value) */\n      swap1\n      dup2\n      iszero\n      mul\n      swap1\n      mload(0x40)\n      0x00\n      mload(0x40)\n      dup1\n      dup4\n      sub\n      dup2\n      dup6\n      dup9\n      dup9\n      call\n      swap4\n      pop\n      pop\n      pop\n      pop\n      iszero\n      dup1\n      iszero\n      tag_124\n      jumpi\n      returndatasize\n      0x00\n      dup1\n      returndatacopy\n      revert(0x00, returndatasize)\n    tag_124:\n      pop\n        /* \"example.sol\":4136:4147  nftContract */\n      dup4\n        /* \"example.sol\":4128:4161  IERC721(nftContract).transferFrom */\n      0xffffffffffffffffffffffffffffffffffffffff\n      and\n      0x23b872dd\n        /* \"example.sol\":4170:4174  this */\n      address\n        /* \"example.sol\":4177:4187  msg.sender */\n      caller\n        /* \"example.sol\":4189:4196  tokenId */\n      dup5\n        /* \"example.sol\":4128:4197  IERC721(nftContract).transferFrom(address(this), msg.sender, tokenId) */\n      mload(0x40)\n      dup5\n      0xffffffff\n      and\n      0xe0\n      shl\n      dup2\n      mstore\n      0x04\n      add\n      tag_125\n      swap4\n      swap3\n      swap2\n      swap1\n      tag_109\n      jump\t// in\n    tag_125:\n      0x00\n      mload(0x40)\n      dup1\n      dup4\n      sub\n      dup2\n      0x00\n      dup8\n      dup1\n      extcodesize\n      iszero\n      dup1\n      iszero\n      tag_126\n      jumpi\n      0x00\n      dup1\n      revert\n    tag_126:\n      pop\n      gas\n      call\n      iszero\n      dup1\n      iszero\n      tag_128\n      jumpi\n      returndatasize\n      0x00\n      dup1\n      returndatacopy\n      revert(0x00, returndatasize)\n    tag_128:\n      pop\n      pop\n      pop\n      pop\n        /* \"example.sol\":4255:4265  msg.sender */\n      caller\n        /* \"example.sol\":4218:4230  idMarketItem */\n      0x05\n        /* \"example.sol\":4218:4238  idMarketItem[itemId] */\n      0x00\n        /* \"example.sol\":4231:4237  itemId */\n      dup6\n        /* \"example.sol\":4218:4238  idMarketItem[itemId] */\n      dup2\n      mstore\n      0x20\n      add\n      swap1\n      dup2\n      mstore\n      0x20\n      add\n      0x00\n      keccak256\n        /* \"example.sol\":4218:4244  idMarketItem[itemId].owner */\n      0x04\n      add\n      0x00\n        /* \"example.sol\":4218:4266  idMarketItem[itemId].owner = payable(msg.sender) */\n      0x0100\n      exp\n      dup2\n      sload\n      dup2\n      0xffffffffffffffffffffffffffffffffffffffff\n      mul\n      not\n      and\n      swap1\n      dup4\n      0xffffffffffffffffffffffffffffffffffffffff\n      and\n      mul\n      or\n      swap1\n      sstore\n      pop\n        /* \"example.sol\":4344:4348  true */\n      0x01\n        /* \"example.sol\":4316:4328  idMarketItem */\n      0x05\n        /* \"example.sol\":4316:4336  idMarketItem[itemId] */\n      0x00\n        /* \"example.sol\":4329:4335  itemId */\n      dup6\n        /* \"example.sol\":4316:4336  idMarketItem[itemId] */\n      dup2\n      mstore\n      0x20\n      add\n      swap1\n      dup2\n      mstore\n      0x20\n      add\n      0x00\n      keccak256\n        /* \"example.sol\":4316:4341  idMarketItem[itemId].sold */\n      0x06\n      add\n      0x00\n        /* \"example.sol\":4316:4348  idMarketItem[itemId].sold = true */\n      0x0100\n      exp\n      dup2\n      sload\n      dup2\n      0xff\n      mul\n      not\n      and\n      swap1\n      dup4\n      iszero\n      iszero\n      mul\n      or\n      swap1\n      sstore\n      pop\n        /* \"example.sol\":4397:4418  _itemSold.increment() */\n      tag_129\n        /* \"example.sol\":4397:4406  _itemSold */\n      0x02\n        /* \"example.sol\":4397:4416  _itemSold.increment */\n      tag_106\n        /* \"example.sol\":4397:4418  _itemSold.increment() */\n      jump\t// in\n    tag_129:\n        /* \"example.sol\":4494:4499  owner */\n      0x03\n      0x00\n      swap1\n      sload\n      swap1\n      0x0100\n      exp\n      swap1\n      div\n      0xffffffffffffffffffffffffffffffffffffffff\n      and\n        /* \"example.sol\":4485:4509  payable (owner).transfer */\n      0xffffffffffffffffffffffffffffffffffffffff\n      and\n        /* \"example.sol\":4485:4523  payable (owner).transfer(listingPrice) */\n      0x08fc\n        /* \"example.sol\":4510:4522  listingPrice */\n      sload(0x04)\n        /* \"example.sol\":4485:4523  payable (owner).transfer(listingPrice) */\n      swap1\n      dup2\n      iszero\n      mul\n      swap1\n      mload(0x40)\n      0x00\n      mload(0x40)\n      dup1\n      dup4\n      sub\n      dup2\n      dup6\n      dup9\n      dup9\n      call\n      swap4\n      pop\n      pop\n      pop\n      pop\n      iszero\n      dup1\n      iszero\n      tag_131\n      jumpi\n      returndatasize\n      0x00\n      dup1\n      returndatacopy\n      revert(0x00, returndatasize)\n    tag_131:\n      pop\n        /* \"example.sol\":3677:4586  {\r... */\n      pop\n      pop\n        /* \"@openzeppelin/contracts/security/ReentrancyGuard.sol\":1701:1702  1 */\n      0x01\n        /* \"@openzeppelin/contracts/security/ReentrancyGuard.sol\":2628:2635  _status */\n      0x00\n        /* \"@openzeppelin/contracts/security/ReentrancyGuard.sol\":2628:2650  _status = _NOT_ENTERED */\n      dup2\n      swap1\n      sstore\n      pop\n        /* \"example.sol\":3559:4586  function createMarketSale(\r... */\n      pop\n      pop\n      jump\t// out\n        /* \"example.sol\":7082:8125  function fetchItemsCreated() public view returns (MarketItem[] memory) {\r... */\n    tag_40:\n        /* \"example.sol\":7132:7151  MarketItem[] memory */\n      0x60\n        /* \"example.sol\":7223:7242  uint totalItemCount */\n      0x00\n        /* \"example.sol\":7245:7263  _itemIds.current() */\n      tag_133\n        /* \"example.sol\":7245:7253  _itemIds */\n      0x01\n        /* \"example.sol\":7245:7261  _itemIds.current */\n      tag_44\n        /* \"example.sol\":7245:7263  _itemIds.current() */\n      jump\t// in\n    tag_133:\n        /* \"example.sol\":7223:7263  uint totalItemCount = _itemIds.current() */\n      swap1\n      pop\n        /* \"example.sol\":7280:7294  uint itemCount */\n      0x00\n        /* \"example.sol\":7313:7330  uint currentIndex */\n      dup1\n        /* \"example.sol\":7357:7363  uint i */\n      0x00\n        /* \"example.sol\":7352:7635  for (uint i=0; i< totalItemCount; i++){\r... */\n    tag_134:\n        /* \"example.sol\":7370:7384  totalItemCount */\n      dup4\n        /* \"example.sol\":7367:7368  i */\n      dup2\n        /* \"example.sol\":7367:7384  i< totalItemCount */\n      lt\n        /* \"example.sol\":7352:7635  for (uint i=0; i< totalItemCount; i++){\r... */\n      iszero\n      tag_135\n      jumpi\n        /* \"example.sol\":7520:7530  msg.sender */\n      caller\n        /* \"example.sol\":7492:7530  idMarketItem[i+1].seller == msg.sender */\n      0xffffffffffffffffffffffffffffffffffffffff\n      and\n        /* \"example.sol\":7492:7504  idMarketItem */\n      0x05\n        /* \"example.sol\":7492:7509  idMarketItem[i+1] */\n      0x00\n        /* \"example.sol\":7507:7508  1 */\n      0x01\n        /* \"example.sol\":7505:7506  i */\n      dup5\n        /* \"example.sol\":7505:7508  i+1 */\n      tag_137\n      swap2\n      swap1\n      tag_60\n      jump\t// in\n    tag_137:\n        /* \"example.sol\":7492:7509  idMarketItem[i+1] */\n      dup2\n      mstore\n      0x20\n      add\n      swap1\n      dup2\n      mstore\n      0x20\n      add\n      0x00\n      keccak256\n        /* \"example.sol\":7492:7516  idMarketItem[i+1].seller */\n      0x03\n      add\n      0x00\n      swap1\n      sload\n      swap1\n      0x0100\n      exp\n      swap1\n      div\n      0xffffffffffffffffffffffffffffffffffffffff\n      and\n        /* \"example.sol\":7492:7530  idMarketItem[i+1].seller == msg.sender */\n      0xffffffffffffffffffffffffffffffffffffffff\n      and\n      eq\n        /* \"example.sol\":7488:7618  if (idMarketItem[i+1].seller == msg.sender) {\r... */\n      iszero\n      tag_138\n      jumpi\n        /* \"example.sol\":7568:7569  1 */\n      0x01\n        /* \"example.sol\":7555:7569  itemCount += 1 */\n      dup4\n      tag_139\n      swap2\n      swap1\n      tag_60\n      jump\t// in\n    tag_139:\n      swap3\n      pop\n        /* \"example.sol\":7488:7618  if (idMarketItem[i+1].seller == msg.sender) {\r... */\n    tag_138:\n        /* \"example.sol\":7386:7389  i++ */\n      dup1\n      dup1\n      tag_140\n      swap1\n      tag_68\n      jump\t// in\n    tag_140:\n      swap2\n      pop\n      pop\n        /* \"example.sol\":7352:7635  for (uint i=0; i< totalItemCount; i++){\r... */\n      jump(tag_134)\n    tag_135:\n      pop\n        /* \"example.sol\":7649:7674  MarketItem[] memory items */\n      0x00\n        /* \"example.sol\":7694:7703  itemCount */\n      dup3\n        /* \"example.sol\":7677:7704  new MarketItem[](itemCount) */\n      0xffffffffffffffff\n      dup2\n      gt\n      iszero\n      tag_141\n      jumpi\n      tag_142\n      tag_51\n      jump\t// in\n    tag_142:\n    tag_141:\n      mload(0x40)\n      swap1\n      dup1\n      dup3\n      mstore\n      dup1\n      0x20\n      mul\n      0x20\n      add\n      dup3\n      add\n      0x40\n      mstore\n      dup1\n      iszero\n      tag_143\n      jumpi\n      dup2\n      0x20\n      add\n    tag_144:\n      tag_145\n      tag_55\n      jump\t// in\n    tag_145:\n      dup2\n      mstore\n      0x20\n      add\n      swap1\n      0x01\n      swap1\n      sub\n      swap1\n      dup2\n      tag_144\n      jumpi\n      swap1\n      pop\n    tag_143:\n      pop\n        /* \"example.sol\":7649:7704  MarketItem[] memory items = new MarketItem[](itemCount) */\n      swap1\n      pop\n        /* \"example.sol\":7723:7729  uint i */\n      0x00\n        /* \"example.sol\":7719:8089  for(uint i = 0; i < totalItemCount; i++){\r... */\n    tag_146:\n        /* \"example.sol\":7739:7753  totalItemCount */\n      dup5\n        /* \"example.sol\":7735:7736  i */\n      dup2\n        /* \"example.sol\":7735:7753  i < totalItemCount */\n      lt\n        /* \"example.sol\":7719:8089  for(uint i = 0; i < totalItemCount; i++){\r... */\n      iszero\n      tag_147\n      jumpi\n        /* \"example.sol\":7810:7820  msg.sender */\n      caller\n        /* \"example.sol\":7782:7820  idMarketItem[i+1].seller == msg.sender */\n      0xffffffffffffffffffffffffffffffffffffffff\n      and\n        /* \"example.sol\":7782:7794  idMarketItem */\n      0x05\n        /* \"example.sol\":7782:7799  idMarketItem[i+1] */\n      0x00\n        /* \"example.sol\":7797:7798  1 */\n      0x01\n        /* \"example.sol\":7795:7796  i */\n      dup5\n        /* \"example.sol\":7795:7798  i+1 */\n      tag_149\n      swap2\n      swap1\n      tag_60\n      jump\t// in\n    tag_149:\n        /* \"example.sol\":7782:7799  idMarketItem[i+1] */\n      dup2\n      mstore\n      0x20\n      add\n      swap1\n      dup2\n      mstore\n      0x20\n      add\n      0x00\n      keccak256\n        /* \"example.sol\":7782:7806  idMarketItem[i+1].seller */\n      0x03\n      add\n      0x00\n      swap1\n      sload\n      swap1\n      0x0100\n      exp\n      swap1\n      div\n      0xffffffffffffffffffffffffffffffffffffffff\n      and\n        /* \"example.sol\":7782:7820  idMarketItem[i+1].seller == msg.sender */\n      0xffffffffffffffffffffffffffffffffffffffff\n      and\n      eq\n        /* \"example.sol\":7778:8078  if (idMarketItem[i+1].seller == msg.sender){\r... */\n      iszero\n      tag_150\n      jumpi\n        /* \"example.sol\":7844:7858  uint currentId */\n      0x00\n        /* \"example.sol\":7861:7873  idMarketItem */\n      0x05\n        /* \"example.sol\":7861:7878  idMarketItem[i+1] */\n      0x00\n        /* \"example.sol\":7876:7877  1 */\n      0x01\n        /* \"example.sol\":7874:7875  i */\n      dup5\n        /* \"example.sol\":7874:7877  i+1 */\n      tag_151\n      swap2\n      swap1\n      tag_60\n      jump\t// in\n    tag_151:\n        /* \"example.sol\":7861:7878  idMarketItem[i+1] */\n      dup2\n      mstore\n      0x20\n      add\n      swap1\n      dup2\n      mstore\n      0x20\n      add\n      0x00\n      keccak256\n        /* \"example.sol\":7861:7885  idMarketItem[i+1].itemId */\n      0x00\n      add\n      sload\n        /* \"example.sol\":7844:7885  uint currentId = idMarketItem[i+1].itemId */\n      swap1\n      pop\n        /* \"example.sol\":7908:7938  MarketItem storage currentItem */\n      0x00\n        /* \"example.sol\":7941:7953  idMarketItem */\n      0x05\n        /* \"example.sol\":7941:7964  idMarketItem[currentId] */\n      0x00\n        /* \"example.sol\":7954:7963  currentId */\n      dup4\n        /* \"example.sol\":7941:7964  idMarketItem[currentId] */\n      dup2\n      mstore\n      0x20\n      add\n      swap1\n      dup2\n      mstore\n      0x20\n      add\n      0x00\n      keccak256\n        /* \"example.sol\":7908:7964  MarketItem storage currentItem = idMarketItem[currentId] */\n      swap1\n      pop\n        /* \"example.sol\":8009:8020  currentItem */\n      dup1\n        /* \"example.sol\":7987:8020  items[currentIndex] = currentItem */\n      mload(0x40)\n      dup1\n      0xe0\n      add\n      0x40\n      mstore\n      swap1\n      dup2\n      0x00\n      dup3\n      add\n      sload\n      dup2\n      mstore\n      0x20\n      add\n      0x01\n      dup3\n      add\n      0x00\n      swap1\n      sload\n      swap1\n      0x0100\n      exp\n      swap1\n      div\n      0xffffffffffffffffffffffffffffffffffffffff\n      and\n      0xffffffffffffffffffffffffffffffffffffffff\n      and\n      0xffffffffffffffffffffffffffffffffffffffff\n      and\n      dup2\n      mstore\n      0x20\n      add\n      0x02\n      dup3\n      add\n      sload\n      dup2\n      mstore\n      0x20\n      add\n      0x03\n      dup3\n      add\n      0x00\n      swap1\n      sload\n      swap1\n      0x0100\n      exp\n      swap1\n      div\n      0xffffffffffffffffffffffffffffffffffffffff\n      and\n      0xffffffffffffffffffffffffffffffffffffffff\n      and\n      0xffffffffffffffffffffffffffffffffffffffff\n      and\n      dup2\n      mstore\n      0x20\n      add\n      0x04\n      dup3\n      add\n      0x00\n      swap1\n      sload\n      swap1\n      0x0100\n      exp\n      swap1\n      div\n      0xffffffffffffffffffffffffffffffffffffffff\n      and\n      0xffffffffffffffffffffffffffffffffffffffff\n      and\n      0xffffffffffffffffffffffffffffffffffffffff\n      and\n      dup2\n      mstore\n      0x20\n      add\n      0x05\n      dup3\n      add\n      sload\n      dup2\n      mstore\n      0x20\n      add\n      0x06\n      dup3\n      add\n      0x00\n      swap1\n      sload\n      swap1\n      0x0100\n      exp\n      swap1\n      div\n      0xff\n      and\n      iszero\n      iszero\n      iszero\n      iszero\n      dup2\n      mstore\n      pop\n      pop\n        /* \"example.sol\":7987:7992  items */\n      dup5\n        /* \"example.sol\":7993:8005  currentIndex */\n      dup7\n        /* \"example.sol\":7987:8006  items[currentIndex] */\n      dup2\n      mload\n      dup2\n      lt\n      tag_152\n      jumpi\n      tag_153\n      tag_65\n      jump\t// in\n    tag_153:\n    tag_152:\n      0x20\n      mul\n      0x20\n      add\n      add\n        /* \"example.sol\":7987:8020  items[currentIndex] = currentItem */\n      dup2\n      swap1\n      mstore\n      pop\n        /* \"example.sol\":8059:8060  1 */\n      0x01\n        /* \"example.sol\":8043:8060  currentIndex += 1 */\n      dup6\n      tag_154\n      swap2\n      swap1\n      tag_60\n      jump\t// in\n    tag_154:\n      swap5\n      pop\n        /* \"example.sol\":7821:8078  {\r... */\n      pop\n      pop\n        /* \"example.sol\":7778:8078  if (idMarketItem[i+1].seller == msg.sender){\r... */\n    tag_150:\n        /* \"example.sol\":7755:7758  i++ */\n      dup1\n      dup1\n      tag_155\n      swap1\n      tag_68\n      jump\t// in\n    tag_155:\n      swap2\n      pop\n      pop\n        /* \"example.sol\":7719:8089  for(uint i = 0; i < totalItemCount; i++){\r... */\n      jump(tag_146)\n    tag_147:\n      pop\n        /* \"example.sol\":8106:8111  items */\n      dup1\n        /* \"example.sol\":8099:8111  return items */\n      swap5\n      pop\n      pop\n      pop\n      pop\n      pop\n        /* \"example.sol\":7082:8125  function fetchItemsCreated() public view returns (MarketItem[] memory) {\r... */\n      swap1\n      jump\t// out\n        /* \"@openzeppelin/contracts/utils/Counters.sol\":827:939  function current(Counter storage counter) internal view returns (uint256) {... */\n    tag_44:\n        /* \"@openzeppelin/contracts/utils/Counters.sol\":892:899  uint256 */\n      0x00\n        /* \"@openzeppelin/contracts/utils/Counters.sol\":918:925  counter */\n      dup2\n        /* \"@openzeppelin/contracts/utils/Counters.sol\":918:932  counter._value */\n      0x00\n      add\n      sload\n        /* \"@openzeppelin/contracts/utils/Counters.sol\":911:932  return counter._value */\n      swap1\n      pop\n        /* \"@openzeppelin/contracts/utils/Counters.sol\":827:939  function current(Counter storage counter) internal view returns (uint256) {... */\n      swap2\n      swap1\n      pop\n      jump\t// out\n        /* \"@openzeppelin/contracts/utils/Counters.sol\":945:1068  function increment(Counter storage counter) internal {... */\n    tag_106:\n        /* \"@openzeppelin/contracts/utils/Counters.sol\":1050:1051  1 */\n      0x01\n        /* \"@openzeppelin/contracts/utils/Counters.sol\":1032:1039  counter */\n      dup2\n        /* \"@openzeppelin/contracts/utils/Counters.sol\":1032:1046  counter._value */\n      0x00\n      add\n      0x00\n        /* \"@openzeppelin/contracts/utils/Counters.sol\":1032:1051  counter._value += 1 */\n      dup3\n      dup3\n      sload\n      add\n      swap3\n      pop\n      pop\n      dup2\n      swap1\n      sstore\n      pop\n        /* \"@openzeppelin/contracts/utils/Counters.sol\":945:1068  function increment(Counter storage counter) internal {... */\n      pop\n      jump\t// out\n    tag_55:\n      mload(0x40)\n      dup1\n      0xe0\n      add\n      0x40\n      mstore\n      dup1\n      0x00\n      dup2\n      mstore\n      0x20\n      add\n      and(0xffffffffffffffffffffffffffffffffffffffff, 0x00)\n      dup2\n      mstore\n      0x20\n      add\n      0x00\n      dup2\n      mstore\n      0x20\n      add\n      and(0xffffffffffffffffffffffffffffffffffffffff, 0x00)\n      dup2\n      mstore\n      0x20\n      add\n      and(0xffffffffffffffffffffffffffffffffffffffff, 0x00)\n      dup2\n      mstore\n      0x20\n      add\n      0x00\n      dup2\n      mstore\n      0x20\n      add\n      iszero(iszero(0x00))\n      dup2\n      mstore\n      pop\n      swap1\n      jump\t// out\n        /* \"#utility.yul\":7:146   */\n    tag_159:\n        /* \"#utility.yul\":53:58   */\n      0x00\n        /* \"#utility.yul\":91:97   */\n      dup2\n        /* \"#utility.yul\":78:98   */\n      calldataload\n        /* \"#utility.yul\":69:98   */\n      swap1\n      pop\n        /* \"#utility.yul\":107:140   */\n      tag_161\n        /* \"#utility.yul\":134:139   */\n      dup2\n        /* \"#utility.yul\":107:140   */\n      tag_162\n      jump\t// in\n    tag_161:\n        /* \"#utility.yul\":7:146   */\n      swap3\n      swap2\n      pop\n      pop\n      jump\t// out\n        /* \"#utility.yul\":152:291   */\n    tag_163:\n        /* \"#utility.yul\":198:203   */\n      0x00\n        /* \"#utility.yul\":236:242   */\n      dup2\n        /* \"#utility.yul\":223:243   */\n      calldataload\n        /* \"#utility.yul\":214:243   */\n      swap1\n      pop\n        /* \"#utility.yul\":252:285   */\n      tag_165\n        /* \"#utility.yul\":279:284   */\n      dup2\n        /* \"#utility.yul\":252:285   */\n      tag_166\n      jump\t// in\n    tag_165:\n        /* \"#utility.yul\":152:291   */\n      swap3\n      swap2\n      pop\n      pop\n      jump\t// out\n        /* \"#utility.yul\":297:771   */\n    tag_36:\n        /* \"#utility.yul\":365:371   */\n      0x00\n        /* \"#utility.yul\":373:379   */\n      dup1\n        /* \"#utility.yul\":422:424   */\n      0x40\n        /* \"#utility.yul\":410:419   */\n      dup4\n        /* \"#utility.yul\":401:408   */\n      dup6\n        /* \"#utility.yul\":397:420   */\n      sub\n        /* \"#utility.yul\":393:425   */\n      slt\n        /* \"#utility.yul\":390:509   */\n      iszero\n      tag_168\n      jumpi\n        /* \"#utility.yul\":428:507   */\n      tag_169\n      tag_170\n      jump\t// in\n    tag_169:\n        /* \"#utility.yul\":390:509   */\n    tag_168:\n        /* \"#utility.yul\":548:549   */\n      0x00\n        /* \"#utility.yul\":573:626   */\n      tag_171\n        /* \"#utility.yul\":618:625   */\n      dup6\n        /* \"#utility.yul\":609:615   */\n      dup3\n        /* \"#utility.yul\":598:607   */\n      dup7\n        /* \"#utility.yul\":594:616   */\n      add\n        /* \"#utility.yul\":573:626   */\n      tag_159\n      jump\t// in\n    tag_171:\n        /* \"#utility.yul\":563:626   */\n      swap3\n      pop\n        /* \"#utility.yul\":519:636   */\n      pop\n        /* \"#utility.yul\":675:677   */\n      0x20\n        /* \"#utility.yul\":701:754   */\n      tag_172\n        /* \"#utility.yul\":746:753   */\n      dup6\n        /* \"#utility.yul\":737:743   */\n      dup3\n        /* \"#utility.yul\":726:735   */\n      dup7\n        /* \"#utility.yul\":722:744   */\n      add\n        /* \"#utility.yul\":701:754   */\n      tag_163\n      jump\t// in\n    tag_172:\n        /* \"#utility.yul\":691:754   */\n      swap2\n      pop\n        /* \"#utility.yul\":646:764   */\n      pop\n        /* \"#utility.yul\":297:771   */\n      swap3\n      pop\n      swap3\n      swap1\n      pop\n      jump\t// out\n        /* \"#utility.yul\":777:1396   */\n    tag_26:\n        /* \"#utility.yul\":854:860   */\n      0x00\n        /* \"#utility.yul\":862:868   */\n      dup1\n        /* \"#utility.yul\":870:876   */\n      0x00\n        /* \"#utility.yul\":919:921   */\n      0x60\n        /* \"#utility.yul\":907:916   */\n      dup5\n        /* \"#utility.yul\":898:905   */\n      dup7\n        /* \"#utility.yul\":894:917   */\n      sub\n        /* \"#utility.yul\":890:922   */\n      slt\n        /* \"#utility.yul\":887:1006   */\n      iszero\n      tag_174\n      jumpi\n        /* \"#utility.yul\":925:1004   */\n      tag_175\n      tag_170\n      jump\t// in\n    tag_175:\n        /* \"#utility.yul\":887:1006   */\n    tag_174:\n        /* \"#utility.yul\":1045:1046   */\n      0x00\n        /* \"#utility.yul\":1070:1123   */\n      tag_176\n        /* \"#utility.yul\":1115:1122   */\n      dup7\n        /* \"#utility.yul\":1106:1112   */\n      dup3\n        /* \"#utility.yul\":1095:1104   */\n      dup8\n        /* \"#utility.yul\":1091:1113   */\n      add\n        /* \"#utility.yul\":1070:1123   */\n      tag_159\n      jump\t// in\n    tag_176:\n        /* \"#utility.yul\":1060:1123   */\n      swap4\n      pop\n        /* \"#utility.yul\":1016:1133   */\n      pop\n        /* \"#utility.yul\":1172:1174   */\n      0x20\n        /* \"#utility.yul\":1198:1251   */\n      tag_177\n        /* \"#utility.yul\":1243:1250   */\n      dup7\n        /* \"#utility.yul\":1234:1240   */\n      dup3\n        /* \"#utility.yul\":1223:1232   */\n      dup8\n        /* \"#utility.yul\":1219:1241   */\n      add\n        /* \"#utility.yul\":1198:1251   */\n      tag_163\n      jump\t// in\n    tag_177:\n        /* \"#utility.yul\":1188:1251   */\n      swap3\n      pop\n        /* \"#utility.yul\":1143:1261   */\n      pop\n        /* \"#utility.yul\":1300:1302   */\n      0x40\n        /* \"#utility.yul\":1326:1379   */\n      tag_178\n        /* \"#utility.yul\":1371:1378   */\n      dup7\n        /* \"#utility.yul\":1362:1368   */\n      dup3\n        /* \"#utility.yul\":1351:1360   */\n      dup8\n        /* \"#utility.yul\":1347:1369   */\n      add\n        /* \"#utility.yul\":1326:1379   */\n      tag_163\n      jump\t// in\n    tag_178:\n        /* \"#utility.yul\":1316:1379   */\n      swap2\n      pop\n        /* \"#utility.yul\":1271:1389   */\n      pop\n        /* \"#utility.yul\":777:1396   */\n      swap3\n      pop\n      swap3\n      pop\n      swap3\n      jump\t// out\n        /* \"#utility.yul\":1402:1731   */\n    tag_31:\n        /* \"#utility.yul\":1461:1467   */\n      0x00\n        /* \"#utility.yul\":1510:1512   */\n      0x20\n        /* \"#utility.yul\":1498:1507   */\n      dup3\n        /* \"#utility.yul\":1489:1496   */\n      dup5\n        /* \"#utility.yul\":1485:1508   */\n      sub\n        /* \"#utility.yul\":1481:1513   */\n      slt\n        /* \"#utility.yul\":1478:1597   */\n      iszero\n      tag_180\n      jumpi\n        /* \"#utility.yul\":1516:1595   */\n      tag_181\n      tag_170\n      jump\t// in\n    tag_181:\n        /* \"#utility.yul\":1478:1597   */\n    tag_180:\n        /* \"#utility.yul\":1636:1637   */\n      0x00\n        /* \"#utility.yul\":1661:1714   */\n      tag_182\n        /* \"#utility.yul\":1706:1713   */\n      dup5\n        /* \"#utility.yul\":1697:1703   */\n      dup3\n        /* \"#utility.yul\":1686:1695   */\n      dup6\n        /* \"#utility.yul\":1682:1704   */\n      add\n        /* \"#utility.yul\":1661:1714   */\n      tag_163\n      jump\t// in\n    tag_182:\n        /* \"#utility.yul\":1651:1714   */\n      swap2\n      pop\n        /* \"#utility.yul\":1607:1724   */\n      pop\n        /* \"#utility.yul\":1402:1731   */\n      swap3\n      swap2\n      pop\n      pop\n      jump\t// out\n        /* \"#utility.yul\":1737:2028   */\n    tag_183:\n        /* \"#utility.yul\":1862:1872   */\n      0x00\n        /* \"#utility.yul\":1883:1985   */\n      tag_185\n        /* \"#utility.yul\":1981:1984   */\n      dup4\n        /* \"#utility.yul\":1973:1979   */\n      dup4\n        /* \"#utility.yul\":1883:1985   */\n      tag_186\n      jump\t// in\n    tag_185:\n        /* \"#utility.yul\":2017:2021   */\n      0xe0\n        /* \"#utility.yul\":2012:2015   */\n      dup4\n        /* \"#utility.yul\":2008:2022   */\n      add\n        /* \"#utility.yul\":1994:2022   */\n      swap1\n      pop\n        /* \"#utility.yul\":1737:2028   */\n      swap3\n      swap2\n      pop\n      pop\n      jump\t// out\n        /* \"#utility.yul\":2034:2166   */\n    tag_187:\n        /* \"#utility.yul\":2127:2159   */\n      tag_189\n        /* \"#utility.yul\":2153:2158   */\n      dup2\n        /* \"#utility.yul\":2127:2159   */\n      tag_190\n      jump\t// in\n    tag_189:\n        /* \"#utility.yul\":2122:2125   */\n      dup3\n        /* \"#utility.yul\":2115:2160   */\n      mstore\n        /* \"#utility.yul\":2034:2166   */\n      pop\n      pop\n      jump\t// out\n        /* \"#utility.yul\":2172:2314   */\n    tag_191:\n        /* \"#utility.yul\":2275:2307   */\n      tag_193\n        /* \"#utility.yul\":2301:2306   */\n      dup2\n        /* \"#utility.yul\":2275:2307   */\n      tag_190\n      jump\t// in\n    tag_193:\n        /* \"#utility.yul\":2270:2273   */\n      dup3\n        /* \"#utility.yul\":2263:2308   */\n      mstore\n        /* \"#utility.yul\":2172:2314   */\n      pop\n      pop\n      jump\t// out\n        /* \"#utility.yul\":2320:2428   */\n    tag_194:\n        /* \"#utility.yul\":2397:2421   */\n      tag_196\n        /* \"#utility.yul\":2415:2420   */\n      dup2\n        /* \"#utility.yul\":2397:2421   */\n      tag_197\n      jump\t// in\n    tag_196:\n        /* \"#utility.yul\":2392:2395   */\n      dup3\n        /* \"#utility.yul\":2385:2422   */\n      mstore\n        /* \"#utility.yul\":2320:2428   */\n      pop\n      pop\n      jump\t// out\n        /* \"#utility.yul\":2434:2552   */\n    tag_198:\n        /* \"#utility.yul\":2521:2545   */\n      tag_200\n        /* \"#utility.yul\":2539:2544   */\n      dup2\n        /* \"#utility.yul\":2521:2545   */\n      tag_197\n      jump\t// in\n    tag_200:\n        /* \"#utility.yul\":2516:2519   */\n      dup3\n        /* \"#utility.yul\":2509:2546   */\n      mstore\n        /* \"#utility.yul\":2434:2552   */\n      pop\n      pop\n      jump\t// out\n        /* \"#utility.yul\":2628:3584   */\n    tag_201:\n        /* \"#utility.yul\":2803:2806   */\n      0x00\n        /* \"#utility.yul\":2832:2914   */\n      tag_203\n        /* \"#utility.yul\":2908:2913   */\n      dup3\n        /* \"#utility.yul\":2832:2914   */\n      tag_204\n      jump\t// in\n    tag_203:\n        /* \"#utility.yul\":2930:3044   */\n      tag_205\n        /* \"#utility.yul\":3037:3043   */\n      dup2\n        /* \"#utility.yul\":3032:3035   */\n      dup6\n        /* \"#utility.yul\":2930:3044   */\n      tag_206\n      jump\t// in\n    tag_205:\n        /* \"#utility.yul\":2923:3044   */\n      swap4\n      pop\n        /* \"#utility.yul\":3068:3152   */\n      tag_207\n        /* \"#utility.yul\":3146:3151   */\n      dup4\n        /* \"#utility.yul\":3068:3152   */\n      tag_208\n      jump\t// in\n    tag_207:\n        /* \"#utility.yul\":3175:3182   */\n      dup1\n        /* \"#utility.yul\":3206:3207   */\n      0x00\n        /* \"#utility.yul\":3191:3559   */\n    tag_209:\n        /* \"#utility.yul\":3216:3222   */\n      dup4\n        /* \"#utility.yul\":3213:3214   */\n      dup2\n        /* \"#utility.yul\":3210:3223   */\n      lt\n        /* \"#utility.yul\":3191:3559   */\n      iszero\n      tag_211\n      jumpi\n        /* \"#utility.yul\":3292:3298   */\n      dup2\n        /* \"#utility.yul\":3286:3299   */\n      mload\n        /* \"#utility.yul\":3319:3438   */\n      tag_212\n        /* \"#utility.yul\":3434:3437   */\n      dup9\n        /* \"#utility.yul\":3419:3432   */\n      dup3\n        /* \"#utility.yul\":3319:3438   */\n      tag_183\n      jump\t// in\n    tag_212:\n        /* \"#utility.yul\":3312:3438   */\n      swap8\n      pop\n        /* \"#utility.yul\":3461:3549   */\n      tag_213\n        /* \"#utility.yul\":3542:3548   */\n      dup4\n        /* \"#utility.yul\":3461:3549   */\n      tag_214\n      jump\t// in\n    tag_213:\n        /* \"#utility.yul\":3451:3549   */\n      swap3\n      pop\n        /* \"#utility.yul\":3251:3559   */\n      pop\n        /* \"#utility.yul\":3238:3239   */\n      0x01\n        /* \"#utility.yul\":3235:3236   */\n      dup2\n        /* \"#utility.yul\":3231:3240   */\n      add\n        /* \"#utility.yul\":3226:3240   */\n      swap1\n      pop\n        /* \"#utility.yul\":3191:3559   */\n      jump(tag_209)\n    tag_211:\n        /* \"#utility.yul\":3195:3209   */\n      pop\n        /* \"#utility.yul\":3575:3578   */\n      dup6\n        /* \"#utility.yul\":3568:3578   */\n      swap4\n      pop\n        /* \"#utility.yul\":2808:3584   */\n      pop\n      pop\n      pop\n        /* \"#utility.yul\":2628:3584   */\n      swap3\n      swap2\n      pop\n      pop\n      jump\t// out\n        /* \"#utility.yul\":3590:3689   */\n    tag_215:\n        /* \"#utility.yul\":3661:3682   */\n      tag_217\n        /* \"#utility.yul\":3676:3681   */\n      dup2\n        /* \"#utility.yul\":3661:3682   */\n      tag_218\n      jump\t// in\n    tag_217:\n        /* \"#utility.yul\":3656:3659   */\n      dup3\n        /* \"#utility.yul\":3649:3683   */\n      mstore\n        /* \"#utility.yul\":3590:3689   */\n      pop\n      pop\n      jump\t// out\n        /* \"#utility.yul\":3695:3804   */\n    tag_219:\n        /* \"#utility.yul\":3776:3797   */\n      tag_221\n        /* \"#utility.yul\":3791:3796   */\n      dup2\n        /* \"#utility.yul\":3776:3797   */\n      tag_218\n      jump\t// in\n    tag_221:\n        /* \"#utility.yul\":3771:3774   */\n      dup3\n        /* \"#utility.yul\":3764:3798   */\n      mstore\n        /* \"#utility.yul\":3695:3804   */\n      pop\n      pop\n      jump\t// out\n        /* \"#utility.yul\":3810:4176   */\n    tag_222:\n        /* \"#utility.yul\":3952:3955   */\n      0x00\n        /* \"#utility.yul\":3973:4040   */\n      tag_224\n        /* \"#utility.yul\":4037:4039   */\n      0x40\n        /* \"#utility.yul\":4032:4035   */\n      dup4\n        /* \"#utility.yul\":3973:4040   */\n      tag_225\n      jump\t// in\n    tag_224:\n        /* \"#utility.yul\":3966:4040   */\n      swap2\n      pop\n        /* \"#utility.yul\":4049:4142   */\n      tag_226\n        /* \"#utility.yul\":4138:4141   */\n      dup3\n        /* \"#utility.yul\":4049:4142   */\n      tag_227\n      jump\t// in\n    tag_226:\n        /* \"#utility.yul\":4167:4169   */\n      0x40\n        /* \"#utility.yul\":4162:4165   */\n      dup3\n        /* \"#utility.yul\":4158:4170   */\n      add\n        /* \"#utility.yul\":4151:4170   */\n      swap1\n      pop\n        /* \"#utility.yul\":3810:4176   */\n      swap2\n      swap1\n      pop\n      jump\t// out\n        /* \"#utility.yul\":4182:4548   */\n    tag_228:\n        /* \"#utility.yul\":4324:4327   */\n      0x00\n        /* \"#utility.yul\":4345:4412   */\n      tag_230\n        /* \"#utility.yul\":4409:4411   */\n      0x18\n        /* \"#utility.yul\":4404:4407   */\n      dup4\n        /* \"#utility.yul\":4345:4412   */\n      tag_225\n      jump\t// in\n    tag_230:\n        /* \"#utility.yul\":4338:4412   */\n      swap2\n      pop\n        /* \"#utility.yul\":4421:4514   */\n      tag_231\n        /* \"#utility.yul\":4510:4513   */\n      dup3\n        /* \"#utility.yul\":4421:4514   */\n      tag_232\n      jump\t// in\n    tag_231:\n        /* \"#utility.yul\":4539:4541   */\n      0x20\n        /* \"#utility.yul\":4534:4537   */\n      dup3\n        /* \"#utility.yul\":4530:4542   */\n      add\n        /* \"#utility.yul\":4523:4542   */\n      swap1\n      pop\n        /* \"#utility.yul\":4182:4548   */\n      swap2\n      swap1\n      pop\n      jump\t// out\n        /* \"#utility.yul\":4554:4920   */\n    tag_233:\n        /* \"#utility.yul\":4696:4699   */\n      0x00\n        /* \"#utility.yul\":4717:4784   */\n      tag_235\n        /* \"#utility.yul\":4781:4783   */\n      0x24\n        /* \"#utility.yul\":4776:4779   */\n      dup4\n        /* \"#utility.yul\":4717:4784   */\n      tag_225\n      jump\t// in\n    tag_235:\n        /* \"#utility.yul\":4710:4784   */\n      swap2\n      pop\n        /* \"#utility.yul\":4793:4886   */\n      tag_236\n        /* \"#utility.yul\":4882:4885   */\n      dup3\n        /* \"#utility.yul\":4793:4886   */\n      tag_237\n      jump\t// in\n    tag_236:\n        /* \"#utility.yul\":4911:4913   */\n      0x40\n        /* \"#utility.yul\":4906:4909   */\n      dup3\n        /* \"#utility.yul\":4902:4914   */\n      add\n        /* \"#utility.yul\":4895:4914   */\n      swap1\n      pop\n        /* \"#utility.yul\":4554:4920   */\n      swap2\n      swap1\n      pop\n      jump\t// out\n        /* \"#utility.yul\":4926:5292   */\n    tag_238:\n        /* \"#utility.yul\":5068:5071   */\n      0x00\n        /* \"#utility.yul\":5089:5156   */\n      tag_240\n        /* \"#utility.yul\":5153:5155   */\n      0x1f\n        /* \"#utility.yul\":5148:5151   */\n      dup4\n        /* \"#utility.yul\":5089:5156   */\n      tag_225\n      jump\t// in\n    tag_240:\n        /* \"#utility.yul\":5082:5156   */\n      swap2\n      pop\n        /* \"#utility.yul\":5165:5258   */\n      tag_241\n        /* \"#utility.yul\":5254:5257   */\n      dup3\n        /* \"#utility.yul\":5165:5258   */\n      tag_242\n      jump\t// in\n    tag_241:\n        /* \"#utility.yul\":5283:5285   */\n      0x20\n        /* \"#utility.yul\":5278:5281   */\n      dup3\n        /* \"#utility.yul\":5274:5286   */\n      add\n        /* \"#utility.yul\":5267:5286   */\n      swap1\n      pop\n        /* \"#utility.yul\":4926:5292   */\n      swap2\n      swap1\n      pop\n      jump\t// out\n        /* \"#utility.yul\":5364:6779   */\n    tag_186:\n        /* \"#utility.yul\":5507:5511   */\n      0xe0\n        /* \"#utility.yul\":5502:5505   */\n      dup3\n        /* \"#utility.yul\":5498:5512   */\n      add\n        /* \"#utility.yul\":5596:5600   */\n      0x00\n        /* \"#utility.yul\":5589:5594   */\n      dup3\n        /* \"#utility.yul\":5585:5601   */\n      add\n        /* \"#utility.yul\":5579:5602   */\n      mload\n        /* \"#utility.yul\":5615:5678   */\n      tag_244\n        /* \"#utility.yul\":5672:5676   */\n      0x00\n        /* \"#utility.yul\":5667:5670   */\n      dup6\n        /* \"#utility.yul\":5663:5677   */\n      add\n        /* \"#utility.yul\":5649:5661   */\n      dup3\n        /* \"#utility.yul\":5615:5678   */\n      tag_245\n      jump\t// in\n    tag_244:\n        /* \"#utility.yul\":5522:5688   */\n      pop\n        /* \"#utility.yul\":5777:5781   */\n      0x20\n        /* \"#utility.yul\":5770:5775   */\n      dup3\n        /* \"#utility.yul\":5766:5782   */\n      add\n        /* \"#utility.yul\":5760:5783   */\n      mload\n        /* \"#utility.yul\":5796:5859   */\n      tag_246\n        /* \"#utility.yul\":5853:5857   */\n      0x20\n        /* \"#utility.yul\":5848:5851   */\n      dup6\n        /* \"#utility.yul\":5844:5858   */\n      add\n        /* \"#utility.yul\":5830:5842   */\n      dup3\n        /* \"#utility.yul\":5796:5859   */\n      tag_194\n      jump\t// in\n    tag_246:\n        /* \"#utility.yul\":5698:5869   */\n      pop\n        /* \"#utility.yul\":5954:5958   */\n      0x40\n        /* \"#utility.yul\":5947:5952   */\n      dup3\n        /* \"#utility.yul\":5943:5959   */\n      add\n        /* \"#utility.yul\":5937:5960   */\n      mload\n        /* \"#utility.yul\":5973:6036   */\n      tag_247\n        /* \"#utility.yul\":6030:6034   */\n      0x40\n        /* \"#utility.yul\":6025:6028   */\n      dup6\n        /* \"#utility.yul\":6021:6035   */\n      add\n        /* \"#utility.yul\":6007:6019   */\n      dup3\n        /* \"#utility.yul\":5973:6036   */\n      tag_245\n      jump\t// in\n    tag_247:\n        /* \"#utility.yul\":5879:6046   */\n      pop\n        /* \"#utility.yul\":6130:6134   */\n      0x60\n        /* \"#utility.yul\":6123:6128   */\n      dup3\n        /* \"#utility.yul\":6119:6135   */\n      add\n        /* \"#utility.yul\":6113:6136   */\n      mload\n        /* \"#utility.yul\":6149:6228   */\n      tag_248\n        /* \"#utility.yul\":6222:6226   */\n      0x60\n        /* \"#utility.yul\":6217:6220   */\n      dup6\n        /* \"#utility.yul\":6213:6227   */\n      add\n        /* \"#utility.yul\":6199:6211   */\n      dup3\n        /* \"#utility.yul\":6149:6228   */\n      tag_187\n      jump\t// in\n    tag_248:\n        /* \"#utility.yul\":6056:6238   */\n      pop\n        /* \"#utility.yul\":6321:6325   */\n      0x80\n        /* \"#utility.yul\":6314:6319   */\n      dup3\n        /* \"#utility.yul\":6310:6326   */\n      add\n        /* \"#utility.yul\":6304:6327   */\n      mload\n        /* \"#utility.yul\":6340:6419   */\n      tag_249\n        /* \"#utility.yul\":6413:6417   */\n      0x80\n        /* \"#utility.yul\":6408:6411   */\n      dup6\n        /* \"#utility.yul\":6404:6418   */\n      add\n        /* \"#utility.yul\":6390:6402   */\n      dup3\n        /* \"#utility.yul\":6340:6419   */\n      tag_187\n      jump\t// in\n    tag_249:\n        /* \"#utility.yul\":6248:6429   */\n      pop\n        /* \"#utility.yul\":6512:6516   */\n      0xa0\n        /* \"#utility.yul\":6505:6510   */\n      dup3\n        /* \"#utility.yul\":6501:6517   */\n      add\n        /* \"#utility.yul\":6495:6518   */\n      mload\n        /* \"#utility.yul\":6531:6594   */\n      tag_250\n        /* \"#utility.yul\":6588:6592   */\n      0xa0\n        /* \"#utility.yul\":6583:6586   */\n      dup6\n        /* \"#utility.yul\":6579:6593   */\n      add\n        /* \"#utility.yul\":6565:6577   */\n      dup3\n        /* \"#utility.yul\":6531:6594   */\n      tag_245\n      jump\t// in\n    tag_250:\n        /* \"#utility.yul\":6439:6604   */\n      pop\n        /* \"#utility.yul\":6686:6690   */\n      0xc0\n        /* \"#utility.yul\":6679:6684   */\n      dup3\n        /* \"#utility.yul\":6675:6691   */\n      add\n        /* \"#utility.yul\":6669:6692   */\n      mload\n        /* \"#utility.yul\":6705:6762   */\n      tag_251\n        /* \"#utility.yul\":6756:6760   */\n      0xc0\n        /* \"#utility.yul\":6751:6754   */\n      dup6\n        /* \"#utility.yul\":6747:6761   */\n      add\n        /* \"#utility.yul\":6733:6745   */\n      dup3\n        /* \"#utility.yul\":6705:6762   */\n      tag_215\n      jump\t// in\n    tag_251:\n        /* \"#utility.yul\":6614:6772   */\n      pop\n        /* \"#utility.yul\":5476:6779   */\n      pop\n        /* \"#utility.yul\":5364:6779   */\n      pop\n      pop\n      jump\t// out\n        /* \"#utility.yul\":6785:6893   */\n    tag_245:\n        /* \"#utility.yul\":6862:6886   */\n      tag_253\n        /* \"#utility.yul\":6880:6885   */\n      dup2\n        /* \"#utility.yul\":6862:6886   */\n      tag_254\n      jump\t// in\n    tag_253:\n        /* \"#utility.yul\":6857:6860   */\n      dup3\n        /* \"#utility.yul\":6850:6887   */\n      mstore\n        /* \"#utility.yul\":6785:6893   */\n      pop\n      pop\n      jump\t// out\n        /* \"#utility.yul\":6899:7017   */\n    tag_255:\n        /* \"#utility.yul\":6986:7010   */\n      tag_257\n        /* \"#utility.yul\":7004:7009   */\n      dup2\n        /* \"#utility.yul\":6986:7010   */\n      tag_254\n      jump\t// in\n    tag_257:\n        /* \"#utility.yul\":6981:6984   */\n      dup3\n        /* \"#utility.yul\":6974:7011   */\n      mstore\n        /* \"#utility.yul\":6899:7017   */\n      pop\n      pop\n      jump\t// out\n        /* \"#utility.yul\":7023:7628   */\n    tag_114:\n        /* \"#utility.yul\":7226:7230   */\n      0x00\n        /* \"#utility.yul\":7264:7267   */\n      0x80\n        /* \"#utility.yul\":7253:7262   */\n      dup3\n        /* \"#utility.yul\":7249:7268   */\n      add\n        /* \"#utility.yul\":7241:7268   */\n      swap1\n      pop\n        /* \"#utility.yul\":7278:7365   */\n      tag_259\n        /* \"#utility.yul\":7362:7363   */\n      0x00\n        /* \"#utility.yul\":7351:7360   */\n      dup4\n        /* \"#utility.yul\":7347:7364   */\n      add\n        /* \"#utility.yul\":7338:7344   */\n      dup8\n        /* \"#utility.yul\":7278:7365   */\n      tag_191\n      jump\t// in\n    tag_259:\n        /* \"#utility.yul\":7375:7463   */\n      tag_260\n        /* \"#utility.yul\":7459:7461   */\n      0x20\n        /* \"#utility.yul\":7448:7457   */\n      dup4\n        /* \"#utility.yul\":7444:7462   */\n      add\n        /* \"#utility.yul\":7435:7441   */\n      dup7\n        /* \"#utility.yul\":7375:7463   */\n      tag_191\n      jump\t// in\n    tag_260:\n        /* \"#utility.yul\":7473:7545   */\n      tag_261\n        /* \"#utility.yul\":7541:7543   */\n      0x40\n        /* \"#utility.yul\":7530:7539   */\n      dup4\n        /* \"#utility.yul\":7526:7544   */\n      add\n        /* \"#utility.yul\":7517:7523   */\n      dup6\n        /* \"#utility.yul\":7473:7545   */\n      tag_255\n      jump\t// in\n    tag_261:\n        /* \"#utility.yul\":7555:7621   */\n      tag_262\n        /* \"#utility.yul\":7617:7619   */\n      0x60\n        /* \"#utility.yul\":7606:7615   */\n      dup4\n        /* \"#utility.yul\":7602:7620   */\n      add\n        /* \"#utility.yul\":7593:7599   */\n      dup5\n        /* \"#utility.yul\":7555:7621   */\n      tag_219\n      jump\t// in\n    tag_262:\n        /* \"#utility.yul\":7023:7628   */\n      swap6\n      swap5\n      pop\n      pop\n      pop\n      pop\n      pop\n      jump\t// out\n        /* \"#utility.yul\":7634:8076   */\n    tag_109:\n        /* \"#utility.yul\":7783:7787   */\n      0x00\n        /* \"#utility.yul\":7821:7823   */\n      0x60\n        /* \"#utility.yul\":7810:7819   */\n      dup3\n        /* \"#utility.yul\":7806:7824   */\n      add\n        /* \"#utility.yul\":7798:7824   */\n      swap1\n      pop\n        /* \"#utility.yul\":7834:7905   */\n      tag_264\n        /* \"#utility.yul\":7902:7903   */\n      0x00\n        /* \"#utility.yul\":7891:7900   */\n      dup4\n        /* \"#utility.yul\":7887:7904   */\n      add\n        /* \"#utility.yul\":7878:7884   */\n      dup7\n        /* \"#utility.yul\":7834:7905   */\n      tag_198\n      jump\t// in\n    tag_264:\n        /* \"#utility.yul\":7915:7987   */\n      tag_265\n        /* \"#utility.yul\":7983:7985   */\n      0x20\n        /* \"#utility.yul\":7972:7981   */\n      dup4\n        /* \"#utility.yul\":7968:7986   */\n      add\n        /* \"#utility.yul\":7959:7965   */\n      dup6\n        /* \"#utility.yul\":7915:7987   */\n      tag_198\n      jump\t// in\n    tag_265:\n        /* \"#utility.yul\":7997:8069   */\n      tag_266\n        /* \"#utility.yul\":8065:8067   */\n      0x40\n        /* \"#utility.yul\":8054:8063   */\n      dup4\n        /* \"#utility.yul\":8050:8068   */\n      add\n        /* \"#utility.yul\":8041:8047   */\n      dup5\n        /* \"#utility.yul\":7997:8069   */\n      tag_255\n      jump\t// in\n    tag_266:\n        /* \"#utility.yul\":7634:8076   */\n      swap5\n      swap4\n      pop\n      pop\n      pop\n      pop\n      jump\t// out\n        /* \"#utility.yul\":8082:8567   */\n    tag_14:\n        /* \"#utility.yul\":8281:8285   */\n      0x00\n        /* \"#utility.yul\":8319:8321   */\n      0x20\n        /* \"#utility.yul\":8308:8317   */\n      dup3\n        /* \"#utility.yul\":8304:8322   */\n      add\n        /* \"#utility.yul\":8296:8322   */\n      swap1\n      pop\n        /* \"#utility.yul\":8368:8377   */\n      dup2\n        /* \"#utility.yul\":8362:8366   */\n      dup2\n        /* \"#utility.yul\":8358:8378   */\n      sub\n        /* \"#utility.yul\":8354:8355   */\n      0x00\n        /* \"#utility.yul\":8343:8352   */\n      dup4\n        /* \"#utility.yul\":8339:8356   */\n      add\n        /* \"#utility.yul\":8332:8379   */\n      mstore\n        /* \"#utility.yul\":8396:8560   */\n      tag_268\n        /* \"#utility.yul\":8555:8559   */\n      dup2\n        /* \"#utility.yul\":8546:8552   */\n      dup5\n        /* \"#utility.yul\":8396:8560   */\n      tag_201\n      jump\t// in\n    tag_268:\n        /* \"#utility.yul\":8388:8560   */\n      swap1\n      pop\n        /* \"#utility.yul\":8082:8567   */\n      swap3\n      swap2\n      pop\n      pop\n      jump\t// out\n        /* \"#utility.yul\":8573:8992   */\n    tag_122:\n        /* \"#utility.yul\":8739:8743   */\n      0x00\n        /* \"#utility.yul\":8777:8779   */\n      0x20\n        /* \"#utility.yul\":8766:8775   */\n      dup3\n        /* \"#utility.yul\":8762:8780   */\n      add\n        /* \"#utility.yul\":8754:8780   */\n      swap1\n      pop\n        /* \"#utility.yul\":8826:8835   */\n      dup2\n        /* \"#utility.yul\":8820:8824   */\n      dup2\n        /* \"#utility.yul\":8816:8836   */\n      sub\n        /* \"#utility.yul\":8812:8813   */\n      0x00\n        /* \"#utility.yul\":8801:8810   */\n      dup4\n        /* \"#utility.yul\":8797:8814   */\n      add\n        /* \"#utility.yul\":8790:8837   */\n      mstore\n        /* \"#utility.yul\":8854:8985   */\n      tag_270\n        /* \"#utility.yul\":8980:8984   */\n      dup2\n        /* \"#utility.yul\":8854:8985   */\n      tag_222\n      jump\t// in\n    tag_270:\n        /* \"#utility.yul\":8846:8985   */\n      swap1\n      pop\n        /* \"#utility.yul\":8573:8992   */\n      swap2\n      swap1\n      pop\n      jump\t// out\n        /* \"#utility.yul\":8998:9417   */\n    tag_101:\n        /* \"#utility.yul\":9164:9168   */\n      0x00\n        /* \"#utility.yul\":9202:9204   */\n      0x20\n        /* \"#utility.yul\":9191:9200   */\n      dup3\n        /* \"#utility.yul\":9187:9205   */\n      add\n        /* \"#utility.yul\":9179:9205   */\n      swap1\n      pop\n        /* \"#utility.yul\":9251:9260   */\n      dup2\n        /* \"#utility.yul\":9245:9249   */\n      dup2\n        /* \"#utility.yul\":9241:9261   */\n      sub\n        /* \"#utility.yul\":9237:9238   */\n      0x00\n        /* \"#utility.yul\":9226:9235   */\n      dup4\n        /* \"#utility.yul\":9222:9239   */\n      add\n        /* \"#utility.yul\":9215:9262   */\n      mstore\n        /* \"#utility.yul\":9279:9410   */\n      tag_272\n        /* \"#utility.yul\":9405:9409   */\n      dup2\n        /* \"#utility.yul\":9279:9410   */\n      tag_228\n      jump\t// in\n    tag_272:\n        /* \"#utility.yul\":9271:9410   */\n      swap1\n      pop\n        /* \"#utility.yul\":8998:9417   */\n      swap2\n      swap1\n      pop\n      jump\t// out\n        /* \"#utility.yul\":9423:9842   */\n    tag_104:\n        /* \"#utility.yul\":9589:9593   */\n      0x00\n        /* \"#utility.yul\":9627:9629   */\n      0x20\n        /* \"#utility.yul\":9616:9625   */\n      dup3\n        /* \"#utility.yul\":9612:9630   */\n      add\n        /* \"#utility.yul\":9604:9630   */\n      swap1\n      pop\n        /* \"#utility.yul\":9676:9685   */\n      dup2\n        /* \"#utility.yul\":9670:9674   */\n      dup2\n        /* \"#utility.yul\":9666:9686   */\n      sub\n        /* \"#utility.yul\":9662:9663   */\n      0x00\n        /* \"#utility.yul\":9651:9660   */\n      dup4\n        /* \"#utility.yul\":9647:9664   */\n      add\n        /* \"#utility.yul\":9640:9687   */\n      mstore\n        /* \"#utility.yul\":9704:9835   */\n      tag_274\n        /* \"#utility.yul\":9830:9834   */\n      dup2\n        /* \"#utility.yul\":9704:9835   */\n      tag_233\n      jump\t// in\n    tag_274:\n        /* \"#utility.yul\":9696:9835   */\n      swap1\n      pop\n        /* \"#utility.yul\":9423:9842   */\n      swap2\n      swap1\n      pop\n      jump\t// out\n        /* \"#utility.yul\":9848:10267   */\n    tag_97:\n        /* \"#utility.yul\":10014:10018   */\n      0x00\n        /* \"#utility.yul\":10052:10054   */\n      0x20\n        /* \"#utility.yul\":10041:10050   */\n      dup3\n        /* \"#utility.yul\":10037:10055   */\n      add\n        /* \"#utility.yul\":10029:10055   */\n      swap1\n      pop\n        /* \"#utility.yul\":10101:10110   */\n      dup2\n        /* \"#utility.yul\":10095:10099   */\n      dup2\n        /* \"#utility.yul\":10091:10111   */\n      sub\n        /* \"#utility.yul\":10087:10088   */\n      0x00\n        /* \"#utility.yul\":10076:10085   */\n      dup4\n        /* \"#utility.yul\":10072:10089   */\n      add\n        /* \"#utility.yul\":10065:10112   */\n      mstore\n        /* \"#utility.yul\":10129:10260   */\n      tag_276\n        /* \"#utility.yul\":10255:10259   */\n      dup2\n        /* \"#utility.yul\":10129:10260   */\n      tag_238\n      jump\t// in\n    tag_276:\n        /* \"#utility.yul\":10121:10260   */\n      swap1\n      pop\n        /* \"#utility.yul\":9848:10267   */\n      swap2\n      swap1\n      pop\n      jump\t// out\n        /* \"#utility.yul\":10273:10495   */\n    tag_19:\n        /* \"#utility.yul\":10366:10370   */\n      0x00\n        /* \"#utility.yul\":10404:10406   */\n      0x20\n        /* \"#utility.yul\":10393:10402   */\n      dup3\n        /* \"#utility.yul\":10389:10407   */\n      add\n        /* \"#utility.yul\":10381:10407   */\n      swap1\n      pop\n        /* \"#utility.yul\":10417:10488   */\n      tag_278\n        /* \"#utility.yul\":10485:10486   */\n      0x00\n        /* \"#utility.yul\":10474:10483   */\n      dup4\n        /* \"#utility.yul\":10470:10487   */\n      add\n        /* \"#utility.yul\":10461:10467   */\n      dup5\n        /* \"#utility.yul\":10417:10488   */\n      tag_255\n      jump\t// in\n    tag_278:\n        /* \"#utility.yul\":10273:10495   */\n      swap3\n      swap2\n      pop\n      pop\n      jump\t// out\n        /* \"#utility.yul\":10582:10742   */\n    tag_208:\n        /* \"#utility.yul\":10677:10681   */\n      0x00\n        /* \"#utility.yul\":10700:10703   */\n      dup2\n        /* \"#utility.yul\":10692:10703   */\n      swap1\n      pop\n        /* \"#utility.yul\":10730:10734   */\n      0x20\n        /* \"#utility.yul\":10725:10728   */\n      dup3\n        /* \"#utility.yul\":10721:10735   */\n      add\n        /* \"#utility.yul\":10713:10735   */\n      swap1\n      pop\n        /* \"#utility.yul\":10582:10742   */\n      swap2\n      swap1\n      pop\n      jump\t// out\n        /* \"#utility.yul\":10748:10890   */\n    tag_204:\n        /* \"#utility.yul\":10843:10849   */\n      0x00\n        /* \"#utility.yul\":10877:10882   */\n      dup2\n        /* \"#utility.yul\":10871:10883   */\n      mload\n        /* \"#utility.yul\":10861:10883   */\n      swap1\n      pop\n        /* \"#utility.yul\":10748:10890   */\n      swap2\n      swap1\n      pop\n      jump\t// out\n        /* \"#utility.yul\":10896:11037   */\n    tag_214:\n        /* \"#utility.yul\":10994:10998   */\n      0x00\n        /* \"#utility.yul\":11026:11030   */\n      0x20\n        /* \"#utility.yul\":11021:11024   */\n      dup3\n        /* \"#utility.yul\":11017:11031   */\n      add\n        /* \"#utility.yul\":11009:11031   */\n      swap1\n      pop\n        /* \"#utility.yul\":10896:11037   */\n      swap2\n      swap1\n      pop\n      jump\t// out\n        /* \"#utility.yul\":11043:11255   */\n    tag_206:\n        /* \"#utility.yul\":11170:11181   */\n      0x00\n        /* \"#utility.yul\":11204:11210   */\n      dup3\n        /* \"#utility.yul\":11199:11202   */\n      dup3\n        /* \"#utility.yul\":11192:11211   */\n      mstore\n        /* \"#utility.yul\":11244:11248   */\n      0x20\n        /* \"#utility.yul\":11239:11242   */\n      dup3\n        /* \"#utility.yul\":11235:11249   */\n      add\n        /* \"#utility.yul\":11220:11249   */\n      swap1\n      pop\n        /* \"#utility.yul\":11043:11255   */\n      swap3\n      swap2\n      pop\n      pop\n      jump\t// out\n        /* \"#utility.yul\":11261:11430   */\n    tag_225:\n        /* \"#utility.yul\":11345:11356   */\n      0x00\n        /* \"#utility.yul\":11379:11385   */\n      dup3\n        /* \"#utility.yul\":11374:11377   */\n      dup3\n        /* \"#utility.yul\":11367:11386   */\n      mstore\n        /* \"#utility.yul\":11419:11423   */\n      0x20\n        /* \"#utility.yul\":11414:11417   */\n      dup3\n        /* \"#utility.yul\":11410:11424   */\n      add\n        /* \"#utility.yul\":11395:11424   */\n      swap1\n      pop\n        /* \"#utility.yul\":11261:11430   */\n      swap3\n      swap2\n      pop\n      pop\n      jump\t// out\n        /* \"#utility.yul\":11436:11741   */\n    tag_60:\n        /* \"#utility.yul\":11476:11479   */\n      0x00\n        /* \"#utility.yul\":11495:11515   */\n      tag_287\n        /* \"#utility.yul\":11513:11514   */\n      dup3\n        /* \"#utility.yul\":11495:11515   */\n      tag_254\n      jump\t// in\n    tag_287:\n        /* \"#utility.yul\":11490:11515   */\n      swap2\n      pop\n        /* \"#utility.yul\":11529:11549   */\n      tag_288\n        /* \"#utility.yul\":11547:11548   */\n      dup4\n        /* \"#utility.yul\":11529:11549   */\n      tag_254\n      jump\t// in\n    tag_288:\n        /* \"#utility.yul\":11524:11549   */\n      swap3\n      pop\n        /* \"#utility.yul\":11683:11684   */\n      dup3\n        /* \"#utility.yul\":11615:11681   */\n      0xffffffffffffffffffffffffffffffffffffffffffffffffffffffffffffffff\n        /* \"#utility.yul\":11611:11685   */\n      sub\n        /* \"#utility.yul\":11608:11609   */\n      dup3\n        /* \"#utility.yul\":11605:11686   */\n      gt\n        /* \"#utility.yul\":11602:11709   */\n      iszero\n      tag_289\n      jumpi\n        /* \"#utility.yul\":11689:11707   */\n      tag_290\n      tag_291\n      jump\t// in\n    tag_290:\n        /* \"#utility.yul\":11602:11709   */\n    tag_289:\n        /* \"#utility.yul\":11733:11734   */\n      dup3\n        /* \"#utility.yul\":11730:11731   */\n      dup3\n        /* \"#utility.yul\":11726:11735   */\n      add\n        /* \"#utility.yul\":11719:11735   */\n      swap1\n      pop\n        /* \"#utility.yul\":11436:11741   */\n      swap3\n      swap2\n      pop\n      pop\n      jump\t// out\n        /* \"#utility.yul\":11747:11938   */\n    tag_48:\n        /* \"#utility.yul\":11787:11791   */\n      0x00\n        /* \"#utility.yul\":11807:11827   */\n      tag_293\n        /* \"#utility.yul\":11825:11826   */\n      dup3\n        /* \"#utility.yul\":11807:11827   */\n      tag_254\n      jump\t// in\n    tag_293:\n        /* \"#utility.yul\":11802:11827   */\n      swap2\n      pop\n        /* \"#utility.yul\":11841:11861   */\n      tag_294\n        /* \"#utility.yul\":11859:11860   */\n      dup4\n        /* \"#utility.yul\":11841:11861   */\n      tag_254\n      jump\t// in\n    tag_294:\n        /* \"#utility.yul\":11836:11861   */\n      swap3\n      pop\n        /* \"#utility.yul\":11880:11881   */\n      dup3\n        /* \"#utility.yul\":11877:11878   */\n      dup3\n        /* \"#utility.yul\":11874:11882   */\n      lt\n        /* \"#utility.yul\":11871:11905   */\n      iszero\n      tag_295\n      jumpi\n        /* \"#utility.yul\":11885:11903   */\n      tag_296\n      tag_291\n      jump\t// in\n    tag_296:\n        /* \"#utility.yul\":11871:11905   */\n    tag_295:\n        /* \"#utility.yul\":11930:11931   */\n      dup3\n        /* \"#utility.yul\":11927:11928   */\n      dup3\n        /* \"#utility.yul\":11923:11932   */\n      sub\n        /* \"#utility.yul\":11915:11932   */\n      swap1\n      pop\n        /* \"#utility.yul\":11747:11938   */\n      swap3\n      swap2\n      pop\n      pop\n      jump\t// out\n        /* \"#utility.yul\":11944:12040   */\n    tag_197:\n        /* \"#utility.yul\":11981:11988   */\n      0x00\n        /* \"#utility.yul\":12010:12034   */\n      tag_298\n        /* \"#utility.yul\":12028:12033   */\n      dup3\n        /* \"#utility.yul\":12010:12034   */\n      tag_299\n      jump\t// in\n    tag_298:\n        /* \"#utility.yul\":11999:12034   */\n      swap1\n      pop\n        /* \"#utility.yul\":11944:12040   */\n      swap2\n      swap1\n      pop\n      jump\t// out\n        /* \"#utility.yul\":12046:12150   */\n    tag_190:\n        /* \"#utility.yul\":12091:12098   */\n      0x00\n        /* \"#utility.yul\":12120:12144   */\n      tag_301\n        /* \"#utility.yul\":12138:12143   */\n      dup3\n        /* \"#utility.yul\":12120:12144   */\n      tag_299\n      jump\t// in\n    tag_301:\n        /* \"#utility.yul\":12109:12144   */\n      swap1\n      pop\n        /* \"#utility.yul\":12046:12150   */\n      swap2\n      swap1\n      pop\n      jump\t// out\n        /* \"#utility.yul\":12156:12246   */\n    tag_218:\n        /* \"#utility.yul\":12190:12197   */\n      0x00\n        /* \"#utility.yul\":12233:12238   */\n      dup2\n        /* \"#utility.yul\":12226:12239   */\n      iszero\n        /* \"#utility.yul\":12219:12240   */\n      iszero\n        /* \"#utility.yul\":12208:12240   */\n      swap1\n      pop\n        /* \"#utility.yul\":12156:12246   */\n      swap2\n      swap1\n      pop\n      jump\t// out\n        /* \"#utility.yul\":12252:12378   */\n    tag_299:\n        /* \"#utility.yul\":12289:12296   */\n      0x00\n        /* \"#utility.yul\":12329:12371   */\n      0xffffffffffffffffffffffffffffffffffffffff\n        /* \"#utility.yul\":12322:12327   */\n      dup3\n        /* \"#utility.yul\":12318:12372   */\n      and\n        /* \"#utility.yul\":12307:12372   */\n      swap1\n      pop\n        /* \"#utility.yul\":12252:12378   */\n      swap2\n      swap1\n      pop\n      jump\t// out\n        /* \"#utility.yul\":12384:12461   */\n    tag_254:\n        /* \"#utility.yul\":12421:12428   */\n      0x00\n        /* \"#utility.yul\":12450:12455   */\n      dup2\n        /* \"#utility.yul\":12439:12455   */\n      swap1\n      pop\n        /* \"#utility.yul\":12384:12461   */\n      swap2\n      swap1\n      pop\n      jump\t// out\n        /* \"#utility.yul\":12467:12700   */\n    tag_68:\n        /* \"#utility.yul\":12506:12509   */\n      0x00\n        /* \"#utility.yul\":12529:12553   */\n      tag_306\n        /* \"#utility.yul\":12547:12552   */\n      dup3\n        /* \"#utility.yul\":12529:12553   */\n      tag_254\n      jump\t// in\n    tag_306:\n        /* \"#utility.yul\":12520:12553   */\n      swap2\n      pop\n        /* \"#utility.yul\":12575:12641   */\n      0xffffffffffffffffffffffffffffffffffffffffffffffffffffffffffffffff\n        /* \"#utility.yul\":12568:12573   */\n      dup3\n        /* \"#utility.yul\":12565:12642   */\n      eq\n        /* \"#utility.yul\":12562:12665   */\n      iszero\n      tag_307\n      jumpi\n        /* \"#utility.yul\":12645:12663   */\n      tag_308\n      tag_291\n      jump\t// in\n    tag_308:\n        /* \"#utility.yul\":12562:12665   */\n    tag_307:\n        /* \"#utility.yul\":12692:12693   */\n      0x01\n        /* \"#utility.yul\":12685:12690   */\n      dup3\n        /* \"#utility.yul\":12681:12694   */\n      add\n        /* \"#utility.yul\":12674:12694   */\n      swap1\n      pop\n        /* \"#utility.yul\":12467:12700   */\n      swap2\n      swap1\n      pop\n      jump\t// out\n        /* \"#utility.yul\":12706:12886   */\n    tag_291:\n        /* \"#utility.yul\":12754:12831   */\n      0x4e487b7100000000000000000000000000000000000000000000000000000000\n        /* \"#utility.yul\":12751:12752   */\n      0x00\n        /* \"#utility.yul\":12744:12832   */\n      mstore\n        /* \"#utility.yul\":12851:12855   */\n      0x11\n        /* \"#utility.yul\":12848:12849   */\n      0x04\n        /* \"#utility.yul\":12841:12856   */\n      mstore\n        /* \"#utility.yul\":12875:12879   */\n      0x24\n        /* \"#utility.yul\":12872:12873   */\n      0x00\n        /* \"#utility.yul\":12865:12880   */\n      revert\n        /* \"#utility.yul\":12892:13072   */\n    tag_65:\n        /* \"#utility.yul\":12940:13017   */\n      0x4e487b7100000000000000000000000000000000000000000000000000000000\n        /* \"#utility.yul\":12937:12938   */\n      0x00\n        /* \"#utility.yul\":12930:13018   */\n      mstore\n        /* \"#utility.yul\":13037:13041   */\n      0x32\n        /* \"#utility.yul\":13034:13035   */\n      0x04\n        /* \"#utility.yul\":13027:13042   */\n      mstore\n        /* \"#utility.yul\":13061:13065   */\n      0x24\n        /* \"#utility.yul\":13058:13059   */\n      0x00\n        /* \"#utility.yul\":13051:13066   */\n      revert\n        /* \"#utility.yul\":13078:13258   */\n    tag_51:\n        /* \"#utility.yul\":13126:13203   */\n      0x4e487b7100000000000000000000000000000000000000000000000000000000\n        /* \"#utility.yul\":13123:13124   */\n      0x00\n        /* \"#utility.yul\":13116:13204   */\n      mstore\n        /* \"#utility.yul\":13223:13227   */\n      0x41\n        /* \"#utility.yul\":13220:13221   */\n      0x04\n        /* \"#utility.yul\":13213:13228   */\n      mstore\n        /* \"#utility.yul\":13247:13251   */\n      0x24\n        /* \"#utility.yul\":13244:13245   */\n      0x00\n        /* \"#utility.yul\":13237:13252   */\n      revert\n        /* \"#utility.yul\":13387:13504   */\n    tag_170:\n        /* \"#utility.yul\":13496:13497   */\n      0x00\n        /* \"#utility.yul\":13493:13494   */\n      dup1\n        /* \"#utility.yul\":13486:13498   */\n      revert\n        /* \"#utility.yul\":13510:13761   */\n    tag_227:\n        /* \"#utility.yul\":13650:13684   */\n      0x506c65617365207375626d6974207468652061736b696e672070726963652069\n        /* \"#utility.yul\":13646:13647   */\n      0x00\n        /* \"#utility.yul\":13638:13644   */\n      dup3\n        /* \"#utility.yul\":13634:13648   */\n      add\n        /* \"#utility.yul\":13627:13685   */\n      mstore\n        /* \"#utility.yul\":13719:13753   */\n      0x6e206f7264657220746f20636f6d706c65746520746865207075726368617365\n        /* \"#utility.yul\":13714:13716   */\n      0x20\n        /* \"#utility.yul\":13706:13712   */\n      dup3\n        /* \"#utility.yul\":13702:13717   */\n      add\n        /* \"#utility.yul\":13695:13754   */\n      mstore\n        /* \"#utility.yul\":13510:13761   */\n      pop\n      jump\t// out\n        /* \"#utility.yul\":13767:13941   */\n    tag_232:\n        /* \"#utility.yul\":13907:13933   */\n      0x5072696365206d7573742062652061626f7665207a65726f0000000000000000\n        /* \"#utility.yul\":13903:13904   */\n      0x00\n        /* \"#utility.yul\":13895:13901   */\n      dup3\n        /* \"#utility.yul\":13891:13905   */\n      add\n        /* \"#utility.yul\":13884:13934   */\n      mstore\n        /* \"#utility.yul\":13767:13941   */\n      pop\n      jump\t// out\n        /* \"#utility.yul\":13947:14170   */\n    tag_237:\n        /* \"#utility.yul\":14087:14121   */\n      0x5072696365206d75737420626520657175616c20746f206c697374696e672070\n        /* \"#utility.yul\":14083:14084   */\n      0x00\n        /* \"#utility.yul\":14075:14081   */\n      dup3\n        /* \"#utility.yul\":14071:14085   */\n      add\n        /* \"#utility.yul\":14064:14122   */\n      mstore\n        /* \"#utility.yul\":14156:14162   */\n      0x7269636500000000000000000000000000000000000000000000000000000000\n        /* \"#utility.yul\":14151:14153   */\n      0x20\n        /* \"#utility.yul\":14143:14149   */\n      dup3\n        /* \"#utility.yul\":14139:14154   */\n      add\n        /* \"#utility.yul\":14132:14163   */\n      mstore\n        /* \"#utility.yul\":13947:14170   */\n      pop\n      jump\t// out\n        /* \"#utility.yul\":14176:14357   */\n    tag_242:\n        /* \"#utility.yul\":14316:14349   */\n      0x5265656e7472616e637947756172643a207265656e7472616e742063616c6c00\n        /* \"#utility.yul\":14312:14313   */\n      0x00\n        /* \"#utility.yul\":14304:14310   */\n      dup3\n        /* \"#utility.yul\":14300:14314   */\n      add\n        /* \"#utility.yul\":14293:14350   */\n      mstore\n        /* \"#utility.yul\":14176:14357   */\n      pop\n      jump\t// out\n        /* \"#utility.yul\":14363:14485   */\n    tag_162:\n        /* \"#utility.yul\":14436:14460   */\n      tag_320\n        /* \"#utility.yul\":14454:14459   */\n      dup2\n        /* \"#utility.yul\":14436:14460   */\n      tag_197\n      jump\t// in\n    tag_320:\n        /* \"#utility.yul\":14429:14434   */\n      dup2\n        /* \"#utility.yul\":14426:14461   */\n      eq\n        /* \"#utility.yul\":14416:14479   */\n      tag_321\n      jumpi\n        /* \"#utility.yul\":14475:14476   */\n      0x00\n        /* \"#utility.yul\":14472:14473   */\n      dup1\n        /* \"#utility.yul\":14465:14477   */\n      revert\n        /* \"#utility.yul\":14416:14479   */\n    tag_321:\n        /* \"#utility.yul\":14363:14485   */\n      pop\n      jump\t// out\n        /* \"#utility.yul\":14491:14613   */\n    tag_166:\n        /* \"#utility.yul\":14564:14588   */\n      tag_323\n        /* \"#utility.yul\":14582:14587   */\n      dup2\n        /* \"#utility.yul\":14564:14588   */\n      tag_254\n      jump\t// in\n    tag_323:\n        /* \"#utility.yul\":14557:14562   */\n      dup2\n        /* \"#utility.yul\":14554:14589   */\n      eq\n        /* \"#utility.yul\":14544:14607   */\n      tag_324\n      jumpi\n        /* \"#utility.yul\":14603:14604   */\n      0x00\n        /* \"#utility.yul\":14600:14601   */\n      dup1\n        /* \"#utility.yul\":14593:14605   */\n      revert\n        /* \"#utility.yul\":14544:14607   */\n    tag_324:\n        /* \"#utility.yul\":14491:14613   */\n      pop\n      jump\t// out\n\n    auxdata: 0xa26469706673582212203ce84aa03e705271bdbdfd8406960ba54312d284969a503abfc529d900b747b664736f6c63430008070033\n}\n",
				"bytecode": {
					"linkReferences": {},
					"object": "6080604052667c58508723800060045534801561001b57600080fd5b50600160008190555033600360006101000a81548173ffffffffffffffffffffffffffffffffffffffff021916908373ffffffffffffffffffffffffffffffffffffffff1602179055506119a5806100746000396000f3fe6080604052600436106100705760003560e01c806358eb2df51161004e57806358eb2df5146100f65780637c726b6914610112578063c23b139e1461014f578063f064c32e1461016b57610070565b80630f08efe01461007557806312e85585146100a0578063202e3740146100cb575b600080fd5b34801561008157600080fd5b5061008a610196565b604051610097919061158b565b60405180910390f35b3480156100ac57600080fd5b506100b5610476565b6040516100c2919061162d565b60405180910390f35b3480156100d757600080fd5b506100e0610480565b6040516100ed919061158b565b60405180910390f35b610110600480360381019061010b9190611287565b6107e4565b005b34801561011e57600080fd5b50610139600480360381019061013491906112da565b610b48565b604051610146919061162d565b60405180910390f35b61016960048036038101906101649190611247565b610b5b565b005b34801561017757600080fd5b50610180610e14565b60405161018d919061158b565b60405180910390f35b606060006101a46001611178565b905060006101b26002611178565b6101bc6001611178565b6101c691906116e8565b90506000808267ffffffffffffffff8111156101e5576101e461181d565b5b60405190808252806020026020018201604052801561021e57816020015b61020b61119c565b8152602001906001900390816102035790505b50905060005b8481101561046b57600073ffffffffffffffffffffffffffffffffffffffff16600560006001846102559190611692565b815260200190815260200160002060040160009054906101000a900473ffffffffffffffffffffffffffffffffffffffff1673ffffffffffffffffffffffffffffffffffffffff161415610458576000600560006001846102b69190611692565b81526020019081526020016000206000015490506000600560008381526020019081526020016000209050806040518060e0016040529081600082015481526020016001820160009054906101000a900473ffffffffffffffffffffffffffffffffffffffff1673ffffffffffffffffffffffffffffffffffffffff1673ffffffffffffffffffffffffffffffffffffffff168152602001600282015481526020016003820160009054906101000a900473ffffffffffffffffffffffffffffffffffffffff1673ffffffffffffffffffffffffffffffffffffffff1673ffffffffffffffffffffffffffffffffffffffff1681526020016004820160009054906101000a900473ffffffffffffffffffffffffffffffffffffffff1673ffffffffffffffffffffffffffffffffffffffff1673ffffffffffffffffffffffffffffffffffffffff168152602001600582015481526020016006820160009054906101000a900460ff16151515158152505084868151811061043b5761043a6117ee565b5b60200260200101819052506001856104539190611692565b945050505b808061046390611776565b915050610224565b508094505050505090565b6000600454905090565b6060600061048e6001611178565b905060008060005b83811015610537573373ffffffffffffffffffffffffffffffffffffffff16600560006001846104c69190611692565b815260200190815260200160002060040160009054906101000a900473ffffffffffffffffffffffffffffffffffffffff1673ffffffffffffffffffffffffffffffffffffffff161415610524576001836105219190611692565b92505b808061052f90611776565b915050610496565b5060008267ffffffffffffffff8111156105545761055361181d565b5b60405190808252806020026020018201604052801561058d57816020015b61057a61119c565b8152602001906001900390816105725790505b50905060005b848110156107d9573373ffffffffffffffffffffffffffffffffffffffff16600560006001846105c39190611692565b815260200190815260200160002060040160009054906101000a900473ffffffffffffffffffffffffffffffffffffffff1673ffffffffffffffffffffffffffffffffffffffff1614156107c6576000600560006001846106249190611692565b81526020019081526020016000206000015490506000600560008381526020019081526020016000209050806040518060e0016040529081600082015481526020016001820160009054906101000a900473ffffffffffffffffffffffffffffffffffffffff1673ffffffffffffffffffffffffffffffffffffffff1673ffffffffffffffffffffffffffffffffffffffff168152602001600282015481526020016003820160009054906101000a900473ffffffffffffffffffffffffffffffffffffffff1673ffffffffffffffffffffffffffffffffffffffff1673ffffffffffffffffffffffffffffffffffffffff1681526020016004820160009054906101000a900473ffffffffffffffffffffffffffffffffffffffff1673ffffffffffffffffffffffffffffffffffffffff1673ffffffffffffffffffffffffffffffffffffffff168152602001600582015481526020016006820160009054906101000a900460ff1615151515815250508486815181106107a9576107a86117ee565b5b60200260200101819052506001856107c19190611692565b945050505b80806107d190611776565b915050610593565b508094505050505090565b6002600054141561082a576040517f08c379a00000000000000000000000000000000000000000000000000000000081526004016108219061160d565b60405180910390fd5b600260008190555060008111610875576040517f08c379a000000000000000000000000000000000000000000000000000000000815260040161086c906115cd565b60405180910390fd5b60045434146108b9576040517f08c379a00000000000000000000000000000000000000000000000000000000081526004016108b0906115ed565b60405180910390fd5b6108c36001611186565b60006108cf6001611178565b90506040518060e001604052808281526020018573ffffffffffffffffffffffffffffffffffffffff1681526020018481526020013373ffffffffffffffffffffffffffffffffffffffff168152602001600073ffffffffffffffffffffffffffffffffffffffff16815260200183815260200160001515815250600560008381526020019081526020016000206000820151816000015560208201518160010160006101000a81548173ffffffffffffffffffffffffffffffffffffffff021916908373ffffffffffffffffffffffffffffffffffffffff1602179055506040820151816002015560608201518160030160006101000a81548173ffffffffffffffffffffffffffffffffffffffff021916908373ffffffffffffffffffffffffffffffffffffffff16021790555060808201518160040160006101000a81548173ffffffffffffffffffffffffffffffffffffffff021916908373ffffffffffffffffffffffffffffffffffffffff16021790555060a0820151816005015560c08201518160060160006101000a81548160ff0219169083151502179055509050508373ffffffffffffffffffffffffffffffffffffffff166323b872dd3330866040518463ffffffff1660e01b8152600401610ab093929190611554565b600060405180830381600087803b158015610aca57600080fd5b505af1158015610ade573d6000803e3d6000fd5b50505050828473ffffffffffffffffffffffffffffffffffffffff16827f045dfa01dcba2b36aba1d3dc4a874f4b0c5d2fbeb8d2c4b34a7d88c8d8f929d1336000876000604051610b32949392919061150f565b60405180910390a4506001600081905550505050565b6000816004819055506004549050919050565b60026000541415610ba1576040517f08c379a0000000000000000000000000000000000000000000000000000000008152600401610b989061160d565b60405180910390fd5b6002600081905550600060056000838152602001908152602001600020600501549050600060056000848152602001908152602001600020600201549050813414610c21576040517f08c379a0000000000000000000000000000000000000000000000000000000008152600401610c18906115ad565b60405180910390fd5b6005600084815260200190815260200160002060030160009054906101000a900473ffffffffffffffffffffffffffffffffffffffff1673ffffffffffffffffffffffffffffffffffffffff166108fc349081150290604051600060405180830381858888f19350505050158015610c9d573d6000803e3d6000fd5b508373ffffffffffffffffffffffffffffffffffffffff166323b872dd3033846040518463ffffffff1660e01b8152600401610cdb93929190611554565b600060405180830381600087803b158015610cf557600080fd5b505af1158015610d09573d6000803e3d6000fd5b50505050336005600085815260200190815260200160002060040160006101000a81548173ffffffffffffffffffffffffffffffffffffffff021916908373ffffffffffffffffffffffffffffffffffffffff16021790555060016005600085815260200190815260200160002060060160006101000a81548160ff021916908315150217905550610d9b6002611186565b600360009054906101000a900473ffffffffffffffffffffffffffffffffffffffff1673ffffffffffffffffffffffffffffffffffffffff166108fc6004549081150290604051600060405180830381858888f19350505050158015610e05573d6000803e3d6000fd5b50505060016000819055505050565b60606000610e226001611178565b905060008060005b83811015610ecb573373ffffffffffffffffffffffffffffffffffffffff1660056000600184610e5a9190611692565b815260200190815260200160002060030160009054906101000a900473ffffffffffffffffffffffffffffffffffffffff1673ffffffffffffffffffffffffffffffffffffffff161415610eb857600183610eb59190611692565b92505b8080610ec390611776565b915050610e2a565b5060008267ffffffffffffffff811115610ee857610ee761181d565b5b604051908082528060200260200182016040528015610f2157816020015b610f0e61119c565b815260200190600190039081610f065790505b50905060005b8481101561116d573373ffffffffffffffffffffffffffffffffffffffff1660056000600184610f579190611692565b815260200190815260200160002060030160009054906101000a900473ffffffffffffffffffffffffffffffffffffffff1673ffffffffffffffffffffffffffffffffffffffff16141561115a57600060056000600184610fb89190611692565b81526020019081526020016000206000015490506000600560008381526020019081526020016000209050806040518060e0016040529081600082015481526020016001820160009054906101000a900473ffffffffffffffffffffffffffffffffffffffff1673ffffffffffffffffffffffffffffffffffffffff1673ffffffffffffffffffffffffffffffffffffffff168152602001600282015481526020016003820160009054906101000a900473ffffffffffffffffffffffffffffffffffffffff1673ffffffffffffffffffffffffffffffffffffffff1673ffffffffffffffffffffffffffffffffffffffff1681526020016004820160009054906101000a900473ffffffffffffffffffffffffffffffffffffffff1673ffffffffffffffffffffffffffffffffffffffff1673ffffffffffffffffffffffffffffffffffffffff168152602001600582015481526020016006820160009054906101000a900460ff16151515158152505084868151811061113d5761113c6117ee565b5b60200260200101819052506001856111559190611692565b945050505b808061116590611776565b915050610f27565b508094505050505090565b600081600001549050919050565b6001816000016000828254019250508190555050565b6040518060e0016040528060008152602001600073ffffffffffffffffffffffffffffffffffffffff16815260200160008152602001600073ffffffffffffffffffffffffffffffffffffffff168152602001600073ffffffffffffffffffffffffffffffffffffffff168152602001600081526020016000151581525090565b60008135905061122c81611941565b92915050565b60008135905061124181611958565b92915050565b6000806040838503121561125e5761125d61184c565b5b600061126c8582860161121d565b925050602061127d85828601611232565b9150509250929050565b6000806000606084860312156112a05761129f61184c565b5b60006112ae8682870161121d565b93505060206112bf86828701611232565b92505060406112d086828701611232565b9150509250925092565b6000602082840312156112f0576112ef61184c565b5b60006112fe84828501611232565b91505092915050565b60006113138383611463565b60e08301905092915050565b6113288161172e565b82525050565b6113378161172e565b82525050565b6113468161171c565b82525050565b6113558161171c565b82525050565b600061136682611658565b6113708185611670565b935061137b83611648565b8060005b838110156113ac5781516113938882611307565b975061139e83611663565b92505060018101905061137f565b5085935050505092915050565b6113c281611740565b82525050565b6113d181611740565b82525050565b60006113e4604083611681565b91506113ef82611851565b604082019050919050565b6000611407601883611681565b9150611412826118a0565b602082019050919050565b600061142a602483611681565b9150611435826118c9565b604082019050919050565b600061144d601f83611681565b915061145882611918565b602082019050919050565b60e08201600082015161147960008501826114f1565b50602082015161148c602085018261133d565b50604082015161149f60408501826114f1565b5060608201516114b2606085018261131f565b5060808201516114c5608085018261131f565b5060a08201516114d860a08501826114f1565b5060c08201516114eb60c08501826113b9565b50505050565b6114fa8161176c565b82525050565b6115098161176c565b82525050565b6000608082019050611524600083018761132e565b611531602083018661132e565b61153e6040830185611500565b61154b60608301846113c8565b95945050505050565b6000606082019050611569600083018661134c565b611576602083018561134c565b6115836040830184611500565b949350505050565b600060208201905081810360008301526115a5818461135b565b905092915050565b600060208201905081810360008301526115c6816113d7565b9050919050565b600060208201905081810360008301526115e6816113fa565b9050919050565b600060208201905081810360008301526116068161141d565b9050919050565b6000602082019050818103600083015261162681611440565b9050919050565b60006020820190506116426000830184611500565b92915050565b6000819050602082019050919050565b600081519050919050565b6000602082019050919050565b600082825260208201905092915050565b600082825260208201905092915050565b600061169d8261176c565b91506116a88361176c565b9250827fffffffffffffffffffffffffffffffffffffffffffffffffffffffffffffffff038211156116dd576116dc6117bf565b5b828201905092915050565b60006116f38261176c565b91506116fe8361176c565b925082821015611711576117106117bf565b5b828203905092915050565b60006117278261174c565b9050919050565b60006117398261174c565b9050919050565b60008115159050919050565b600073ffffffffffffffffffffffffffffffffffffffff82169050919050565b6000819050919050565b60006117818261176c565b91507fffffffffffffffffffffffffffffffffffffffffffffffffffffffffffffffff8214156117b4576117b36117bf565b5b600182019050919050565b7f4e487b7100000000000000000000000000000000000000000000000000000000600052601160045260246000fd5b7f4e487b7100000000000000000000000000000000000000000000000000000000600052603260045260246000fd5b7f4e487b7100000000000000000000000000000000000000000000000000000000600052604160045260246000fd5b600080fd5b7f506c65617365207375626d6974207468652061736b696e67207072696365206960008201527f6e206f7264657220746f20636f6d706c65746520746865207075726368617365602082015250565b7f5072696365206d7573742062652061626f7665207a65726f0000000000000000600082015250565b7f5072696365206d75737420626520657175616c20746f206c697374696e67207060008201527f7269636500000000000000000000000000000000000000000000000000000000602082015250565b7f5265656e7472616e637947756172643a207265656e7472616e742063616c6c00600082015250565b61194a8161171c565b811461195557600080fd5b50565b6119618161176c565b811461196c57600080fd5b5056fea26469706673582212203ce84aa03e705271bdbdfd8406960ba54312d284969a503abfc529d900b747b664736f6c63430008070033",
					"opcodes": "PUSH1 0x80 PUSH1 0x40 MSTORE PUSH7 0x7C585087238000 PUSH1 0x4 SSTORE CALLVALUE DUP1 ISZERO PUSH2 0x1B JUMPI PUSH1 0x0 DUP1 REVERT JUMPDEST POP PUSH1 0x1 PUSH1 0x0 DUP2 SWAP1 SSTORE POP CALLER PUSH1 0x3 PUSH1 0x0 PUSH2 0x100 EXP DUP2 SLOAD DUP2 PUSH20 0xFFFFFFFFFFFFFFFFFFFFFFFFFFFFFFFFFFFFFFFF MUL NOT AND SWAP1 DUP4 PUSH20 0xFFFFFFFFFFFFFFFFFFFFFFFFFFFFFFFFFFFFFFFF AND MUL OR SWAP1 SSTORE POP PUSH2 0x19A5 DUP1 PUSH2 0x74 PUSH1 0x0 CODECOPY PUSH1 0x0 RETURN INVALID PUSH1 0x80 PUSH1 0x40 MSTORE PUSH1 0x4 CALLDATASIZE LT PUSH2 0x70 JUMPI PUSH1 0x0 CALLDATALOAD PUSH1 0xE0 SHR DUP1 PUSH4 0x58EB2DF5 GT PUSH2 0x4E JUMPI DUP1 PUSH4 0x58EB2DF5 EQ PUSH2 0xF6 JUMPI DUP1 PUSH4 0x7C726B69 EQ PUSH2 0x112 JUMPI DUP1 PUSH4 0xC23B139E EQ PUSH2 0x14F JUMPI DUP1 PUSH4 0xF064C32E EQ PUSH2 0x16B JUMPI PUSH2 0x70 JUMP JUMPDEST DUP1 PUSH4 0xF08EFE0 EQ PUSH2 0x75 JUMPI DUP1 PUSH4 0x12E85585 EQ PUSH2 0xA0 JUMPI DUP1 PUSH4 0x202E3740 EQ PUSH2 0xCB JUMPI JUMPDEST PUSH1 0x0 DUP1 REVERT JUMPDEST CALLVALUE DUP1 ISZERO PUSH2 0x81 JUMPI PUSH1 0x0 DUP1 REVERT JUMPDEST POP PUSH2 0x8A PUSH2 0x196 JUMP JUMPDEST PUSH1 0x40 MLOAD PUSH2 0x97 SWAP2 SWAP1 PUSH2 0x158B JUMP JUMPDEST PUSH1 0x40 MLOAD DUP1 SWAP2 SUB SWAP1 RETURN JUMPDEST CALLVALUE DUP1 ISZERO PUSH2 0xAC JUMPI PUSH1 0x0 DUP1 REVERT JUMPDEST POP PUSH2 0xB5 PUSH2 0x476 JUMP JUMPDEST PUSH1 0x40 MLOAD PUSH2 0xC2 SWAP2 SWAP1 PUSH2 0x162D JUMP JUMPDEST PUSH1 0x40 MLOAD DUP1 SWAP2 SUB SWAP1 RETURN JUMPDEST CALLVALUE DUP1 ISZERO PUSH2 0xD7 JUMPI PUSH1 0x0 DUP1 REVERT JUMPDEST POP PUSH2 0xE0 PUSH2 0x480 JUMP JUMPDEST PUSH1 0x40 MLOAD PUSH2 0xED SWAP2 SWAP1 PUSH2 0x158B JUMP JUMPDEST PUSH1 0x40 MLOAD DUP1 SWAP2 SUB SWAP1 RETURN JUMPDEST PUSH2 0x110 PUSH1 0x4 DUP1 CALLDATASIZE SUB DUP2 ADD SWAP1 PUSH2 0x10B SWAP2 SWAP1 PUSH2 0x1287 JUMP JUMPDEST PUSH2 0x7E4 JUMP JUMPDEST STOP JUMPDEST CALLVALUE DUP1 ISZERO PUSH2 0x11E JUMPI PUSH1 0x0 DUP1 REVERT JUMPDEST POP PUSH2 0x139 PUSH1 0x4 DUP1 CALLDATASIZE SUB DUP2 ADD SWAP1 PUSH2 0x134 SWAP2 SWAP1 PUSH2 0x12DA JUMP JUMPDEST PUSH2 0xB48 JUMP JUMPDEST PUSH1 0x40 MLOAD PUSH2 0x146 SWAP2 SWAP1 PUSH2 0x162D JUMP JUMPDEST PUSH1 0x40 MLOAD DUP1 SWAP2 SUB SWAP1 RETURN JUMPDEST PUSH2 0x169 PUSH1 0x4 DUP1 CALLDATASIZE SUB DUP2 ADD SWAP1 PUSH2 0x164 SWAP2 SWAP1 PUSH2 0x1247 JUMP JUMPDEST PUSH2 0xB5B JUMP JUMPDEST STOP JUMPDEST CALLVALUE DUP1 ISZERO PUSH2 0x177 JUMPI PUSH1 0x0 DUP1 REVERT JUMPDEST POP PUSH2 0x180 PUSH2 0xE14 JUMP JUMPDEST PUSH1 0x40 MLOAD PUSH2 0x18D SWAP2 SWAP1 PUSH2 0x158B JUMP JUMPDEST PUSH1 0x40 MLOAD DUP1 SWAP2 SUB SWAP1 RETURN JUMPDEST PUSH1 0x60 PUSH1 0x0 PUSH2 0x1A4 PUSH1 0x1 PUSH2 0x1178 JUMP JUMPDEST SWAP1 POP PUSH1 0x0 PUSH2 0x1B2 PUSH1 0x2 PUSH2 0x1178 JUMP JUMPDEST PUSH2 0x1BC PUSH1 0x1 PUSH2 0x1178 JUMP JUMPDEST PUSH2 0x1C6 SWAP2 SWAP1 PUSH2 0x16E8 JUMP JUMPDEST SWAP1 POP PUSH1 0x0 DUP1 DUP3 PUSH8 0xFFFFFFFFFFFFFFFF DUP2 GT ISZERO PUSH2 0x1E5 JUMPI PUSH2 0x1E4 PUSH2 0x181D JUMP JUMPDEST JUMPDEST PUSH1 0x40 MLOAD SWAP1 DUP1 DUP3 MSTORE DUP1 PUSH1 0x20 MUL PUSH1 0x20 ADD DUP3 ADD PUSH1 0x40 MSTORE DUP1 ISZERO PUSH2 0x21E JUMPI DUP2 PUSH1 0x20 ADD JUMPDEST PUSH2 0x20B PUSH2 0x119C JUMP JUMPDEST DUP2 MSTORE PUSH1 0x20 ADD SWAP1 PUSH1 0x1 SWAP1 SUB SWAP1 DUP2 PUSH2 0x203 JUMPI SWAP1 POP JUMPDEST POP SWAP1 POP PUSH1 0x0 JUMPDEST DUP5 DUP2 LT ISZERO PUSH2 0x46B JUMPI PUSH1 0x0 PUSH20 0xFFFFFFFFFFFFFFFFFFFFFFFFFFFFFFFFFFFFFFFF AND PUSH1 0x5 PUSH1 0x0 PUSH1 0x1 DUP5 PUSH2 0x255 SWAP2 SWAP1 PUSH2 0x1692 JUMP JUMPDEST DUP2 MSTORE PUSH1 0x20 ADD SWAP1 DUP2 MSTORE PUSH1 0x20 ADD PUSH1 0x0 KECCAK256 PUSH1 0x4 ADD PUSH1 0x0 SWAP1 SLOAD SWAP1 PUSH2 0x100 EXP SWAP1 DIV PUSH20 0xFFFFFFFFFFFFFFFFFFFFFFFFFFFFFFFFFFFFFFFF AND PUSH20 0xFFFFFFFFFFFFFFFFFFFFFFFFFFFFFFFFFFFFFFFF AND EQ ISZERO PUSH2 0x458 JUMPI PUSH1 0x0 PUSH1 0x5 PUSH1 0x0 PUSH1 0x1 DUP5 PUSH2 0x2B6 SWAP2 SWAP1 PUSH2 0x1692 JUMP JUMPDEST DUP2 MSTORE PUSH1 0x20 ADD SWAP1 DUP2 MSTORE PUSH1 0x20 ADD PUSH1 0x0 KECCAK256 PUSH1 0x0 ADD SLOAD SWAP1 POP PUSH1 0x0 PUSH1 0x5 PUSH1 0x0 DUP4 DUP2 MSTORE PUSH1 0x20 ADD SWAP1 DUP2 MSTORE PUSH1 0x20 ADD PUSH1 0x0 KECCAK256 SWAP1 POP DUP1 PUSH1 0x40 MLOAD DUP1 PUSH1 0xE0 ADD PUSH1 0x40 MSTORE SWAP1 DUP2 PUSH1 0x0 DUP3 ADD SLOAD DUP2 MSTORE PUSH1 0x20 ADD PUSH1 0x1 DUP3 ADD PUSH1 0x0 SWAP1 SLOAD SWAP1 PUSH2 0x100 EXP SWAP1 DIV PUSH20 0xFFFFFFFFFFFFFFFFFFFFFFFFFFFFFFFFFFFFFFFF AND PUSH20 0xFFFFFFFFFFFFFFFFFFFFFFFFFFFFFFFFFFFFFFFF AND PUSH20 0xFFFFFFFFFFFFFFFFFFFFFFFFFFFFFFFFFFFFFFFF AND DUP2 MSTORE PUSH1 0x20 ADD PUSH1 0x2 DUP3 ADD SLOAD DUP2 MSTORE PUSH1 0x20 ADD PUSH1 0x3 DUP3 ADD PUSH1 0x0 SWAP1 SLOAD SWAP1 PUSH2 0x100 EXP SWAP1 DIV PUSH20 0xFFFFFFFFFFFFFFFFFFFFFFFFFFFFFFFFFFFFFFFF AND PUSH20 0xFFFFFFFFFFFFFFFFFFFFFFFFFFFFFFFFFFFFFFFF AND PUSH20 0xFFFFFFFFFFFFFFFFFFFFFFFFFFFFFFFFFFFFFFFF AND DUP2 MSTORE PUSH1 0x20 ADD PUSH1 0x4 DUP3 ADD PUSH1 0x0 SWAP1 SLOAD SWAP1 PUSH2 0x100 EXP SWAP1 DIV PUSH20 0xFFFFFFFFFFFFFFFFFFFFFFFFFFFFFFFFFFFFFFFF AND PUSH20 0xFFFFFFFFFFFFFFFFFFFFFFFFFFFFFFFFFFFFFFFF AND PUSH20 0xFFFFFFFFFFFFFFFFFFFFFFFFFFFFFFFFFFFFFFFF AND DUP2 MSTORE PUSH1 0x20 ADD PUSH1 0x5 DUP3 ADD SLOAD DUP2 MSTORE PUSH1 0x20 ADD PUSH1 0x6 DUP3 ADD PUSH1 0x0 SWAP1 SLOAD SWAP1 PUSH2 0x100 EXP SWAP1 DIV PUSH1 0xFF AND ISZERO ISZERO ISZERO ISZERO DUP2 MSTORE POP POP DUP5 DUP7 DUP2 MLOAD DUP2 LT PUSH2 0x43B JUMPI PUSH2 0x43A PUSH2 0x17EE JUMP JUMPDEST JUMPDEST PUSH1 0x20 MUL PUSH1 0x20 ADD ADD DUP2 SWAP1 MSTORE POP PUSH1 0x1 DUP6 PUSH2 0x453 SWAP2 SWAP1 PUSH2 0x1692 JUMP JUMPDEST SWAP5 POP POP POP JUMPDEST DUP1 DUP1 PUSH2 0x463 SWAP1 PUSH2 0x1776 JUMP JUMPDEST SWAP2 POP POP PUSH2 0x224 JUMP JUMPDEST POP DUP1 SWAP5 POP POP POP POP POP SWAP1 JUMP JUMPDEST PUSH1 0x0 PUSH1 0x4 SLOAD SWAP1 POP SWAP1 JUMP JUMPDEST PUSH1 0x60 PUSH1 0x0 PUSH2 0x48E PUSH1 0x1 PUSH2 0x1178 JUMP JUMPDEST SWAP1 POP PUSH1 0x0 DUP1 PUSH1 0x0 JUMPDEST DUP4 DUP2 LT ISZERO PUSH2 0x537 JUMPI CALLER PUSH20 0xFFFFFFFFFFFFFFFFFFFFFFFFFFFFFFFFFFFFFFFF AND PUSH1 0x5 PUSH1 0x0 PUSH1 0x1 DUP5 PUSH2 0x4C6 SWAP2 SWAP1 PUSH2 0x1692 JUMP JUMPDEST DUP2 MSTORE PUSH1 0x20 ADD SWAP1 DUP2 MSTORE PUSH1 0x20 ADD PUSH1 0x0 KECCAK256 PUSH1 0x4 ADD PUSH1 0x0 SWAP1 SLOAD SWAP1 PUSH2 0x100 EXP SWAP1 DIV PUSH20 0xFFFFFFFFFFFFFFFFFFFFFFFFFFFFFFFFFFFFFFFF AND PUSH20 0xFFFFFFFFFFFFFFFFFFFFFFFFFFFFFFFFFFFFFFFF AND EQ ISZERO PUSH2 0x524 JUMPI PUSH1 0x1 DUP4 PUSH2 0x521 SWAP2 SWAP1 PUSH2 0x1692 JUMP JUMPDEST SWAP3 POP JUMPDEST DUP1 DUP1 PUSH2 0x52F SWAP1 PUSH2 0x1776 JUMP JUMPDEST SWAP2 POP POP PUSH2 0x496 JUMP JUMPDEST POP PUSH1 0x0 DUP3 PUSH8 0xFFFFFFFFFFFFFFFF DUP2 GT ISZERO PUSH2 0x554 JUMPI PUSH2 0x553 PUSH2 0x181D JUMP JUMPDEST JUMPDEST PUSH1 0x40 MLOAD SWAP1 DUP1 DUP3 MSTORE DUP1 PUSH1 0x20 MUL PUSH1 0x20 ADD DUP3 ADD PUSH1 0x40 MSTORE DUP1 ISZERO PUSH2 0x58D JUMPI DUP2 PUSH1 0x20 ADD JUMPDEST PUSH2 0x57A PUSH2 0x119C JUMP JUMPDEST DUP2 MSTORE PUSH1 0x20 ADD SWAP1 PUSH1 0x1 SWAP1 SUB SWAP1 DUP2 PUSH2 0x572 JUMPI SWAP1 POP JUMPDEST POP SWAP1 POP PUSH1 0x0 JUMPDEST DUP5 DUP2 LT ISZERO PUSH2 0x7D9 JUMPI CALLER PUSH20 0xFFFFFFFFFFFFFFFFFFFFFFFFFFFFFFFFFFFFFFFF AND PUSH1 0x5 PUSH1 0x0 PUSH1 0x1 DUP5 PUSH2 0x5C3 SWAP2 SWAP1 PUSH2 0x1692 JUMP JUMPDEST DUP2 MSTORE PUSH1 0x20 ADD SWAP1 DUP2 MSTORE PUSH1 0x20 ADD PUSH1 0x0 KECCAK256 PUSH1 0x4 ADD PUSH1 0x0 SWAP1 SLOAD SWAP1 PUSH2 0x100 EXP SWAP1 DIV PUSH20 0xFFFFFFFFFFFFFFFFFFFFFFFFFFFFFFFFFFFFFFFF AND PUSH20 0xFFFFFFFFFFFFFFFFFFFFFFFFFFFFFFFFFFFFFFFF AND EQ ISZERO PUSH2 0x7C6 JUMPI PUSH1 0x0 PUSH1 0x5 PUSH1 0x0 PUSH1 0x1 DUP5 PUSH2 0x624 SWAP2 SWAP1 PUSH2 0x1692 JUMP JUMPDEST DUP2 MSTORE PUSH1 0x20 ADD SWAP1 DUP2 MSTORE PUSH1 0x20 ADD PUSH1 0x0 KECCAK256 PUSH1 0x0 ADD SLOAD SWAP1 POP PUSH1 0x0 PUSH1 0x5 PUSH1 0x0 DUP4 DUP2 MSTORE PUSH1 0x20 ADD SWAP1 DUP2 MSTORE PUSH1 0x20 ADD PUSH1 0x0 KECCAK256 SWAP1 POP DUP1 PUSH1 0x40 MLOAD DUP1 PUSH1 0xE0 ADD PUSH1 0x40 MSTORE SWAP1 DUP2 PUSH1 0x0 DUP3 ADD SLOAD DUP2 MSTORE PUSH1 0x20 ADD PUSH1 0x1 DUP3 ADD PUSH1 0x0 SWAP1 SLOAD SWAP1 PUSH2 0x100 EXP SWAP1 DIV PUSH20 0xFFFFFFFFFFFFFFFFFFFFFFFFFFFFFFFFFFFFFFFF AND PUSH20 0xFFFFFFFFFFFFFFFFFFFFFFFFFFFFFFFFFFFFFFFF AND PUSH20 0xFFFFFFFFFFFFFFFFFFFFFFFFFFFFFFFFFFFFFFFF AND DUP2 MSTORE PUSH1 0x20 ADD PUSH1 0x2 DUP3 ADD SLOAD DUP2 MSTORE PUSH1 0x20 ADD PUSH1 0x3 DUP3 ADD PUSH1 0x0 SWAP1 SLOAD SWAP1 PUSH2 0x100 EXP SWAP1 DIV PUSH20 0xFFFFFFFFFFFFFFFFFFFFFFFFFFFFFFFFFFFFFFFF AND PUSH20 0xFFFFFFFFFFFFFFFFFFFFFFFFFFFFFFFFFFFFFFFF AND PUSH20 0xFFFFFFFFFFFFFFFFFFFFFFFFFFFFFFFFFFFFFFFF AND DUP2 MSTORE PUSH1 0x20 ADD PUSH1 0x4 DUP3 ADD PUSH1 0x0 SWAP1 SLOAD SWAP1 PUSH2 0x100 EXP SWAP1 DIV PUSH20 0xFFFFFFFFFFFFFFFFFFFFFFFFFFFFFFFFFFFFFFFF AND PUSH20 0xFFFFFFFFFFFFFFFFFFFFFFFFFFFFFFFFFFFFFFFF AND PUSH20 0xFFFFFFFFFFFFFFFFFFFFFFFFFFFFFFFFFFFFFFFF AND DUP2 MSTORE PUSH1 0x20 ADD PUSH1 0x5 DUP3 ADD SLOAD DUP2 MSTORE PUSH1 0x20 ADD PUSH1 0x6 DUP3 ADD PUSH1 0x0 SWAP1 SLOAD SWAP1 PUSH2 0x100 EXP SWAP1 DIV PUSH1 0xFF AND ISZERO ISZERO ISZERO ISZERO DUP2 MSTORE POP POP DUP5 DUP7 DUP2 MLOAD DUP2 LT PUSH2 0x7A9 JUMPI PUSH2 0x7A8 PUSH2 0x17EE JUMP JUMPDEST JUMPDEST PUSH1 0x20 MUL PUSH1 0x20 ADD ADD DUP2 SWAP1 MSTORE POP PUSH1 0x1 DUP6 PUSH2 0x7C1 SWAP2 SWAP1 PUSH2 0x1692 JUMP JUMPDEST SWAP5 POP POP POP JUMPDEST DUP1 DUP1 PUSH2 0x7D1 SWAP1 PUSH2 0x1776 JUMP JUMPDEST SWAP2 POP POP PUSH2 0x593 JUMP JUMPDEST POP DUP1 SWAP5 POP POP POP POP POP SWAP1 JUMP JUMPDEST PUSH1 0x2 PUSH1 0x0 SLOAD EQ ISZERO PUSH2 0x82A JUMPI PUSH1 0x40 MLOAD PUSH32 0x8C379A000000000000000000000000000000000000000000000000000000000 DUP2 MSTORE PUSH1 0x4 ADD PUSH2 0x821 SWAP1 PUSH2 0x160D JUMP JUMPDEST PUSH1 0x40 MLOAD DUP1 SWAP2 SUB SWAP1 REVERT JUMPDEST PUSH1 0x2 PUSH1 0x0 DUP2 SWAP1 SSTORE POP PUSH1 0x0 DUP2 GT PUSH2 0x875 JUMPI PUSH1 0x40 MLOAD PUSH32 0x8C379A000000000000000000000000000000000000000000000000000000000 DUP2 MSTORE PUSH1 0x4 ADD PUSH2 0x86C SWAP1 PUSH2 0x15CD JUMP JUMPDEST PUSH1 0x40 MLOAD DUP1 SWAP2 SUB SWAP1 REVERT JUMPDEST PUSH1 0x4 SLOAD CALLVALUE EQ PUSH2 0x8B9 JUMPI PUSH1 0x40 MLOAD PUSH32 0x8C379A000000000000000000000000000000000000000000000000000000000 DUP2 MSTORE PUSH1 0x4 ADD PUSH2 0x8B0 SWAP1 PUSH2 0x15ED JUMP JUMPDEST PUSH1 0x40 MLOAD DUP1 SWAP2 SUB SWAP1 REVERT JUMPDEST PUSH2 0x8C3 PUSH1 0x1 PUSH2 0x1186 JUMP JUMPDEST PUSH1 0x0 PUSH2 0x8CF PUSH1 0x1 PUSH2 0x1178 JUMP JUMPDEST SWAP1 POP PUSH1 0x40 MLOAD DUP1 PUSH1 0xE0 ADD PUSH1 0x40 MSTORE DUP1 DUP3 DUP2 MSTORE PUSH1 0x20 ADD DUP6 PUSH20 0xFFFFFFFFFFFFFFFFFFFFFFFFFFFFFFFFFFFFFFFF AND DUP2 MSTORE PUSH1 0x20 ADD DUP5 DUP2 MSTORE PUSH1 0x20 ADD CALLER PUSH20 0xFFFFFFFFFFFFFFFFFFFFFFFFFFFFFFFFFFFFFFFF AND DUP2 MSTORE PUSH1 0x20 ADD PUSH1 0x0 PUSH20 0xFFFFFFFFFFFFFFFFFFFFFFFFFFFFFFFFFFFFFFFF AND DUP2 MSTORE PUSH1 0x20 ADD DUP4 DUP2 MSTORE PUSH1 0x20 ADD PUSH1 0x0 ISZERO ISZERO DUP2 MSTORE POP PUSH1 0x5 PUSH1 0x0 DUP4 DUP2 MSTORE PUSH1 0x20 ADD SWAP1 DUP2 MSTORE PUSH1 0x20 ADD PUSH1 0x0 KECCAK256 PUSH1 0x0 DUP3 ADD MLOAD DUP2 PUSH1 0x0 ADD SSTORE PUSH1 0x20 DUP3 ADD MLOAD DUP2 PUSH1 0x1 ADD PUSH1 0x0 PUSH2 0x100 EXP DUP2 SLOAD DUP2 PUSH20 0xFFFFFFFFFFFFFFFFFFFFFFFFFFFFFFFFFFFFFFFF MUL NOT AND SWAP1 DUP4 PUSH20 0xFFFFFFFFFFFFFFFFFFFFFFFFFFFFFFFFFFFFFFFF AND MUL OR SWAP1 SSTORE POP PUSH1 0x40 DUP3 ADD MLOAD DUP2 PUSH1 0x2 ADD SSTORE PUSH1 0x60 DUP3 ADD MLOAD DUP2 PUSH1 0x3 ADD PUSH1 0x0 PUSH2 0x100 EXP DUP2 SLOAD DUP2 PUSH20 0xFFFFFFFFFFFFFFFFFFFFFFFFFFFFFFFFFFFFFFFF MUL NOT AND SWAP1 DUP4 PUSH20 0xFFFFFFFFFFFFFFFFFFFFFFFFFFFFFFFFFFFFFFFF AND MUL OR SWAP1 SSTORE POP PUSH1 0x80 DUP3 ADD MLOAD DUP2 PUSH1 0x4 ADD PUSH1 0x0 PUSH2 0x100 EXP DUP2 SLOAD DUP2 PUSH20 0xFFFFFFFFFFFFFFFFFFFFFFFFFFFFFFFFFFFFFFFF MUL NOT AND SWAP1 DUP4 PUSH20 0xFFFFFFFFFFFFFFFFFFFFFFFFFFFFFFFFFFFFFFFF AND MUL OR SWAP1 SSTORE POP PUSH1 0xA0 DUP3 ADD MLOAD DUP2 PUSH1 0x5 ADD SSTORE PUSH1 0xC0 DUP3 ADD MLOAD DUP2 PUSH1 0x6 ADD PUSH1 0x0 PUSH2 0x100 EXP DUP2 SLOAD DUP2 PUSH1 0xFF MUL NOT AND SWAP1 DUP4 ISZERO ISZERO MUL OR SWAP1 SSTORE POP SWAP1 POP POP DUP4 PUSH20 0xFFFFFFFFFFFFFFFFFFFFFFFFFFFFFFFFFFFFFFFF AND PUSH4 0x23B872DD CALLER ADDRESS DUP7 PUSH1 0x40 MLOAD DUP5 PUSH4 0xFFFFFFFF AND PUSH1 0xE0 SHL DUP2 MSTORE PUSH1 0x4 ADD PUSH2 0xAB0 SWAP4 SWAP3 SWAP2 SWAP1 PUSH2 0x1554 JUMP JUMPDEST PUSH1 0x0 PUSH1 0x40 MLOAD DUP1 DUP4 SUB DUP2 PUSH1 0x0 DUP8 DUP1 EXTCODESIZE ISZERO DUP1 ISZERO PUSH2 0xACA JUMPI PUSH1 0x0 DUP1 REVERT JUMPDEST POP GAS CALL ISZERO DUP1 ISZERO PUSH2 0xADE JUMPI RETURNDATASIZE PUSH1 0x0 DUP1 RETURNDATACOPY RETURNDATASIZE PUSH1 0x0 REVERT JUMPDEST POP POP POP POP DUP3 DUP5 PUSH20 0xFFFFFFFFFFFFFFFFFFFFFFFFFFFFFFFFFFFFFFFF AND DUP3 PUSH32 0x45DFA01DCBA2B36ABA1D3DC4A874F4B0C5D2FBEB8D2C4B34A7D88C8D8F929D1 CALLER PUSH1 0x0 DUP8 PUSH1 0x0 PUSH1 0x40 MLOAD PUSH2 0xB32 SWAP5 SWAP4 SWAP3 SWAP2 SWAP1 PUSH2 0x150F JUMP JUMPDEST PUSH1 0x40 MLOAD DUP1 SWAP2 SUB SWAP1 LOG4 POP PUSH1 0x1 PUSH1 0x0 DUP2 SWAP1 SSTORE POP POP POP POP JUMP JUMPDEST PUSH1 0x0 DUP2 PUSH1 0x4 DUP2 SWAP1 SSTORE POP PUSH1 0x4 SLOAD SWAP1 POP SWAP2 SWAP1 POP JUMP JUMPDEST PUSH1 0x2 PUSH1 0x0 SLOAD EQ ISZERO PUSH2 0xBA1 JUMPI PUSH1 0x40 MLOAD PUSH32 0x8C379A000000000000000000000000000000000000000000000000000000000 DUP2 MSTORE PUSH1 0x4 ADD PUSH2 0xB98 SWAP1 PUSH2 0x160D JUMP JUMPDEST PUSH1 0x40 MLOAD DUP1 SWAP2 SUB SWAP1 REVERT JUMPDEST PUSH1 0x2 PUSH1 0x0 DUP2 SWAP1 SSTORE POP PUSH1 0x0 PUSH1 0x5 PUSH1 0x0 DUP4 DUP2 MSTORE PUSH1 0x20 ADD SWAP1 DUP2 MSTORE PUSH1 0x20 ADD PUSH1 0x0 KECCAK256 PUSH1 0x5 ADD SLOAD SWAP1 POP PUSH1 0x0 PUSH1 0x5 PUSH1 0x0 DUP5 DUP2 MSTORE PUSH1 0x20 ADD SWAP1 DUP2 MSTORE PUSH1 0x20 ADD PUSH1 0x0 KECCAK256 PUSH1 0x2 ADD SLOAD SWAP1 POP DUP2 CALLVALUE EQ PUSH2 0xC21 JUMPI PUSH1 0x40 MLOAD PUSH32 0x8C379A000000000000000000000000000000000000000000000000000000000 DUP2 MSTORE PUSH1 0x4 ADD PUSH2 0xC18 SWAP1 PUSH2 0x15AD JUMP JUMPDEST PUSH1 0x40 MLOAD DUP1 SWAP2 SUB SWAP1 REVERT JUMPDEST PUSH1 0x5 PUSH1 0x0 DUP5 DUP2 MSTORE PUSH1 0x20 ADD SWAP1 DUP2 MSTORE PUSH1 0x20 ADD PUSH1 0x0 KECCAK256 PUSH1 0x3 ADD PUSH1 0x0 SWAP1 SLOAD SWAP1 PUSH2 0x100 EXP SWAP1 DIV PUSH20 0xFFFFFFFFFFFFFFFFFFFFFFFFFFFFFFFFFFFFFFFF AND PUSH20 0xFFFFFFFFFFFFFFFFFFFFFFFFFFFFFFFFFFFFFFFF AND PUSH2 0x8FC CALLVALUE SWAP1 DUP2 ISZERO MUL SWAP1 PUSH1 0x40 MLOAD PUSH1 0x0 PUSH1 0x40 MLOAD DUP1 DUP4 SUB DUP2 DUP6 DUP9 DUP9 CALL SWAP4 POP POP POP POP ISZERO DUP1 ISZERO PUSH2 0xC9D JUMPI RETURNDATASIZE PUSH1 0x0 DUP1 RETURNDATACOPY RETURNDATASIZE PUSH1 0x0 REVERT JUMPDEST POP DUP4 PUSH20 0xFFFFFFFFFFFFFFFFFFFFFFFFFFFFFFFFFFFFFFFF AND PUSH4 0x23B872DD ADDRESS CALLER DUP5 PUSH1 0x40 MLOAD DUP5 PUSH4 0xFFFFFFFF AND PUSH1 0xE0 SHL DUP2 MSTORE PUSH1 0x4 ADD PUSH2 0xCDB SWAP4 SWAP3 SWAP2 SWAP1 PUSH2 0x1554 JUMP JUMPDEST PUSH1 0x0 PUSH1 0x40 MLOAD DUP1 DUP4 SUB DUP2 PUSH1 0x0 DUP8 DUP1 EXTCODESIZE ISZERO DUP1 ISZERO PUSH2 0xCF5 JUMPI PUSH1 0x0 DUP1 REVERT JUMPDEST POP GAS CALL ISZERO DUP1 ISZERO PUSH2 0xD09 JUMPI RETURNDATASIZE PUSH1 0x0 DUP1 RETURNDATACOPY RETURNDATASIZE PUSH1 0x0 REVERT JUMPDEST POP POP POP POP CALLER PUSH1 0x5 PUSH1 0x0 DUP6 DUP2 MSTORE PUSH1 0x20 ADD SWAP1 DUP2 MSTORE PUSH1 0x20 ADD PUSH1 0x0 KECCAK256 PUSH1 0x4 ADD PUSH1 0x0 PUSH2 0x100 EXP DUP2 SLOAD DUP2 PUSH20 0xFFFFFFFFFFFFFFFFFFFFFFFFFFFFFFFFFFFFFFFF MUL NOT AND SWAP1 DUP4 PUSH20 0xFFFFFFFFFFFFFFFFFFFFFFFFFFFFFFFFFFFFFFFF AND MUL OR SWAP1 SSTORE POP PUSH1 0x1 PUSH1 0x5 PUSH1 0x0 DUP6 DUP2 MSTORE PUSH1 0x20 ADD SWAP1 DUP2 MSTORE PUSH1 0x20 ADD PUSH1 0x0 KECCAK256 PUSH1 0x6 ADD PUSH1 0x0 PUSH2 0x100 EXP DUP2 SLOAD DUP2 PUSH1 0xFF MUL NOT AND SWAP1 DUP4 ISZERO ISZERO MUL OR SWAP1 SSTORE POP PUSH2 0xD9B PUSH1 0x2 PUSH2 0x1186 JUMP JUMPDEST PUSH1 0x3 PUSH1 0x0 SWAP1 SLOAD SWAP1 PUSH2 0x100 EXP SWAP1 DIV PUSH20 0xFFFFFFFFFFFFFFFFFFFFFFFFFFFFFFFFFFFFFFFF AND PUSH20 0xFFFFFFFFFFFFFFFFFFFFFFFFFFFFFFFFFFFFFFFF AND PUSH2 0x8FC PUSH1 0x4 SLOAD SWAP1 DUP2 ISZERO MUL SWAP1 PUSH1 0x40 MLOAD PUSH1 0x0 PUSH1 0x40 MLOAD DUP1 DUP4 SUB DUP2 DUP6 DUP9 DUP9 CALL SWAP4 POP POP POP POP ISZERO DUP1 ISZERO PUSH2 0xE05 JUMPI RETURNDATASIZE PUSH1 0x0 DUP1 RETURNDATACOPY RETURNDATASIZE PUSH1 0x0 REVERT JUMPDEST POP POP POP PUSH1 0x1 PUSH1 0x0 DUP2 SWAP1 SSTORE POP POP POP JUMP JUMPDEST PUSH1 0x60 PUSH1 0x0 PUSH2 0xE22 PUSH1 0x1 PUSH2 0x1178 JUMP JUMPDEST SWAP1 POP PUSH1 0x0 DUP1 PUSH1 0x0 JUMPDEST DUP4 DUP2 LT ISZERO PUSH2 0xECB JUMPI CALLER PUSH20 0xFFFFFFFFFFFFFFFFFFFFFFFFFFFFFFFFFFFFFFFF AND PUSH1 0x5 PUSH1 0x0 PUSH1 0x1 DUP5 PUSH2 0xE5A SWAP2 SWAP1 PUSH2 0x1692 JUMP JUMPDEST DUP2 MSTORE PUSH1 0x20 ADD SWAP1 DUP2 MSTORE PUSH1 0x20 ADD PUSH1 0x0 KECCAK256 PUSH1 0x3 ADD PUSH1 0x0 SWAP1 SLOAD SWAP1 PUSH2 0x100 EXP SWAP1 DIV PUSH20 0xFFFFFFFFFFFFFFFFFFFFFFFFFFFFFFFFFFFFFFFF AND PUSH20 0xFFFFFFFFFFFFFFFFFFFFFFFFFFFFFFFFFFFFFFFF AND EQ ISZERO PUSH2 0xEB8 JUMPI PUSH1 0x1 DUP4 PUSH2 0xEB5 SWAP2 SWAP1 PUSH2 0x1692 JUMP JUMPDEST SWAP3 POP JUMPDEST DUP1 DUP1 PUSH2 0xEC3 SWAP1 PUSH2 0x1776 JUMP JUMPDEST SWAP2 POP POP PUSH2 0xE2A JUMP JUMPDEST POP PUSH1 0x0 DUP3 PUSH8 0xFFFFFFFFFFFFFFFF DUP2 GT ISZERO PUSH2 0xEE8 JUMPI PUSH2 0xEE7 PUSH2 0x181D JUMP JUMPDEST JUMPDEST PUSH1 0x40 MLOAD SWAP1 DUP1 DUP3 MSTORE DUP1 PUSH1 0x20 MUL PUSH1 0x20 ADD DUP3 ADD PUSH1 0x40 MSTORE DUP1 ISZERO PUSH2 0xF21 JUMPI DUP2 PUSH1 0x20 ADD JUMPDEST PUSH2 0xF0E PUSH2 0x119C JUMP JUMPDEST DUP2 MSTORE PUSH1 0x20 ADD SWAP1 PUSH1 0x1 SWAP1 SUB SWAP1 DUP2 PUSH2 0xF06 JUMPI SWAP1 POP JUMPDEST POP SWAP1 POP PUSH1 0x0 JUMPDEST DUP5 DUP2 LT ISZERO PUSH2 0x116D JUMPI CALLER PUSH20 0xFFFFFFFFFFFFFFFFFFFFFFFFFFFFFFFFFFFFFFFF AND PUSH1 0x5 PUSH1 0x0 PUSH1 0x1 DUP5 PUSH2 0xF57 SWAP2 SWAP1 PUSH2 0x1692 JUMP JUMPDEST DUP2 MSTORE PUSH1 0x20 ADD SWAP1 DUP2 MSTORE PUSH1 0x20 ADD PUSH1 0x0 KECCAK256 PUSH1 0x3 ADD PUSH1 0x0 SWAP1 SLOAD SWAP1 PUSH2 0x100 EXP SWAP1 DIV PUSH20 0xFFFFFFFFFFFFFFFFFFFFFFFFFFFFFFFFFFFFFFFF AND PUSH20 0xFFFFFFFFFFFFFFFFFFFFFFFFFFFFFFFFFFFFFFFF AND EQ ISZERO PUSH2 0x115A JUMPI PUSH1 0x0 PUSH1 0x5 PUSH1 0x0 PUSH1 0x1 DUP5 PUSH2 0xFB8 SWAP2 SWAP1 PUSH2 0x1692 JUMP JUMPDEST DUP2 MSTORE PUSH1 0x20 ADD SWAP1 DUP2 MSTORE PUSH1 0x20 ADD PUSH1 0x0 KECCAK256 PUSH1 0x0 ADD SLOAD SWAP1 POP PUSH1 0x0 PUSH1 0x5 PUSH1 0x0 DUP4 DUP2 MSTORE PUSH1 0x20 ADD SWAP1 DUP2 MSTORE PUSH1 0x20 ADD PUSH1 0x0 KECCAK256 SWAP1 POP DUP1 PUSH1 0x40 MLOAD DUP1 PUSH1 0xE0 ADD PUSH1 0x40 MSTORE SWAP1 DUP2 PUSH1 0x0 DUP3 ADD SLOAD DUP2 MSTORE PUSH1 0x20 ADD PUSH1 0x1 DUP3 ADD PUSH1 0x0 SWAP1 SLOAD SWAP1 PUSH2 0x100 EXP SWAP1 DIV PUSH20 0xFFFFFFFFFFFFFFFFFFFFFFFFFFFFFFFFFFFFFFFF AND PUSH20 0xFFFFFFFFFFFFFFFFFFFFFFFFFFFFFFFFFFFFFFFF AND PUSH20 0xFFFFFFFFFFFFFFFFFFFFFFFFFFFFFFFFFFFFFFFF AND DUP2 MSTORE PUSH1 0x20 ADD PUSH1 0x2 DUP3 ADD SLOAD DUP2 MSTORE PUSH1 0x20 ADD PUSH1 0x3 DUP3 ADD PUSH1 0x0 SWAP1 SLOAD SWAP1 PUSH2 0x100 EXP SWAP1 DIV PUSH20 0xFFFFFFFFFFFFFFFFFFFFFFFFFFFFFFFFFFFFFFFF AND PUSH20 0xFFFFFFFFFFFFFFFFFFFFFFFFFFFFFFFFFFFFFFFF AND PUSH20 0xFFFFFFFFFFFFFFFFFFFFFFFFFFFFFFFFFFFFFFFF AND DUP2 MSTORE PUSH1 0x20 ADD PUSH1 0x4 DUP3 ADD PUSH1 0x0 SWAP1 SLOAD SWAP1 PUSH2 0x100 EXP SWAP1 DIV PUSH20 0xFFFFFFFFFFFFFFFFFFFFFFFFFFFFFFFFFFFFFFFF AND PUSH20 0xFFFFFFFFFFFFFFFFFFFFFFFFFFFFFFFFFFFFFFFF AND PUSH20 0xFFFFFFFFFFFFFFFFFFFFFFFFFFFFFFFFFFFFFFFF AND DUP2 MSTORE PUSH1 0x20 ADD PUSH1 0x5 DUP3 ADD SLOAD DUP2 MSTORE PUSH1 0x20 ADD PUSH1 0x6 DUP3 ADD PUSH1 0x0 SWAP1 SLOAD SWAP1 PUSH2 0x100 EXP SWAP1 DIV PUSH1 0xFF AND ISZERO ISZERO ISZERO ISZERO DUP2 MSTORE POP POP DUP5 DUP7 DUP2 MLOAD DUP2 LT PUSH2 0x113D JUMPI PUSH2 0x113C PUSH2 0x17EE JUMP JUMPDEST JUMPDEST PUSH1 0x20 MUL PUSH1 0x20 ADD ADD DUP2 SWAP1 MSTORE POP PUSH1 0x1 DUP6 PUSH2 0x1155 SWAP2 SWAP1 PUSH2 0x1692 JUMP JUMPDEST SWAP5 POP POP POP JUMPDEST DUP1 DUP1 PUSH2 0x1165 SWAP1 PUSH2 0x1776 JUMP JUMPDEST SWAP2 POP POP PUSH2 0xF27 JUMP JUMPDEST POP DUP1 SWAP5 POP POP POP POP POP SWAP1 JUMP JUMPDEST PUSH1 0x0 DUP2 PUSH1 0x0 ADD SLOAD SWAP1 POP SWAP2 SWAP1 POP JUMP JUMPDEST PUSH1 0x1 DUP2 PUSH1 0x0 ADD PUSH1 0x0 DUP3 DUP3 SLOAD ADD SWAP3 POP POP DUP2 SWAP1 SSTORE POP POP JUMP JUMPDEST PUSH1 0x40 MLOAD DUP1 PUSH1 0xE0 ADD PUSH1 0x40 MSTORE DUP1 PUSH1 0x0 DUP2 MSTORE PUSH1 0x20 ADD PUSH1 0x0 PUSH20 0xFFFFFFFFFFFFFFFFFFFFFFFFFFFFFFFFFFFFFFFF AND DUP2 MSTORE PUSH1 0x20 ADD PUSH1 0x0 DUP2 MSTORE PUSH1 0x20 ADD PUSH1 0x0 PUSH20 0xFFFFFFFFFFFFFFFFFFFFFFFFFFFFFFFFFFFFFFFF AND DUP2 MSTORE PUSH1 0x20 ADD PUSH1 0x0 PUSH20 0xFFFFFFFFFFFFFFFFFFFFFFFFFFFFFFFFFFFFFFFF AND DUP2 MSTORE PUSH1 0x20 ADD PUSH1 0x0 DUP2 MSTORE PUSH1 0x20 ADD PUSH1 0x0 ISZERO ISZERO DUP2 MSTORE POP SWAP1 JUMP JUMPDEST PUSH1 0x0 DUP2 CALLDATALOAD SWAP1 POP PUSH2 0x122C DUP2 PUSH2 0x1941 JUMP JUMPDEST SWAP3 SWAP2 POP POP JUMP JUMPDEST PUSH1 0x0 DUP2 CALLDATALOAD SWAP1 POP PUSH2 0x1241 DUP2 PUSH2 0x1958 JUMP JUMPDEST SWAP3 SWAP2 POP POP JUMP JUMPDEST PUSH1 0x0 DUP1 PUSH1 0x40 DUP4 DUP6 SUB SLT ISZERO PUSH2 0x125E JUMPI PUSH2 0x125D PUSH2 0x184C JUMP JUMPDEST JUMPDEST PUSH1 0x0 PUSH2 0x126C DUP6 DUP3 DUP7 ADD PUSH2 0x121D JUMP JUMPDEST SWAP3 POP POP PUSH1 0x20 PUSH2 0x127D DUP6 DUP3 DUP7 ADD PUSH2 0x1232 JUMP JUMPDEST SWAP2 POP POP SWAP3 POP SWAP3 SWAP1 POP JUMP JUMPDEST PUSH1 0x0 DUP1 PUSH1 0x0 PUSH1 0x60 DUP5 DUP7 SUB SLT ISZERO PUSH2 0x12A0 JUMPI PUSH2 0x129F PUSH2 0x184C JUMP JUMPDEST JUMPDEST PUSH1 0x0 PUSH2 0x12AE DUP7 DUP3 DUP8 ADD PUSH2 0x121D JUMP JUMPDEST SWAP4 POP POP PUSH1 0x20 PUSH2 0x12BF DUP7 DUP3 DUP8 ADD PUSH2 0x1232 JUMP JUMPDEST SWAP3 POP POP PUSH1 0x40 PUSH2 0x12D0 DUP7 DUP3 DUP8 ADD PUSH2 0x1232 JUMP JUMPDEST SWAP2 POP POP SWAP3 POP SWAP3 POP SWAP3 JUMP JUMPDEST PUSH1 0x0 PUSH1 0x20 DUP3 DUP5 SUB SLT ISZERO PUSH2 0x12F0 JUMPI PUSH2 0x12EF PUSH2 0x184C JUMP JUMPDEST JUMPDEST PUSH1 0x0 PUSH2 0x12FE DUP5 DUP3 DUP6 ADD PUSH2 0x1232 JUMP JUMPDEST SWAP2 POP POP SWAP3 SWAP2 POP POP JUMP JUMPDEST PUSH1 0x0 PUSH2 0x1313 DUP4 DUP4 PUSH2 0x1463 JUMP JUMPDEST PUSH1 0xE0 DUP4 ADD SWAP1 POP SWAP3 SWAP2 POP POP JUMP JUMPDEST PUSH2 0x1328 DUP2 PUSH2 0x172E JUMP JUMPDEST DUP3 MSTORE POP POP JUMP JUMPDEST PUSH2 0x1337 DUP2 PUSH2 0x172E JUMP JUMPDEST DUP3 MSTORE POP POP JUMP JUMPDEST PUSH2 0x1346 DUP2 PUSH2 0x171C JUMP JUMPDEST DUP3 MSTORE POP POP JUMP JUMPDEST PUSH2 0x1355 DUP2 PUSH2 0x171C JUMP JUMPDEST DUP3 MSTORE POP POP JUMP JUMPDEST PUSH1 0x0 PUSH2 0x1366 DUP3 PUSH2 0x1658 JUMP JUMPDEST PUSH2 0x1370 DUP2 DUP6 PUSH2 0x1670 JUMP JUMPDEST SWAP4 POP PUSH2 0x137B DUP4 PUSH2 0x1648 JUMP JUMPDEST DUP1 PUSH1 0x0 JUMPDEST DUP4 DUP2 LT ISZERO PUSH2 0x13AC JUMPI DUP2 MLOAD PUSH2 0x1393 DUP9 DUP3 PUSH2 0x1307 JUMP JUMPDEST SWAP8 POP PUSH2 0x139E DUP4 PUSH2 0x1663 JUMP JUMPDEST SWAP3 POP POP PUSH1 0x1 DUP2 ADD SWAP1 POP PUSH2 0x137F JUMP JUMPDEST POP DUP6 SWAP4 POP POP POP POP SWAP3 SWAP2 POP POP JUMP JUMPDEST PUSH2 0x13C2 DUP2 PUSH2 0x1740 JUMP JUMPDEST DUP3 MSTORE POP POP JUMP JUMPDEST PUSH2 0x13D1 DUP2 PUSH2 0x1740 JUMP JUMPDEST DUP3 MSTORE POP POP JUMP JUMPDEST PUSH1 0x0 PUSH2 0x13E4 PUSH1 0x40 DUP4 PUSH2 0x1681 JUMP JUMPDEST SWAP2 POP PUSH2 0x13EF DUP3 PUSH2 0x1851 JUMP JUMPDEST PUSH1 0x40 DUP3 ADD SWAP1 POP SWAP2 SWAP1 POP JUMP JUMPDEST PUSH1 0x0 PUSH2 0x1407 PUSH1 0x18 DUP4 PUSH2 0x1681 JUMP JUMPDEST SWAP2 POP PUSH2 0x1412 DUP3 PUSH2 0x18A0 JUMP JUMPDEST PUSH1 0x20 DUP3 ADD SWAP1 POP SWAP2 SWAP1 POP JUMP JUMPDEST PUSH1 0x0 PUSH2 0x142A PUSH1 0x24 DUP4 PUSH2 0x1681 JUMP JUMPDEST SWAP2 POP PUSH2 0x1435 DUP3 PUSH2 0x18C9 JUMP JUMPDEST PUSH1 0x40 DUP3 ADD SWAP1 POP SWAP2 SWAP1 POP JUMP JUMPDEST PUSH1 0x0 PUSH2 0x144D PUSH1 0x1F DUP4 PUSH2 0x1681 JUMP JUMPDEST SWAP2 POP PUSH2 0x1458 DUP3 PUSH2 0x1918 JUMP JUMPDEST PUSH1 0x20 DUP3 ADD SWAP1 POP SWAP2 SWAP1 POP JUMP JUMPDEST PUSH1 0xE0 DUP3 ADD PUSH1 0x0 DUP3 ADD MLOAD PUSH2 0x1479 PUSH1 0x0 DUP6 ADD DUP3 PUSH2 0x14F1 JUMP JUMPDEST POP PUSH1 0x20 DUP3 ADD MLOAD PUSH2 0x148C PUSH1 0x20 DUP6 ADD DUP3 PUSH2 0x133D JUMP JUMPDEST POP PUSH1 0x40 DUP3 ADD MLOAD PUSH2 0x149F PUSH1 0x40 DUP6 ADD DUP3 PUSH2 0x14F1 JUMP JUMPDEST POP PUSH1 0x60 DUP3 ADD MLOAD PUSH2 0x14B2 PUSH1 0x60 DUP6 ADD DUP3 PUSH2 0x131F JUMP JUMPDEST POP PUSH1 0x80 DUP3 ADD MLOAD PUSH2 0x14C5 PUSH1 0x80 DUP6 ADD DUP3 PUSH2 0x131F JUMP JUMPDEST POP PUSH1 0xA0 DUP3 ADD MLOAD PUSH2 0x14D8 PUSH1 0xA0 DUP6 ADD DUP3 PUSH2 0x14F1 JUMP JUMPDEST POP PUSH1 0xC0 DUP3 ADD MLOAD PUSH2 0x14EB PUSH1 0xC0 DUP6 ADD DUP3 PUSH2 0x13B9 JUMP JUMPDEST POP POP POP POP JUMP JUMPDEST PUSH2 0x14FA DUP2 PUSH2 0x176C JUMP JUMPDEST DUP3 MSTORE POP POP JUMP JUMPDEST PUSH2 0x1509 DUP2 PUSH2 0x176C JUMP JUMPDEST DUP3 MSTORE POP POP JUMP JUMPDEST PUSH1 0x0 PUSH1 0x80 DUP3 ADD SWAP1 POP PUSH2 0x1524 PUSH1 0x0 DUP4 ADD DUP8 PUSH2 0x132E JUMP JUMPDEST PUSH2 0x1531 PUSH1 0x20 DUP4 ADD DUP7 PUSH2 0x132E JUMP JUMPDEST PUSH2 0x153E PUSH1 0x40 DUP4 ADD DUP6 PUSH2 0x1500 JUMP JUMPDEST PUSH2 0x154B PUSH1 0x60 DUP4 ADD DUP5 PUSH2 0x13C8 JUMP JUMPDEST SWAP6 SWAP5 POP POP POP POP POP JUMP JUMPDEST PUSH1 0x0 PUSH1 0x60 DUP3 ADD SWAP1 POP PUSH2 0x1569 PUSH1 0x0 DUP4 ADD DUP7 PUSH2 0x134C JUMP JUMPDEST PUSH2 0x1576 PUSH1 0x20 DUP4 ADD DUP6 PUSH2 0x134C JUMP JUMPDEST PUSH2 0x1583 PUSH1 0x40 DUP4 ADD DUP5 PUSH2 0x1500 JUMP JUMPDEST SWAP5 SWAP4 POP POP POP POP JUMP JUMPDEST PUSH1 0x0 PUSH1 0x20 DUP3 ADD SWAP1 POP DUP2 DUP2 SUB PUSH1 0x0 DUP4 ADD MSTORE PUSH2 0x15A5 DUP2 DUP5 PUSH2 0x135B JUMP JUMPDEST SWAP1 POP SWAP3 SWAP2 POP POP JUMP JUMPDEST PUSH1 0x0 PUSH1 0x20 DUP3 ADD SWAP1 POP DUP2 DUP2 SUB PUSH1 0x0 DUP4 ADD MSTORE PUSH2 0x15C6 DUP2 PUSH2 0x13D7 JUMP JUMPDEST SWAP1 POP SWAP2 SWAP1 POP JUMP JUMPDEST PUSH1 0x0 PUSH1 0x20 DUP3 ADD SWAP1 POP DUP2 DUP2 SUB PUSH1 0x0 DUP4 ADD MSTORE PUSH2 0x15E6 DUP2 PUSH2 0x13FA JUMP JUMPDEST SWAP1 POP SWAP2 SWAP1 POP JUMP JUMPDEST PUSH1 0x0 PUSH1 0x20 DUP3 ADD SWAP1 POP DUP2 DUP2 SUB PUSH1 0x0 DUP4 ADD MSTORE PUSH2 0x1606 DUP2 PUSH2 0x141D JUMP JUMPDEST SWAP1 POP SWAP2 SWAP1 POP JUMP JUMPDEST PUSH1 0x0 PUSH1 0x20 DUP3 ADD SWAP1 POP DUP2 DUP2 SUB PUSH1 0x0 DUP4 ADD MSTORE PUSH2 0x1626 DUP2 PUSH2 0x1440 JUMP JUMPDEST SWAP1 POP SWAP2 SWAP1 POP JUMP JUMPDEST PUSH1 0x0 PUSH1 0x20 DUP3 ADD SWAP1 POP PUSH2 0x1642 PUSH1 0x0 DUP4 ADD DUP5 PUSH2 0x1500 JUMP JUMPDEST SWAP3 SWAP2 POP POP JUMP JUMPDEST PUSH1 0x0 DUP2 SWAP1 POP PUSH1 0x20 DUP3 ADD SWAP1 POP SWAP2 SWAP1 POP JUMP JUMPDEST PUSH1 0x0 DUP2 MLOAD SWAP1 POP SWAP2 SWAP1 POP JUMP JUMPDEST PUSH1 0x0 PUSH1 0x20 DUP3 ADD SWAP1 POP SWAP2 SWAP1 POP JUMP JUMPDEST PUSH1 0x0 DUP3 DUP3 MSTORE PUSH1 0x20 DUP3 ADD SWAP1 POP SWAP3 SWAP2 POP POP JUMP JUMPDEST PUSH1 0x0 DUP3 DUP3 MSTORE PUSH1 0x20 DUP3 ADD SWAP1 POP SWAP3 SWAP2 POP POP JUMP JUMPDEST PUSH1 0x0 PUSH2 0x169D DUP3 PUSH2 0x176C JUMP JUMPDEST SWAP2 POP PUSH2 0x16A8 DUP4 PUSH2 0x176C JUMP JUMPDEST SWAP3 POP DUP3 PUSH32 0xFFFFFFFFFFFFFFFFFFFFFFFFFFFFFFFFFFFFFFFFFFFFFFFFFFFFFFFFFFFFFFFF SUB DUP3 GT ISZERO PUSH2 0x16DD JUMPI PUSH2 0x16DC PUSH2 0x17BF JUMP JUMPDEST JUMPDEST DUP3 DUP3 ADD SWAP1 POP SWAP3 SWAP2 POP POP JUMP JUMPDEST PUSH1 0x0 PUSH2 0x16F3 DUP3 PUSH2 0x176C JUMP JUMPDEST SWAP2 POP PUSH2 0x16FE DUP4 PUSH2 0x176C JUMP JUMPDEST SWAP3 POP DUP3 DUP3 LT ISZERO PUSH2 0x1711 JUMPI PUSH2 0x1710 PUSH2 0x17BF JUMP JUMPDEST JUMPDEST DUP3 DUP3 SUB SWAP1 POP SWAP3 SWAP2 POP POP JUMP JUMPDEST PUSH1 0x0 PUSH2 0x1727 DUP3 PUSH2 0x174C JUMP JUMPDEST SWAP1 POP SWAP2 SWAP1 POP JUMP JUMPDEST PUSH1 0x0 PUSH2 0x1739 DUP3 PUSH2 0x174C JUMP JUMPDEST SWAP1 POP SWAP2 SWAP1 POP JUMP JUMPDEST PUSH1 0x0 DUP2 ISZERO ISZERO SWAP1 POP SWAP2 SWAP1 POP JUMP JUMPDEST PUSH1 0x0 PUSH20 0xFFFFFFFFFFFFFFFFFFFFFFFFFFFFFFFFFFFFFFFF DUP3 AND SWAP1 POP SWAP2 SWAP1 POP JUMP JUMPDEST PUSH1 0x0 DUP2 SWAP1 POP SWAP2 SWAP1 POP JUMP JUMPDEST PUSH1 0x0 PUSH2 0x1781 DUP3 PUSH2 0x176C JUMP JUMPDEST SWAP2 POP PUSH32 0xFFFFFFFFFFFFFFFFFFFFFFFFFFFFFFFFFFFFFFFFFFFFFFFFFFFFFFFFFFFFFFFF DUP3 EQ ISZERO PUSH2 0x17B4 JUMPI PUSH2 0x17B3 PUSH2 0x17BF JUMP JUMPDEST JUMPDEST PUSH1 0x1 DUP3 ADD SWAP1 POP SWAP2 SWAP1 POP JUMP JUMPDEST PUSH32 0x4E487B7100000000000000000000000000000000000000000000000000000000 PUSH1 0x0 MSTORE PUSH1 0x11 PUSH1 0x4 MSTORE PUSH1 0x24 PUSH1 0x0 REVERT JUMPDEST PUSH32 0x4E487B7100000000000000000000000000000000000000000000000000000000 PUSH1 0x0 MSTORE PUSH1 0x32 PUSH1 0x4 MSTORE PUSH1 0x24 PUSH1 0x0 REVERT JUMPDEST PUSH32 0x4E487B7100000000000000000000000000000000000000000000000000000000 PUSH1 0x0 MSTORE PUSH1 0x41 PUSH1 0x4 MSTORE PUSH1 0x24 PUSH1 0x0 REVERT JUMPDEST PUSH1 0x0 DUP1 REVERT JUMPDEST PUSH32 0x506C65617365207375626D6974207468652061736B696E672070726963652069 PUSH1 0x0 DUP3 ADD MSTORE PUSH32 0x6E206F7264657220746F20636F6D706C65746520746865207075726368617365 PUSH1 0x20 DUP3 ADD MSTORE POP JUMP JUMPDEST PUSH32 0x5072696365206D7573742062652061626F7665207A65726F0000000000000000 PUSH1 0x0 DUP3 ADD MSTORE POP JUMP JUMPDEST PUSH32 0x5072696365206D75737420626520657175616C20746F206C697374696E672070 PUSH1 0x0 DUP3 ADD MSTORE PUSH32 0x7269636500000000000000000000000000000000000000000000000000000000 PUSH1 0x20 DUP3 ADD MSTORE POP JUMP JUMPDEST PUSH32 0x5265656E7472616E637947756172643A207265656E7472616E742063616C6C00 PUSH1 0x0 DUP3 ADD MSTORE POP JUMP JUMPDEST PUSH2 0x194A DUP2 PUSH2 0x171C JUMP JUMPDEST DUP2 EQ PUSH2 0x1955 JUMPI PUSH1 0x0 DUP1 REVERT JUMPDEST POP JUMP JUMPDEST PUSH2 0x1961 DUP2 PUSH2 0x176C JUMP JUMPDEST DUP2 EQ PUSH2 0x196C JUMPI PUSH1 0x0 DUP1 REVERT JUMPDEST POP JUMP INVALID LOG2 PUSH5 0x6970667358 0x22 SLT KECCAK256 EXTCODECOPY 0xE8 0x4A LOG0 RETURNDATACOPY PUSH17 0x5271BDBDFD8406960BA54312D284969A50 GASPRICE 0xBF 0xC5 0x29 0xD9 STOP 0xB7 SELFBALANCE 0xB6 PUSH5 0x736F6C6343 STOP ADDMOD SMOD STOP CALLER "
				},
				"gasEstimates": {
					"creation": {
						"codeDepositCost": "1313000",
						"executionCost": "69855",
						"totalCost": "1382855"
					},
					"external": {
						"createMarketItem(address,uint256,uint256)": "infinite",
						"createMarketSale(address,uint256)": "infinite",
						"fetchItemsCreated()": "infinite",
						"fetchMarketItems()": "infinite",
						"fetchMyNFTs()": "infinite",
						"getListingPrice()": "2460",
						"setListingPrice(uint256)": "infinite"
					}
				},
				"methodIdentifiers": {
					"createMarketItem(address,uint256,uint256)": "58eb2df5",
					"createMarketSale(address,uint256)": "c23b139e",
					"fetchItemsCreated()": "f064c32e",
					"fetchMarketItems()": "0f08efe0",
					"fetchMyNFTs()": "202e3740",
					"getListingPrice()": "12e85585",
					"setListingPrice(uint256)": "7c726b69"
				}
			},
			"storageLayout": {
				"storage": [
					{
						"astId": 10,
						"contract": "example.sol:nftMarket",
						"label": "_status",
						"offset": 0,
						"slot": "0",
						"type": "t_uint256"
					},
					{
						"astId": 1734,
						"contract": "example.sol:nftMarket",
						"label": "_itemIds",
						"offset": 0,
						"slot": "1",
						"type": "t_struct(Counter)1390_storage"
					},
					{
						"astId": 1737,
						"contract": "example.sol:nftMarket",
						"label": "_itemSold",
						"offset": 0,
						"slot": "2",
						"type": "t_struct(Counter)1390_storage"
					},
					{
						"astId": 1739,
						"contract": "example.sol:nftMarket",
						"label": "owner",
						"offset": 0,
						"slot": "3",
						"type": "t_address_payable"
					},
					{
						"astId": 1742,
						"contract": "example.sol:nftMarket",
						"label": "listingPrice",
						"offset": 0,
						"slot": "4",
						"type": "t_uint256"
					},
					{
						"astId": 1774,
						"contract": "example.sol:nftMarket",
						"label": "idMarketItem",
						"offset": 0,
						"slot": "5",
						"type": "t_mapping(t_uint256,t_struct(MarketItem)1769_storage)"
					}
				],
				"types": {
					"t_address": {
						"encoding": "inplace",
						"label": "address",
						"numberOfBytes": "20"
					},
					"t_address_payable": {
						"encoding": "inplace",
						"label": "address payable",
						"numberOfBytes": "20"
					},
					"t_bool": {
						"encoding": "inplace",
						"label": "bool",
						"numberOfBytes": "1"
					},
					"t_mapping(t_uint256,t_struct(MarketItem)1769_storage)": {
						"encoding": "mapping",
						"key": "t_uint256",
						"label": "mapping(uint256 => struct nftMarket.MarketItem)",
						"numberOfBytes": "32",
						"value": "t_struct(MarketItem)1769_storage"
					},
					"t_struct(Counter)1390_storage": {
						"encoding": "inplace",
						"label": "struct Counters.Counter",
						"members": [
							{
								"astId": 1389,
								"contract": "example.sol:nftMarket",
								"label": "_value",
								"offset": 0,
								"slot": "0",
								"type": "t_uint256"
							}
						],
						"numberOfBytes": "32"
					},
					"t_struct(MarketItem)1769_storage": {
						"encoding": "inplace",
						"label": "struct nftMarket.MarketItem",
						"members": [
							{
								"astId": 1756,
								"contract": "example.sol:nftMarket",
								"label": "itemId",
								"offset": 0,
								"slot": "0",
								"type": "t_uint256"
							},
							{
								"astId": 1758,
								"contract": "example.sol:nftMarket",
								"label": "nftContract",
								"offset": 0,
								"slot": "1",
								"type": "t_address"
							},
							{
								"astId": 1760,
								"contract": "example.sol:nftMarket",
								"label": "tokenId",
								"offset": 0,
								"slot": "2",
								"type": "t_uint256"
							},
							{
								"astId": 1762,
								"contract": "example.sol:nftMarket",
								"label": "seller",
								"offset": 0,
								"slot": "3",
								"type": "t_address_payable"
							},
							{
								"astId": 1764,
								"contract": "example.sol:nftMarket",
								"label": "owner",
								"offset": 0,
								"slot": "4",
								"type": "t_address_payable"
							},
							{
								"astId": 1766,
								"contract": "example.sol:nftMarket",
								"label": "price",
								"offset": 0,
								"slot": "5",
								"type": "t_uint256"
							},
							{
								"astId": 1768,
								"contract": "example.sol:nftMarket",
								"label": "sold",
								"offset": 0,
								"slot": "6",
								"type": "t_bool"
							}
						],
						"numberOfBytes": "224"
					},
					"t_uint256": {
						"encoding": "inplace",
						"label": "uint256",
						"numberOfBytes": "32"
					}
				}
			},
			"userdoc": {
				"kind": "user",
				"methods": {
					"createMarketItem(address,uint256,uint256)": {
						"notice": "create a function that manages MarketItem"
					},
					"createMarketSale(address,uint256)": {
						"notice": "function to create a sale"
					},
					"fetchItemsCreated()": {
						"notice": "fetch the list of NFT's created by the user"
					},
					"fetchMarketItems()": {
						"notice": "total number of items unsold on our platform"
					},
					"fetchMyNFTs()": {
						"notice": "fetch the list of NFT's bought by the user"
					}
				},
				"version": 1
			}
		}
	}
}